:100000000C942A001895000018950000189500001F
:10001000189500001895000018950000189500002C
:100020001895000018950000189500000C948F009A
:10003000189500000C94E300189500001895000036
:1000400018950000189500001895000018950000FC
:10005000189500008FE58DBFC0E2E8EB4E2E88E0DA
:100060008EBFD8E0F7E05F2EEEEFF7E0A0E6B0E05D
:10007000A89584B7082E877F84BF88E1992781BD22
:1000800091BD88278D933197E9F783E089B980E0A6
:1000900080BD88E18AB96624579AA49AA59AA69A3F
:1000A000A79A8D9A8C9A81EA8FBD81E08EBD82E0FD
:1000B00083BF80E090E090934B0080934A0080E003
:1000C00090E09093490080934800A29AA39A8C9A5A
:1000D0008D9A8B988E9AD29880E080937700EEE18B
:1000E000F2E00E94C8000E94CF00AD9A969A89B7AC
:1000F000816089BF882783BF78940027A9E3B0E097
:100100008C9182FB0EF401E041E0041711F00C9495
:100110008C00AE9A0C948D00AE980C947D000F92DA
:100120001F922F923F924F925F927F92AF92BF9217
:100130000F931F932F933F934F935F936F937F93EF
:100140008F939F93AF93BF93CF93DF93EF93FF93DF
:100150008FB78F938F918FBFFF91EF91DF91CF91E9
:10016000BF91AF919F918F917F916F915F914F91CF
:100170003F912F911F910F91BF90AF907F905F9013
:100180004F903F902F901F900F901895F894FFCFAD
:100190000E94DF00802D11F005D0FACF08958DE088
:1001A00001D08AE05D9BFECF8CB908953197F1F7BD
:1001B0000895689462F80895E89462F80895C895DF
:1001C0003196002008957F930F93AF93BF938F9341
:1001D0009F938FB78F938091760004E1081B21F4E1
:1001E0009CB10E94D90012C000917500A0E6B0E059
:1001F00077279CB1A00FB71F9C93839580937600BF
:100200000395043109F40027009375008F918FBF87
:100210009F918F91BF91AF910F917F9118954D69EB
:100220006E69426F7420762E3220697320636F6E80
:080230006669677572656400E0
:00000001FF
