:100000000C942A001895000018950000189500001F
:10001000189500001895000018950000189500002C
:10002000189500001895000018950000189500001C
:10003000189500001895000018950000189500000C
:1000400018950000189500001895000018950000FC
:10005000189500008FE58DBFC0E4E8E34E2E88E0E0
:100060008EBFD8E0F8E05F2EEEEFF7E0A0E6B0E05C
:10007000A89584B7082E877F84BF88E1992781BD22
:1000800091BD88278D933197E9F78FE289B980E098
:1000900080BD88E18AB9662486EC80BD0E941D017E
:1000A00080E081B980EB80B986E990E00E940E0182
:1000B0008AE090E00E940E01E6E2F3E00E94F70081
:1000C000A0E6B0E034E10E94D20083E5A5E7B0E00D
:1000D0008C9387E5A6E7B0E08C9382E4A7E7B0E0D5
:1000E0008C9383E08A9310E7A5E7B0E00E94650156
:1000F000E2E3F3E00E94F70062FAA0E2B8E00E94B7
:100100008F018D9388278C930E94EF000E94FE0040
:10011000ECE3F3E00E94F7000E94FE0081E0809390
:10012000820082E08093830020E780E093E0AFE7E5
:10013000B0E00E946E01E6E4F3E00E94F700AFE752
:10014000B0E08C910E940101E0E5F3E00E94F7002D
:10015000A0E8B0E08C910E940101E0E5F3E00E948C
:10016000F700A1E8B0E08C910E9401010E94FE001E
:10017000E2E5F3E00E94F70062FAA0E2B8E00E9434
:100180008F018D9388278C930E94EF000E94FE00C0
:10019000ECE5F3E00E94F7000E94FE000C9458008A
:1001A000A0E2B8E018D0883091F08D3039F03323D8
:1001B000C9F38D933A9563FE24D0F4CF63FC04C059
:1001C0008DE01FD08AE01DD088278C93089519D028
:1001D00011973395E7CF5F9BFECF8CB10895A0E2D6
:1001E000B8E08D91882311F00CD0FBCF08950E94C8
:1001F0008B01802D11F005D0FACF08958DE001D04C
:100200008AE05D9BFECF8CB908953197F1F7089590
:10021000689462F80895E89462F80895EF93FF9364
:10022000EE27E82BE92B31F0E3E3F7E03197F1F724
:100230000197D1F7FF91EF910895A99AA89AA198F3
:10024000A0980895689446BF8F939F938827992715
:10025000019621F046B747FFFBCFE8949F918F911D
:1002600062F8089544EAEECF44E946BF46B747FD39
:10027000FDCF089513B944E8E5DF8F939F93882756
:100280009927019669F041B1487F483FD1F3E8943E
:10029000483139F0483229F0403419F0403509F03E
:1002A00068949F918F9162F8089544E801C044ECEE
:1002B000C9DF13B141B1487F483FE1F326F06894AC
:1002C000487009F0E89462F80895CCDF1E7FD2DF11
:1002D00089911D91CFDF8A95E1F7C6CF122F80302B
:1002E00059F0C0DF1E7FC6DFAF93BF931D91C2DF01
:1002F0008A95E1F7BF91AF91B5DF903059F0122F99
:100300001160B8DF913011F4D0DF01C0D0DF1D9350
:100310009A95C1F7A9CFC89531960020089580E33A
:100320000EF483950895545749206D617374657276
:100330003E002D6572726F72203A20002D2D73657C
:100340006E64656400006D6573736167653A2000D3
:1003500020002D6572726F723A2000002D2D72659B
:08036000636569766564000025
:00000001FF
