:1000000019C018951895189518951895189518955C
:100010001895189518951895189518951895189578
:100020001895189540C21895189518951895189513
:10003000AEC018958FEF8DBFC0EEE8ED4E2E84E078
:100040008EBFD4E0F4E05F2EEEEFF3E0A0E0B1E08D
:10005000A89584B7082E877F84BF88E1992780936D
:1000600060009093600088278D933197E9F78FE2C5
:100070008093C40080E08093C50088E18093C10034
:1000800066248091C10080688093C1008091BC008B
:1000900081608093BC0082E4A3E2B1E08C9384E5AC
:1000A000A4E2B1E08C9383E5A5E2B1E08C9383E018
:1000B00080932D0137D0579A5F987894E0E0F5E06F
:1000C000C6D1CBD1A7E1B1E08C9187FBABE2B0E028
:1000D0008C9187F98C93A7E1B1E08C9186FB0EF0AF
:1000E0001BC0809117018F7B80931701EEE0F5E034
:1000F000AED1A8E1B1E08C91B3D1E8E1F5E0A7D1B0
:10010000A9E1B1E08C91ACD1E8E1F5E0A0D1AAE1A0
:10011000B1E08C91A5D1A1D18AE090E0B1D1D2CF4C
:10012000F894FFCF809117018F7B8093170180E0B7
:1001300080932201809117018F778093170180E0CF
:100140008093B9008FEF8093BB0080E78093BA0063
:100150008091BA008E7F8093BA008091BC00806449
:100160008093BC008091BC008F7D8093BC00809107
:10017000BC008F7E8093BC008091BC008460809323
:10018000BC008091BC0081608093BC0008950F92F8
:100190001F922F923F924F925F927F92AF92BF92A7
:1001A0000F931F932F933F934F935F936F937F937F
:1001B0008F939F93AF93BF93CF93DF93EF93FF936F
:1001C0008FB78F930091B90048EF0423AEE2B1E0FE
:1001D0000C9300912E01003609F018C080E0809346
:1001E0002201809117018F7B809317018091170165
:1001F0008068809317018091BC008F7E8093BC0043
:100200008091BC0080648093BC0005C1003809F077
:1002100030C0009122010A3008F010C0A2E2B1E023
:100220008C918F5F8C93A2E2B1E0AD90BB24A7E1EB
:10023000B1E0AA0DBB1D8091BB008C9300912201FF
:100240000A3009F40BC08091BC008F7E8093BC0003
:100250008091BC0080648093BC000AC08091BC0087
:100260008F7E8093BC008091BC008F7B8093BC000C
:10027000D2C0083809F015C08091BC008F7D8093F2
:10028000BC008091BC008F7E8093BC008091BC003C
:1002900080648093BC00809117018F778093170151
:1002A000BAC0003A09F025C000912201033009F0DC
:1002B00006C08091170180648093170105C080916A
:1002C00017018F7B809317018091BC008F7D8093F5
:1002D000BC008091BC008F7E8093BC008091BC00EC
:1002E00080648093BC00809117018F778093170101
:1002F00092C0083A09F007C0809117018068809386
:10030000170104C088C0083B09F03EC000912D01D0
:10031000003009F00EC08FEF8093BB008091BC00CD
:100320008F7E8093BC008091BC008F7B8093BC004B
:100330002AC0ADE2B1E0AD90BB24A2E2B1E0AA0DCB
:10034000BB1D8C918093BB0080912D0181508093C7
:100350002D0100912D01003009F00BC08091BC00EF
:100360008F7E8093BC008091BC008F7B8093BC000B
:100370000AC08091BC008F7E8093BC008091BC003D
:1003800080648093BC0047C0003C09F015C0809198
:10039000BC008F7D8093BC008091BC008F7E8093D9
:1003A000BC008091BC0080648093BC0080911701E8
:1003B0008F77809317012FC0083C09F010C08091FF
:1003C000BC008F7D8093BC008091BC008F7E8093A9
:1003D000BC008091BC0080648093BC001CC0083FBE
:1003E00009F001C018C0003009F015C08091BC00B0
:1003F0008F7D8093BC008091BC0080618093BC00A5
:100400008091BC0080648093BC00809117018F773D
:100410008093170100C08F918FBFFF91EF91DF9103
:10042000CF91BF91AF919F918F917F916F915F918C
:100430004F913F912F911F910F91BF90AF907F905F
:100440005F904F903F902F901F900F90189527D05E
:10045000802D11F005D0FBCF08958DE001D08AE00A
:100460000090C00005FEFCCF8093C6000895319730
:10047000F1F70895689462F80895E89462F8089591
:10048000EF93FF93EE27E82BE92B31F0E3E3F7E05E
:100490003197F1F70197D1F7FF91EF910895C89542
:1004A0003196002008957F930F93AF93BF938F935E
:1004B0009F938FB78F938091160104E1081B21F45D
:1004C0009091C600D7DF13C000911501A0E0B1E004
:1004D00077279091C600A00FB71F9C9383958093B8
:1004E00016010395043109F40027009315018F913B
:1004F0008FBF9F918F91BF91AF910F917F91189571
:100500004D383820747769207465737400006D6508
:0A05100073736167653A2000200054
:00000001FF
