:100000000C942A001895000018950000189500001F
:10001000189500001895000018950000189500002C
:10002000189500001895000018950000189500001C
:10003000189500001895000018950000189500000C
:1000400018950000189500001895000018950000FC
:10005000189500008FE58DBFC0E4E8E34E2E84E0E4
:100060008EBFD4E0F4E05F2EEEEFF3E0A0E6B0E068
:10007000A89584B7082E877F84BF88E1992781BD22
:1000800091BD88278D933197E9F781E089B980E0A8
:1000900080BD88E18AB966248D9A8C9A81EA8FBDE9
:1000A00081E08EBD8C9A8D9A80E090E090934B0019
:1000B00080934A0080E090E090934900809348004C
:1000C00080E085BBA09AA19AA29AA39A0E943F01C0
:1000D00085E886B980EC87B9379A80E0809365001F
:1000E00000916500073018F011F00C94C90007B1B9
:1000F000007EA5E6B0E08C9190E0890F082707B953
:100100000E946A01A1E6B0E08D939D9388278D93AC
:100110008C9344E853E060E070E0A1E6B0E00D911C
:100120001D912D913C910E9473011CF011F00C94D3
:100130009B000C94AD005A924A9280916500A42DC8
:10014000B52D8C9381E00E944E010E94CB00229637
:1001500081E00E944A010C94BD005A924A9280911B
:100160006500A42DB52D8C9381E00E944E010E9464
:100170000501229681E00E944A018AE090E00E94F7
:100180005B01A5E6B0E08C918F5F8C9310F40C942A
:1001900070000C946D00A881B9810C91003011F0B1
:1001A0000C94D500909A0C940401013011F00C9439
:1001B000DC00919A0C940401023011F00C94E300DD
:1001C000929A0C940401033011F00C94EA00939A73
:1001D0000C940401043011F00C94F100C09A0C94BA
:1001E0000401053011F00C94F800C19A0C9404013C
:1001F000063011F00C94FF00969A0C94040107301D
:1002000011F00C940401979A0895A881B9810C917A
:10021000003011F00C940F0190980C943E010130C5
:1002200011F00C94160191980C943E01023011F0DB
:100230000C941D0192980C943E01033011F00C9423
:10024000240193980C943E01043011F00C942B017E
:10025000C0980C943E01053011F00C943201C19805
:100260000C943E01063011F00C94390196980C94D0
:100270003E01073011F00C943E0197980895549870
:100280005398889A899A8A9A8B9AB89AB99A8E9A28
:100290008F9A0895481A8827580A0895480E882783
:1002A000581E08953197F1F70895689462F80895FB
:1002B000E89462F80895EF93FF93EE27E82BE92B7B
:1002C00031F0E8EEF3E03197F1F70197D1F7FF91C4
:1002D000EF910895369A3699FECF369A3699FECF29
:1002E00084B195B1089504171507260737070895B7
:00000001FF
