:1000000019C018951895189518951895189518955C
:100010001895189518951895189518951895189578
:100020001895189561C018951895189518951895F4
:10003000189518958FEF8DBFC0ECE8E54E2E84E043
:100040008EBFD4E0F4E05F2EEEEFF3E0A0E0B1E08D
:10005000A89584B7082E877F84BF88E1992780936D
:1000600060009093600088278D933197E9F783E0D3
:100070008093C40080E08093C50088E18093C10034
:10008000662486E880937A0080EC80937C00219A35
:10009000229A83EA8093800083E080938100229AF1
:1000A0008091C10080688093C10088EE93E063D2A4
:1000B0005A924A92A42DB52DEEE2F7E071D285E175
:1000C000F6D187D1229685E1EED15A924A92A42D9B
:1000D000B52DE4E4F7E064D285E0E9D17AD1229647
:1000E00085E0E1D17894FFCF0F921F922F923F923B
:1000F0004F925F927F92AF92BF920F931F932F9375
:100100003F934F935F936F937F938F939F93AF939F
:10011000BF93CF93DF93EF93FF938FB78F9315D256
:10012000AAE7B1E08C9300917A010D3010F009F04C
:1001300001C00BC0AAE7B1E08C91A7E4B1E08F93B6
:10014000FDD18F918D9388278C9300917A010D308A
:1001500009F000C0A7E4B1E0EAE4F7E0D5D209F085
:1001600001C03DD0A7E4B1E0EEE4F7E0CDD209F064
:1001700001C082D084E30ED281E0E7E4F1E002E046
:100180000A93A981BA819BD2A881B981EAE4F7E0F8
:10019000BBD20FB684E3481A8827580A22960FBEAE
:1001A00009F001C01CD08F918FBFFF91EF91DF91BB
:1001B000CF91BF91AF919F918F917F916F915F91FF
:1001C0004F913F912F911F910F91BF90AF907F90D2
:1001D0005F904F903F902F901F900F901895A4E143
:1001E000B1E0E2E5F7E0DCD15A924A92E4E1F1E0D5
:1001F000A42DB52D5FD283E35AD1EBD0229683E3B1
:1002000052D183E28093040100910401013410F083
:1002100009F013C0A4E0B1E08C91992790938B0072
:1002200080938A0082E390E0A6D130D0A4E0B1E0D0
:100230008C918B5F8C9308F4E7CF81E48093040169
:100240004091040103E2041710F009F013C0A4E088
:10025000B1E08C91992790938B0080938A0082E380
:1002600090E089D113D0A4E0B1E08C9185508C93BB
:1002700008F0E6CFB4CF0895A4E0B1E08C919927BF
:1002800090938B0080938A002ECF089570917A000E
:10029000706870937A0000917C00007F006000938A
:1002A0007C0083D1A0E0B1E08D939C9300917C0011
:1002B000007F006000937C0078D1A0E0B1E08D93D6
:1002C0009C9300917C00007F006000937C006DD1C6
:1002D000A0E0B1E08D939C9370917A007F7770934A
:1002E0007A00009104014EE1041BA3E1B1E00C93FC
:1002F000A3E1B1E00C9145E0F1D10C93A0E0B1E0B5
:100300000D911C91A3E1B1E0AD90BB24A3E0B1E05D
:10031000AA0CBB1CAA0DBB1D4D915C91041B150BB7
:10032000A2E0B1E00D931C93A2E0B1E08D919C910D
:10033000E5D0A2E0B1E08D939C93A0E0B1E08D9177
:100340009C91A3E1B1E0AD90BB24A3E0B1E0AA0C85
:10035000BB1CAA0DBB1D8D939C93A2E0B1E00D9137
:100360001C91043650E0150714F009F001C030C0AC
:10037000A0E0B1E00D911C914AE050E0C5D0A0E0B2
:10038000B1E04D935C938DE0A4E1B1E08D938827BB
:100390008C93A4E1B1E0D2D0E4E0F1E03ED1A4E15D
:1003A000B1E0CCD0E8E5F7E0FBD0A4E1B1E0C6D005
:1003B000E0E0F1E023D15A924A92E4E1F1E0A42D89
:1003C000B52D78D183E373D004D0229683E36BD02C
:1003D000089581E0DFD081E0DDD082E0DBD0809144
:1003E000C1008F7E8093C1000027A0ECB0E08C910B
:1003F00085FB0EF401E040E0041709F001C0F4CFE2
:100400008AE08093C600AE81BF8178D1AA81BB818A
:100410008C9381E0AC81BD818C93AA81BB814C918E
:10042000AC81BD810C91041710F009F022C00027A7
:10043000A0ECB0E08C9185FB0EF401E040E00417E5
:1004400009F001C0F4CFAC81BD818C91EE81FF81B8
:1004500001E00A93A981BA8132D1A881B9818C9136
:100460008093C600AC81BD818C918F5F8C9308F422
:10047000D4CF0027A0ECB0E08C9185FB0EF401E016
:1004800040E0041709F001C0F4CF8DE08093C6006E
:100490008091C10080618093C10084E0481A882760
:1004A000580A26960895481A8827580A0895480E2B
:1004B0008827581E089500FC10D0089503D024D03A
:1004C00001F8F9CF0024E89457FF02C009D06894DE
:1004D00000F80BD010F80124089502D009D0089537
:1004E000509540954F5F5F4F0895E89417FF08952A
:1004F000009510950F5F1F4F6894089599231AF483
:100500008095909501960895352F242FE894452BDA
:1005100011F468940895512F402F0027112780E18E
:10052000440F551F001F111F021B130B416018F4CD
:10053000020F131F4E7F8A9599F708958F938D911F
:100540008823E9F711978F91089588270090C000BC
:1005500007FE089500C08091C00087FFFCCF809106
:10056000C60008953197F1F70895689462F80895E8
:10057000E89462F80895EF93FF93EE27E82BE92BB8
:1005800031F0E3E3F7E03197F1F70197D1F7FF910D
:10059000EF9108955A924A92480E8827581E08955E
:1005A0001BD00D920020E1F7089570917A007064DD
:1005B00070937A0000907A0006FCFCCF70917A006C
:1005C000706470937A0000907A0006FCFCCF8091F2
:1005D0007800909179000895C8953196002008958B
:1005E000000F111F221F331F0895009510952095AD
:1005F00030950F5F1F4F2F4F3F4F0895019110818E
:100600000EC001911191219130810BC00191108197
:1006100017FF05C03FEF2FEF04C0008111272227ED
:10062000332737FF03C0E1DF8DE28D93CF93DF9354
:10063000CF92DF92EF92AA24BB24CC24DD24EE24B7
:1006400040E2CAE0DD2755E093E38881890F87FD0A
:100650009F7083FD907F891B89935A95A9F7C0DF0E
:10066000AA1CBB1CCC1CDD1CEE1C4A9551F7E8945F
:10067000EFE0FF2782910ED0EB30E0F71EF0689498
:100680008A2D0CD088278D93EF90DF90CF90DF914B
:10069000CF910895982F829501D0892F8F70805D1A
:1006A00026F0803309F4089568948D93089588277F
:1006B0008D93089581918D938823E1F70895099191
:1006C0009191992351F08A95D9F7319781918D9322
:1006D0000A9519F08823D1F70895E9CFFF93881B75
:1006E000F9E0001FFA9511F4FF910895881F841B0B
:1006F00018F4840F8894F5CF0894F3CF8FEF839587
:100700009D919923E1F70895689401C0E894AF930F
:10071000BF938D9116F0919102C05EDF902D8917E5
:1007200018F011F48823A9F7BF91AF91089573745D
:10073000617274206D696E69626F74206D656761A6
:10074000383800007465737400006F6E00006F66C7
:0A07500066006164636400002D0080
:00000001FF
