:1000000019C018951895189518951895189518955C
:100010001895189518951895189518951895189578
:1000200041C0189578C01895189518951895189589
:10003000189518958FEF8DBFC0ECE8E54E2E84E043
:100040008EBFD4E0F4E05F2EEEEFF3E0A0E0B1E08D
:10005000A89584B7082E877F84BF88E1992780936D
:1000600060009093600088278D933197E9F783E0D3
:100070008093C40080E08093C50088E18093C10034
:10008000662486E880937A0080EC80937C0085B5B6
:10009000816085BD80916E00816080936E008EE6E8
:1000A00086BD2DC00F938F938FB78F93AF93BF9360
:1000B0009F93A4E0B1E08D919C9101969C938E93C7
:1000C00000278130900711F42A9A0FC0903041F038
:1000D000803D07E0900748F000270D930C9305C082
:1000E00012969D91891708F02A988EE686BD9F91F9
:1000F000BF91AF918F918FBF8F910F911895229AD9
:1001000088EE93E0ACD198D1E0EDF5E08FD194D1B9
:10011000789466D0FECF0F921F922F923F924F920B
:100120005F927F92AF92BF920F931F932F933F9353
:100130004F935F936F937F938F939F93AF93BF93EF
:10014000CF93DF93EF93FF938FB78F935AD1A7E3AA
:10015000B1E08C93009137010D3010F009F001C02F
:100160000EC0A7E3B1E08C91A7E2B1E08D938827A0
:100170008C93E7E2F1E0A7E1B1E03CD101D200913C
:1001800037010D3009F000C0A7E1B1E0EAEEF5E07B
:100190000CD209F001C024D0A7E1B1E0E6EFF5E010
:1001A00004D209F001C04FD08F918FBFFF91EF9122
:1001B000DF91CF91BF91AF919F918F917F916F917F
:1001C0005F914F913F912F911F910F91BF90AF90F1
:1001D0007F905F904F903F902F901F900F901895B9
:1001E00083E28093070100910701013410F009F0C8
:1001F0000FC0809107018093060182E390E02FD128
:1002000027D0A7E0B1E08C918B5F8C9308F4EBCF03
:1002100081E4809307014091070103E2041710F085
:1002200009F00FC0809107018093060182E390E0FE
:1002300016D10ED0A7E0B1E08C9185508C9308F0D8
:10024000EACFCECF089582E38093060162CF08956E
:1002500070917A00706870937A0000917C00007F42
:10026000006000937C000AD1A0E0B1E08D939C93E4
:1002700000917C00007F006000937C00FFD0A0E034
:10028000B1E08D939C9300917C00007F006000930F
:100290007C00F4D0A0E0B1E08D939C9370917A0043
:1002A0007F7770937A00009107014EE1041BA6E16D
:1002B000B1E00C93A6E1B1E00C9145E066D10C935E
:1002C000A0E0B1E00D911C91A6E1B1E0AD90BB249E
:1002D000A6E0B1E0AA0CBB1CAA0DBB1D4D915C9120
:1002E000041B150BA2E0B1E00D931C93A2E0B1E05A
:1002F0008D919C915FD0A2E0B1E08D939C93A0E0A2
:10030000B1E08D919C91A6E1B1E0AD90BB24A6E057
:10031000B1E0AA0CBB1CAA0DBB1D8D939C93A2E05F
:10032000B1E00D911C91063450E0150714F009F06E
:1003300001C01CC08DE083D0A0E0B1E00D911C9104
:100340004AE050E03DD0A0E0B1E04D935C93A0E4E2
:10035000B4E0E7E0F1E0CAD061D0E4E0F6E066D0D6
:10036000A0E4B4E0E0E0F1E0B2D058D0089500FCA1
:1003700010D0089503D024D001F8F9CF0024E894D8
:1003800057FF02C009D0689400F80BD010F8012480
:10039000089502D009D00895509540954F5F5F4F62
:1003A0000895E89417FF0895009510950F5F1F4F6B
:1003B0006894089599231AF480959095019608956C
:1003C000352F242FE894452B11F468940895512F6C
:1003D000402F0027112780E1440F551F001F111FD8
:1003E000021B130B416018F4020F131F4E7F8A95F6
:1003F00099F708958F938D918823E9F711978F913D
:10040000089588270090C00007FE089500C08091DD
:10041000C00087FFFCCF8091C6000895A0E4B4E03F
:100420008D91882311F00BD0FBCF08953ED0802D05
:1004300011F005D0FBCF08958DE001D08AE0009047
:10044000C00005FEFCCF8093C60008953197F1F7F8
:100450000895689462F80895E89462F80895EF9317
:10046000FF93EE27E82BE92B31F0E3E3F7E0319738
:10047000F1F70197D1F7FF91EF91089570917A000C
:10048000706470937A0000907A0006FCFCCF709143
:100490007A00706470937A0000907A0006FCFCCFBA
:1004A00080917800909179000895C8953196002048
:1004B0000895000F111F221F331F089500951095F6
:1004C000209530950F5F1F4F2F4F3F4F089501919B
:1004D00010810EC001911191219130810BC00191C9
:1004E000108117FF05C03FEF2FEF04C000811127D7
:1004F0002227332737FF03C0E1DF8DE28D93CF93AF
:10050000DF93CF92DF92EF92AA24BB24CC24DD2488
:10051000EE2440E2CAE0DD2755E093E38881890FAD
:1005200087FD9F7083FD907F891B89935A95A9F75A
:10053000C0DFAA1CBB1CCC1CDD1CEE1C4A9551F76D
:10054000E894EFE0FF2782910ED0EB30E0F71EF049
:1005500068948A2D0CD088278D93EF90DF90CF90F0
:10056000DF91CF910895982F829501D0892F8F70B8
:10057000805D26F0803309F4089568948D93089582
:1005800081918D938823E1F70895FF93881BF9E00B
:10059000001FFA9511F4FF910895881F841B18F429
:1005A000840F8894F5CF0894F3CF689401C0E89441
:1005B000AF93BF938D9116F0919102C076DF902D8D
:1005C000891718F011F48823A9F7BF91AF91089506
:1005D0005374617274204D6567613838204D696EBF
:1005E00069426F7420322E3100004D38385F5363FA
:1005F000616E5F6F6E004D38385F5363616E5F6F81
:06060000666600002D00FB
:00000001FF
