:1000000019C018951895189518951895189518955C
:100010001895189518951895189518951895189578
:100020003BC018951895189518951895189518951A
:10003000189518958FEF8DBFC0ECE8E54E2E84E043
:100040008EBFD4E0F4E05F2EEEEFF3E0A0E0B1E08D
:10005000A89584B7082E877F84BF88E1992780936D
:1000600060009093600088278D933197E9F78FE2C5
:100070008093C40080E08093C50088E18093C10034
:10008000662485B5816085BD80916E008160809316
:100090006E0088EB86BD2DC00F938F938FB78F9323
:1000A000AF93BF939F93A0E0B1E08D919C91019697
:1000B0009C938E9300278130900711F42A9A0FC0E9
:1000C000903041F0803D07E0900748F000270D9305
:1000D0000C9305C012969D91891708F02A9888EB19
:1000E00086BD9F91BF91AF918F918FBF8F910F91DF
:1000F0001895229A80E080931A017894E3E0F1E069
:10010000FA93EA9378D0229686E14AD181E0E3E03F
:10011000F1E001E00A93A981BA815ED1A881B98199
:10012000ECE1F4E068D10FB686E1481A8827580A56
:1001300022960FBE81E009F080E08F9386E130D1F6
:1001400083E0E3E0F1E001E00A93A981BA8144D1C0
:10015000A881B981EEE1F4E04ED10FB686E1481AEC
:100160008827580A22960FBE81E009F080E09F910F
:100170008923882309F433C082E0E3E0F1E001E061
:100180000A93A8E1B1E028D1A8E1B1E08C91AAE1FD
:10019000B1E08C93AAE1B1E08C918F5F8C930091D8
:1001A0001A01003009F003C081E080931A0131E0A8
:1001B000AAE1B1E08C91A0E4B4E08D9388278C9300
:1001C000E0E4F4E0E894992782E0A3E0B1E0B0D065
:1001D000E3E0F1E0FA93EA939BD022960BC0A3E010
:1001E000B1E0E0E2F4E0E2D0E3E0F1E0FA93EA9398
:1001F0008FD0229683CF81E0D3D081E0D1D081E02F
:10020000CFD03C9882E08093B10080E08093B00032
:1002100088278093B10080E0AA81BB818C93AA815A
:10022000BB810C91033008F057C0AA81BB818C912F
:100230008F5F8C933499FECF82E08093B10080E091
:100240008093B2000091B200073808F001C0FACFE5
:1002500080E08093B20080E0AC81BD818C9380E02F
:10026000A881B9818C93AC81BD810C91083008F0D4
:1002700021C0A881B9810C91A6E2B0E08C9184FBE9
:10028000882780F9482F040FA881B9810C9391E049
:10029000A881B98190D0AC81BD818C918F5F8C9306
:1002A00080E08093B2000091B2000D3408F001C0EC
:1002B000FACFD9CF31E0A881B9819C91AA81BB81C5
:1002C0008C918A95AE81BF81A80F8827B81F9D9316
:1002D00088278093B100A3CFAA81BB818C918F5FC7
:1002E0008C9331E080E0A0E4B4E08D9388278C9378
:1002F000E0E4F4E0E8949927AA81BB818C91AE8177
:10030000BF8116D083E0481A8827580A2696089598
:100310003C9A449A80916E008E7F80936E00A881F3
:10032000B98138D080916E00816080936E0008950D
:10033000A80FB91F11971EF448D0802D01C08191DC
:100340008D93882311F03A95B1F708953197F1F71D
:100350000895689462F80895E89462F808958F9378
:100360009F938BE590E00197F1F79F918F9108950E
:1003700080952AE090E0089410F4449802C0449AD2
:100380000000EDDFECDF969587952A95A9F7089593
:10039000A0E4B4E08D91882311F0EADFFBCF08954B
:1003A0005A924A92480E8827581E08950ED00D92F0
:1003B0000020E1F70895903039F08C91869508F48B
:1003C00080689A95D9F78C930895C8953196002046
:1003D000089588278D93089509919191992351F05B
:1003E0008A95D9F7319781918D930A9519F08823D1
:1003F000D1F70895EECF689401C0E894AF93BF930E
:100400008D9116F0919102C0E0DF902D891718F0C0
:1004100011F48823A9F7BF91AF91089561006B0093
:040420006E72630095
:00000001FF
