:100000000C942A001895000018950000189500001F
:10001000189500001895000018950000189500002C
:10002000189500001895000018950000189500001C
:10003000189500000C94840818950000189500008D
:1000400018950000189500001895000018950000FC
:10005000189500008FE58DBFC0E2E8EB4E2E88E0DA
:100060008EBFD8E0F7E05F2EEEEFF7E0A0E6B0E05D
:1000700088278D933197E9F783E089B980E080BDC7
:1000800088E18AB96624579AA69AA79AAE9AE2E0BE
:10009000F0E00E94E706AE98A59AA49AA79AA69ABD
:1000A000E2E0F0E00E94E706AE9A80EF84BB0E9497
:1000B0000707E2E0F0E00E94E706AE988F9A979873
:1000C000E2E0F0E00E94E706E8E9F1E10E94D206F2
:1000D0000E94D9067894AF9A0E947A0780E08A93AA
:1000E00080E08A9382E88A9382E88A9383E08A9305
:1000F0000E94CD0782E88A9380E08A9380E08A9309
:1001000082E88A9380EE8A930E94CD07E2E0F0E0D5
:100110000E94E70680EA91E0A7E7B0E08D939C9308
:1001200084E68093790080E080937A0083E0809376
:100130007B008CEF80937C00E2EBF1E10E94E00613
:10014000E2E0F0E00E94E70683E08A938EE18A9382
:100150008EE18A938AE08A930E945208E2E0F0E0FE
:100160000E94E7068AE08A938EE18A938CE38A9361
:1001700084E68A9380EE8A930E94620740E25EE6FC
:1001800090E00E94C40746E25EE690E00E94C40749
:1001900043E250E790E00E94C407AF98F894FFCF85
:1001A000021020000000000000000000000000001D
:1001B000000000000000000000000000000000003F
:1001C000000000000000000000007CFFFF7C000039
:1001D00000000000000000000000003333000000B9
:1001E0000000000000000000003C3C00003C3C001F
:1001F00000000000000000000000000000000000FF
:100200000000000000001090F07E1E90F07E1E1096
:100210000000000000021E1F03021E1F0302000058
:10022000000000000000000078FCCCFFFFCCCC8870
:100230000000000000000000040C0C3F3F0C0F0702
:10024000000000000000001C1C1C80C0E070381C76
:100250000E0000000000181C0E070301001C1C1CEF
:10026000000000000000000000B8FCC6E23E1C00D8
:1002700000000000000000001F3F3121371E1C3627
:1002800022000000000000000000273F1F000000C7
:10029000000000000000000000000000000000005E
:1002A00000000000000000F0FCFE0701010000005B
:1002B00000000000000000030F1F38202000000095
:1002C000000000000000000000010107FEFCF0003B
:1002D0000000000000000000002020381F0F030075
:1002E00000000000000000004C5CF0FCFCF05C4CE6
:1002F00000000000000000000607010707010706D4
:100300000000000000000000808080F0F08080800D
:1003100000000000000000000101010F0F010101B9
:1003200000000000000000000000000000000000CD
:100330000000000000000000000000B8F878000095
:1003400000000000000000008080808080808080AD
:100350000000000000000000010101010101010195
:10036000000000000000000000000000000000008D
:1003700000000000000000000000003838380000D5
:10038000000000000000000000000080C0E07038A5
:100390001C0E0600000000181C0E070301000000E0
:1003A00000000000000000F8FE060383C363331E54
:1003B000FEF80000000000071F1E333130303018F7
:1003C0001F07000000000000000C0C0EFFFF0000E3
:1003D0000000000000000000003030303F3F3030AF
:1003E000300000000000001C1E07030383C3E377F6
:1003F0003E1C000000000030383C3E3733313030C6
:10040000303000000000000C0E07C3C3C3C3C3E7B5
:100410007E3C00000000000C1C3830303030303999
:100420001F0E0000000000C0E070381C0E07FFFF28
:1004300000000000000000030303030303033F3F29
:10044000030300000000003F7F636363636363E3B3
:10045000C38300000000000C1C38303030303038CE
:100460001F0F000000000000C0F0F8DCCEC7C3C3BF
:10047000C3800000000000070F1F393030303030DB
:10048000391F0F00000000030303030303C3F33FFE
:100490000F030000000000000000303C0F030000CC
:1004A00000000000000000BCFEE7C3C3C3E7FEBCC1
:1004B0000000000000000F1F393030303030391F8D
:1004C0000F0000000000003C7EE7C3C3C3C3C3E7C6
:1004D000FEFC00000000000000303030381C0E0729
:1004E00003000000000000000000007070700000B9
:1004F00000000000000000000000001C1C1C0000A8
:10050000000000000000000000000070707000009B
:1005100000000000000000000000009CFC7C0000C7
:10052000000000000000C0E0F0381C0E07030000CF
:10053000000000000000000103070E1C383000001E
:1005400000000000000000006060606060606060AB
:10055000600000000000000006060606060606060B
:100560000600000000000000000003070E1C38F029
:10057000E0C0000000000000000030381C0E07033F
:10058000010000000000001C1E070383C3E3773E48
:100590001C000000000000000000003737000000D1
:1005A000000000000000F8FE07F3FB1BFBFB07FE4A
:1005B000F800000000000F1F1833373637373603B6
:1005C000010000000000000000E0FC1F1FFCE00034
:1005D00000000000000000383F0706060606073F3F
:1005E00038000000000000FFFFC3C3C3C3E7FEBC28
:1005F000000000000000003F3F3030303030391F35
:100600000F000000000000F0FC0E07030303070EBC
:100610000C000000000000030F1C38303030381C84
:100620000C000000000000FFFF03030303070EFCA3
:10063000F00000000000003F3F30303030381C0F29
:100640000300000000000000FFFFC3C3C3C3C3C317
:1006500003030000000000003F3F303030303030F6
:1006600030300000000000FFFFC3C3C3C3C3C30397
:10067000030000000000003F3F00000000000000F9
:100680000000000000000000F0FC0E0703C3C3C31D
:10069000C7C6000000000000030F1C3830303030A7
:1006A0003F3F0000000000FFFFC0C0C0C0C0C0FF4F
:1006B000FF0000000000003F3F0000000000003F7E
:1006C0003F00000000000000000303FFFF030300E1
:1006D00000000000000000000030303F3F303000DC
:1006E000000000000000000000000000000000FF0B
:1006F000FF0000000000000E1E3830303030381F80
:1007000007000000000000FFFFC0E0F0381C0E07EB
:10071000030000000000003F3F000103070E1C38EB
:1007200030000000000000FFFF000000000000009B
:10073000000000000000003F3F30303030303030EB
:1007400030000000000000FFFF1E78E0E0781EFF90
:10075000FF0000000000003F3F0000010100003FDB
:100760003F000000000000FFFF0E38F0C00000FF57
:10077000FF0000000000003F3F00000003071C3F97
:100780003F000000000000F0FC0E070303070EFC12
:10079000F0000000000000030F1C383030381C0F40
:1007A00003000000000000FFFF8383838383C7FEF4
:1007B0007C0000000000003F3F0101010101010039
:1007C00000000000000000F0FC0E070303070EFC11
:1007D000F0000000000000030F1C3830363E1C3FC4
:1007E00033000000000000FFFF8383838383C7FE84
:1007F0007C0000000000003F3F010103070F1D388F
:10080000300000000000003C7EE7C3C3C3C3C78EB6
:100810000C0000000000000C1C3830303030391F54
:100820000F00000000000000030303FFFF030303A9
:1008300000000000000000000000003F3F0000003A
:1008400000000000000000FFFF000000000000FFAB
:10085000FF000000000000071F3830303030381F24
:1008600007000000000000073FF8C00000C0F83F8C
:10087000070000000000000000010F3E3E0F0100D5
:1008800000000000000000FFFF000080800000FF6B
:10089000FF0000000000003F3F1C060303061C3F52
:1008A0003F000000000000030F1C30E0E0301C0F90
:1008B00003000000000000303C0E030101030E3C69
:1008C00030000000000000030F3CF0C0C0F03C0FFF
:1008D00003000000000000000000003F3F00000097
:1008E0000000000000000003030303C3E3331F0FF5
:1008F00003000000000000303C3E33313030303027
:10090000300000000000000000FFFF0303030300AD
:100910000000000000000000003F3F303030300099
:1009200000000000000E1C3870E0C08000000000D5
:10093000000000000000000000000103070E1C186A
:100940000000000000000003030303FFFF0000009D
:1009500000000000000000303030303F3F00000059
:1009600000000000006070381C0E070E1C3870601C
:100970000000000000000000000000000000000077
:100980000000000000000000000000000000000067
:1009900000000000000000C0C0C0C0C0C0C0C0C097
:1009A000C0C000000000000000003E7E4E000000BD
:1009B0000000000000000000000000000000000037
:1009C000000000000000000040606060606060E0C7
:1009D000C00000000000001C3E3333333333333F8C
:1009E0003F000000000000FFFFC060606060E0C0EA
:1009F000800000000000003F3F3030303030381FB2
:100A00000F00000000000080C0E06060606060C017
:100A1000800000000000000F1F38303030303018E8
:100A20000800000000000080C0E0606060E0C0FFDF
:100A3000FF0000000000000F1F3830303030303F22
:100A40003F00000000000080C0E06060606060C0A7
:100A5000800000000000000F1F3B3333333333139B
:100A600001000000000000C0C0FCFEC7C3C30300BB
:100A70000000000000000000003F3F0000000000F8
:100A80000000000000000080C0E06060606060E086
:100A9000E000000000000003C7CECCCCCCCCE67F49
:100AA0003F000000000000FFFFC0606060E0C08009
:100AB000000000000000003F3F00000000003F3F3A
:100AC0000000000000000000000060ECEC000000EE
:100AD00000000000000000000030303F3F303000D8
:100AE00000000000000000000000000060ECEC00CE
:100AF00000000000000000000060E0C0C0FF7F00B8
:100B0000000000000000000000FFFF0080C0E06067
:100B10000000000000000000003F3F03070F1C38EA
:100B20003000000000000000000003FFFF00000094
:100B300000000000000000000030303F3F30300077
:100B400000000000000000E0C0E0E0C0C0E0E0C045
:100B5000800000000000003F3F00003F3F00003FDA
:100B60003F00000000000000E0E060606060E0C066
:100B700080000000000000003F3F00000000003F38
:100B80003F00000000000080C0E060606060E0C0E6
:100B9000800000000000000F1F3830303030381F58
:100BA0000F000000000000E0E06060606060E0C0F6
:100BB00080000000000000FFFF0C181818181C0F20
:100BC0000700000000000080C0E06060606060E03E
:100BD000E0000000000000070F1C181818180CFF98
:100BE000FF00000000000000E0E0C060606060E026
:100BF000C0000000000000003F3F000000000000B7
:100C00000000000000000000C0E060606060604024
:100C100000000000000000001133333333333F1E67
:100C200000000000000000006060FEFE60606000E8
:100C3000000000000000000000001F3F3030303096
:100C400000000000000000E0E0000000000000E004
:100C5000E00000000000000F1F3830303030183F37
:100C60003F00000000000060E0800000000080E025
:100C7000600000000000000001071E38381E070158
:100C800000000000000000E0E00000E0E00000E004
:100C9000E0000000000000071F381C0F0F1C381F69
:100CA000070000000000000060E0C0800080C0E09D
:100CB000600000000000000030381D0F070F1D38D5
:100CC00030000000000000000060E080000080E0D4
:100CD0006000000000000000000081E77E1E0701A8
:100CE00000000000000000006060606060E0E06004
:100CF000200000000000000030383C363331303036
:100D000030000000000080C0FC7E070303030000E9
:100D100000000000000000011F3F706060600000E4
:100D2000000000000000000000FFFF0000000000C5
:100D30000000000000000000003F3F000000000035
:100D4000000000000000000000030303077EFCC059
:100D5000800000000000000000606060703F1F0124
:100D60000000000000000010180C040C1810180CF3
:100D7000040000000000000000000000000000006F
:100D80000000000000000080C0603018183060C013
:100D9000800000000000000707060606060606079A
:100DA000070000000E948008802D11F005D0FACFC6
:100DB00008958DE001D08AE05D9BFECF8CB9089547
:100DC0000E948008802D11F008D0FACF089588EE97
:100DD00093E00ED03197D9F708950C94840731979A
:100DE000F1F70895689462F80895E89462F8089518
:100DF000EF93FF93EE27E82BE92B31F0E3E3F7E0E5
:100E00003197F1F70197D1F7FF91EF910895AC98E1
:100E100085E099270E94F806AC9AAD9AAE9AAF9AEF
:100E200081E03ED081E13CD081E23AD085E238D009
:100E30008FE324D089E234D083E032D088E299274E
:100E40000E94F8068AE32CD082E018D08DE228D0E8
:100E5000E8E6FEE014E10E948008802D0FD01A958C
:100E6000D1F78CE21DD0089500020406090B0D0F86
:100E700000020406090B0D0F00040B0FAD98AF988C
:100E8000AE9AAF9A2F9328E0881F10F4AE9A01C053
:100E9000AE98AF98AF9A2A95B9F7AD9A2F91089569
:100EA000AD98AF98AE98EDCF8AE2FADF8991E6DF90
:100EB0008991E4DF8BE2F4DF8991E0DF8991DEDF65
:100EC0008CE2EECF8981482F8A938C818A93481BCC
:100ED00043958C81082F8A938F818A93081B0395F1
:100EE000E3DF0E94B0088881C9DF41505040D9F744
:100EF0002596089588278A938A9381E68A9383E4C6
:100F00008A938FEF8A93DECFEF93FF93E091770080
:100F1000F091780020907B0030907C000E94800847
:100F2000202D0E948008302D0E948008002D0A93F9
:100F300031968052482F0E94B008E40FF51F08E058
:100F4000422F0E94B00880917900480F4A954A9339
:100F50008A9380917A00082F030F00937A00380F4C
:100F60003A953A938A93A0DF49910E94800808E05D
:100F70000694832D08F4822D81DF0A95C9F74A95DE
:100F8000A1F7FF91EF910895439553955A935A9382
:100F90004A934A9389DF892F71CFAA24BB24FF2467
:100FA000EC81EA80EE1AFF08FB81298033242F1A96
:100FB000330881E0EA14FA043CF42FEF3FEFE094A9
:100FC000F094E80EFA1C02C021E033272A143A04F8
:100FD0003CF46FEF7FEF20943094280E3A1C02C04F
:100FE00061E0772735D02E143F0414F009F017C0C4
:100FF000CE2CDF2CCC0CDD1C022C132C000C111C75
:101000009A81E91761F0E20FA00CB11CAE14BF0485
:1010100024F019F0F60FAC18BD081AD0F1CFC22C8D
:10102000D32CCC0CDD1C0E2C1F2C000C111C998118
:10103000F91711F425960895F60FA00CB11CA2140F
:10104000B30424F019F0E20FAC18BD0801D0EFCFC3
:101050004E2F5F2F988198CF4195C9F0842F807FC4
:10106000982F9295E2E9F0E1E90F9927F91F0E9484
:101070008008902D841751F00E948008002D091BD4
:10108000481B42950E94B008441F951F08959FEF8A
:1010900008950019324A62788EA2B4C5D4E1ECF406
:1010A000FAFEFF002227388149815A813395C42EE8
:1010B000D42EE52EF52E422FCFDF492F032F0E948D
:1010C000B008C51AD50E422FC9DF492F032F0E9441
:1010D000B008E51AF50E9B814D2D5E2D55DF9B81E5
:1010E0004C2D5E2D51DF9B814C2D5F2D4DDF9B8163
:1010F0005F2D4D2D49DF2E5F2E3FA8F224960895D7
:10110000C8953196002008957F930F93AF93BF93B6
:101110008F939F938FB78F938091760004E1081B84
:1011200021F49CB10E94F20612C000917500A0E665
:10113000B0E077279CB1A00FB71F9C938395809355
:1011400076000395043109F40027009375008F9110
:101150008FBF9F918F91BF91AF910F917F91189504
:10116000FF935527F8E0469508F4500F579547959B
:10117000FA95D1F7FF910895FF93881BF9E0001FBE
:10118000FA9511F4FF910895881F841B18F4840FB9
:101190008894F5CF0894F3CF4D696E69426F74203F
:1011A000762E3220697320636F6E6669677572658B
:0C11B0006400313233343536373800002B
:00000001FF
