:100000000C942A001895000018950000189500001F
:10001000189500001895000018950000189500002C
:10002000189500001895000018950000189500001C
:10003000189500000C94AA1418950000189500005B
:1000400018950000189500001895000018950000FC
:10005000189500008FE58DBFC0EEE8EF4E2E88E0CA
:100060008EBFD7E0F6E05F2EEEEFF7E0A0E6B0E05F
:10007000A89584B7082E877F84BF88E1992781BD22
:1000800091BD88278D933197E9F78FE289B980E098
:1000900080BD88E18AB96624579ABC9AC49ABC9AF2
:1000A000C49A0E94130A81E090E00E94220A0E94F2
:1000B000C30AA7E7B0E09C9384EF91E00E94220A74
:1000C000E8E1FCE20E94020A0E94090A7894A1E099
:1000D000B5E088278C93E2E3FCE20E94020A0E94CA
:1000E000090A8AE00E940C0A8DE00E940C0AEEE4E4
:1000F000FCE20E94020A86E090E00E94220AA4E745
:10010000B0E00E94D6140E940916A1E0B5E039E1E2
:100110000E94BD090E9406168AE00E940C0A8DE02A
:100120000E940C0A0E949B00A1E0B5E088278C93F6
:100130000C947100089581E00E94310A81E00E94D0
:10014000310A82E00E94310A82E00E94310A84E092
:100150000E94310A84E00E94310A84E00E94310A40
:100160000E943D0680E08093280580E08093290569
:1001700000912705003018F011F00C94C1000C9488
:10018000D202ECEEF4E0FA93EA935A924A9284E1B6
:10019000A42DB52D8C9381E00E9462090E94120764
:1001A000249681E00E945E09ECEEF4E0ACEEB4E04F
:1001B0000E949314ACEEB4E0E2E5FCE20E94F2157A
:1001C00011F00C944B01E6E5FCE20E94020A0E9449
:1001D000090A00912705023011F00C943801EC81D6
:1001E000FD81FA93EA935A924A9200E010E020E0EF
:1001F00030E0A42DB52D0D931D932D933C9384E0F9
:100200000E9462095A924A9203E010E020E030E036
:10021000A42DB52D0D931D932D933C9384E00E9446
:1002200062090E945B07269688E00E945E09AC8105
:10023000BD818C91AC85BD858C93AC85BD858C9141
:100240000E94150BAA85BB859C93AA85BB850C9142
:10025000003011F40C943401E2E6FCE20E94020A40
:100260000E94090A0C9436010E948F080C944901DF
:100270005A924A92A42DB52DECE7FCE20E94591443
:1002800083E00E9462090E945508229683E00E9442
:100290005E090C94D202E0E8FCE20E94F21511F033
:1002A0000C94A20100912705013011F00C94670114
:1002B000ACEEB4E0E4E8FCE20E945914ECEEF4E0A9
:1002C000FA93EA930E94770522960C94A00100917C
:1002D0002705023011F00C948F01ECEEF4E0FA9354
:1002E000EA935A924A928CE0A42DB52D8C9381E02A
:1002F0000E9462090E941207249681E00E945E0912
:10030000ECEEF4E0ACEEB4E00E94DB15ECEEF4E0D1
:10031000FA93EA930E94770522960C94A0015A92D0
:100320004A92A42DB52DE8E8FCE20E94591488E019
:100330000E9462090E945508229688E00E945E0988
:100340000C94D202E0E9FCE20E94F21511F00C9448
:10035000E40100912705023011F00C94D101ECEE7C
:10036000F4E0FA93EA935A924A928CE0A42DB52DC8
:100370008C9381E00E9462090E941207249681E01A
:100380000E945E09ECEEF4E0ACEEB4E00E94DB15F6
:10039000ECEEF4E0FA93EA930E94910422960C9416
:1003A000E2015A924A92A42DB52DE8E8FCE20E949F
:1003B000591488E00E9462090E945508229688E03C
:1003C0000E945E090C94D202E6E9FCE20E94F2155A
:1003D00011F00C943A0200912705023011F00C94B0
:1003E0002702ECEEF4E0FA93EA935A924A928CE0F8
:1003F000A42DB52D8C9381E00E9462090E94120702
:10040000249681E00E945E09ECEEF4E0ACEEB4E0EC
:100410000E94DB15ECE9FCE20E94020AACEEB4E0BB
:100420000E94FC09E8EAFCE20E94020A0E94090A12
:10043000ACEEB4E0EAEAFCE20E945914ECEEF4E01F
:10044000FA93EA930E94D80222960C9438025A92A8
:100450004A92A42DB52DE8E8FCE20E94591488E0E8
:100460000E9462090E945508229688E00E945E0957
:100470000C94D202E4EBFCE20E94F21511F00C9411
:100480005B0200912705013011F00C9459020E9483
:100490007513AC81BD810D931D932D933D93A0EEFB
:1004A000B6E0EC81FD810E94FF140E94FA090E94CF
:1004B000090A0C94D202EEEBFCE20E94F21511F054
:1004C0000C947C0200912705013011F00C947A0203
:1004D0000E947E13AC81BD810D931D932D933D939E
:1004E000A0EEB6E0EC81FD810E94FF140E94FA09A3
:1004F0000E94090A0C94D202E8ECFCE20E94F21578
:1005000011F00C94C40200912705023011F00C94F4
:10051000B102ECEEF4E0FA93EA935A924A928CE03C
:10052000A42DB52D8C9381E00E9462090E941207D0
:10053000249681E00E945E09ECEEF4E0ACEEB4E0BB
:100540000E94DB15EC85FD85FA93EA93ECEEF4E06E
:10055000FA93EA930E94230324960E9432080C9493
:10056000C2025A924A92A42DB52DECE7FCE20E94F9
:10057000591483E00E9462090E945508229683E084
:100580000E945E090C94D202EEECFCE20E94020A88
:10059000A1E0B5E00E94FC09E8EDFCE20E94020A3D
:1005A0000E94090A82E1481A8827580A2E9608955F
:1005B00081E00E94310A81E00E94310A8EE0AC8124
:1005C000BD810E94C50B81E0A881B9818C93E8941C
:1005D0008EE0AA81BB810E94F30BA0EEB6E0EA8117
:1005E000FB810E940B150E94FA09EAEEFCE20E94D0
:1005F000020AA881B9810C91043111F00C940A030C
:100600008DE00E940C0A8AE00E940C0A81E0A88119
:10061000B9818C93A881B9818C918F5F8C938EE086
:100620000E94E40B082F003011F40C94E702ECEE6A
:10063000FCE20E94020A0E94090A82E0481A882706
:10064000580A2496089500E010E020E030E0AFE87A
:10065000B5E00D931D932D933C930E943310B0F1A0
:100660008F93A881B9810E94660F8F9191E00E94BB
:10067000451060F122970E94B90D81FD22C00E94B1
:10068000DB0DE3E9F5E0A193B193E3E9F5E0FA933B
:10069000EA935A924A9280E092E0A42DB52D8D9370
:1006A0009C9382E00E946209EFE8F5E0FA93EA93F6
:1006B0000E946A03269682E00E945E090E946D0EE7
:1006C000D0F60E943C1022960E94F90DAA81BB81AF
:1006D0009C93089581E10E94310A81E00E94310AD1
:1006E00081E00E94310A82E00E94310A82E00E9489
:1006F000310A84E00E94310AAE85BF850D911C91BC
:10070000003050E0150718F011F00C9489030C9498
:100710007304AE85BF850E94710980E090E0AC81D2
:10072000BD818D939C93AE85BF854D915C91AC81CD
:10073000BD810D911C910417150718F011F00C9450
:100740006904AC81BD810D911C9148E050E00E948C
:10075000A109AA81BB810D931C93AA81BB810D9134
:100760001C91003050E0150711F00C94C803AC81C7
:10077000BD810D911C91003050E0150718F011F06B
:100780000C94C4030C94C803EAEEFCE20E94020A33
:10079000AC81BD810D911C9140E150E00E94A10906
:1007A000AA81BB810D931C93AA81BB810D911C91E1
:1007B000003050E0150711F00C941F04AC81BD818E
:1007C0000D911C91003050E0150718F011F00C94B9
:1007D000EB030C94F503E0EFFCE20E94020AAA8509
:1007E000BB850E94FC090E94090AAC85BD850D915C
:1007F0001D912D913C91AC81BD814D915C916627FD
:1008000077270E94DF14A881B9810D931D932D9342
:100810003D93A0EEB6E0E881F9810E9488150E9420
:10082000FA09E0EFFCE20E94020AAA85BB85E4EF28
:10083000FCE20E94591481E0AE81BF818C93A889AB
:10084000B989ED91FC918081A885B9858C93A8899F
:10085000B9890E946A09A0EEB6E0E885F9850E9490
:1008600084150E94FA09EAEEFCE20E94020AA885B9
:10087000B9850C910F3118F011F00C9441040C94CF
:10088000510431E0A885B9859C91AE81BF818C91DE
:100890008A95AA85BB85A80F8827B81F9D930C94BD
:1008A0005D0431E0AE81BF818C918A95AA85BB85BC
:1008B000A80F8827B81F8EE28D93AE81BF818C91DF
:1008C0008F5F8C93AC81BD810E946A0910F40C94F7
:1008D0009303E6E0FDE20E94020AAA85BB850E941E
:1008E000FC090E94090AAE85BF850E946A09AC8591
:1008F000BD850D911D912D913C91AE85BF854D918A
:100900005C91662777270E94DF14AC85BD850D9327
:100910001D932D933D938BE1481A8827580A2C96F6
:10092000089581E00E94310A81E00E94310A8EE040
:10093000AC81BD810E94C50B00917F00003011F099
:100940000C940A05A1E0B5E088278C9381E0AA8188
:10095000BB818C93E8948EE0A881B9810E94F30B4F
:10096000AA81BB810C91043110F00C94C70431E0D2
:10097000A881B9819C91AA81BB818C918A95A1E0C3
:10098000B5E0A80F8827B81F9D930C94D904EAE01E
:10099000FDE20E94020AE1E0F5E0A0EEB6E00E946E
:1009A000F2130E94FA090E94090A81E0AA81BB8120
:1009B0008C93AA81BB818C918F5F8C938EE00E9477
:1009C000E40B082F003011F40C94AA04A1E0B5E068
:1009D0008C91803011F40C94FB04EAE0FDE20E945B
:1009E000020AE1E0F5E0A0EEB6E00E94F2130E94F8
:1009F000FA090E94090AA1E0B5E088278C93ECEE81
:100A0000FCE20E94020A0E94090A8EE00E94DB0BAF
:100A10000C941005ECE0FDE20E94020A0E94090A13
:100A200082E0481A8827580A2496089581E00E9497
:100A3000310A81E00E94310A81E00E94310A8EE091
:100A40000E94DB0B8EE0AE81BF810E94C50B00913E
:100A50007F00003011F00C946B05E0E1FDE20E9494
:100A6000020A86E090E00E94220AA4E7B0E00E9419
:100A7000D6140E940916A1E0B5E039E10E94BD0933
:100A80000E940616A1E0B5E00E94EC15A881B9818C
:100A90008C93A881B9810E946609A1E0B5E00E940B
:100AA000EC15EA2FFB2F3297F0400FEFAA81BB81A4
:100AB0000E94E415E1E0F5E0A881B9810C91A1E084
:100AC000B5E00E94E415E1E0F5E0A1E0B5E00E94A8
:100AD000B6130C947105ECE0FDE20E94020A0E943C
:100AE000090A83E0481A8827580A269608958DE057
:100AF0000E94310A82E00E94310A84E00E94310A99
:100B000081E00E94310A84E00E94310A80E090E096
:100B1000AE81BF818D939C9300E010E020E030E037
:100B2000AC81BD810D931D932D933C93AA85BB850C
:100B3000E885F9850E940C0CA885B9858C918030D8
:100B400011F40C941906EAE0FDE20E94020AA8855D
:100B5000B9850E94FC090EE00F93A885B9850E9413
:100B6000EC15482F0F91041BAA81BB810C93AA811D
:100B7000BB810C910F93AAE2B5E00F9180E20E9435
:100B80007809AAE2B5E00E94FC09E881F9810E9497
:100B90003C0CE0EEF6E00E944A0C0E94FA09EAEEF4
:100BA000FCE20E94020AE0EEF6E00E945E0C0E9467
:100BB000FA09EAEEFCE20E94020AAA81BB810C91CA
:100BC00004FB00270EF401E041E0041711F00C943F
:100BD000F105E2E1FDE20E94020A0E94090A0C947A
:100BE000FB05A0EEB6E0E881F9810E94FF140E94A7
:100BF000FA090E94090AAE81BF810E946A09AC818C
:100C0000BD810D911D912D913C91A881B9814D918E
:100C10005D916D917C910E94DF14AC81BD810D933B
:100C20001D932D933D93E885F9850E94340C0C9417
:100C30009C05EAE0FDE20E94020AA0EEB6E0EE8129
:100C4000FF810E94FC140E94FA09E6E1FDE20E9485
:100C5000020AA0EEB6E0EC81FD810E94FF140E9422
:100C6000FA09ECE2FDE20E94020A0E94090A88E108
:100C7000481A8827580A2A96089581E00E94310A66
:100C800081E00E94310A81E00E94310A81E00E94E5
:100C9000310A81E08093270500912705063018F07E
:100CA00011F00C946F0680E0A7E2B5E0AD90BB2494
:100CB000AAE1B5E0AA0DBB1D8C9380E0A7E2B5E0E8
:100CC000AD90BB24A0E2B5E0AA0DBB1D8C93A7E2BA
:100CD000B5E08C918F5F8C9310F40C944C0680E0FF
:100CE00080932705E1E0F5E0A1E0B5E00E94DB1587
:100CF000A1E0B5E00E94EC15AE81BF818C93AE817E
:100D0000BF810C91003011F00C9488060C940C07F4
:100D100080E0AC81BD818C9380E0AA81BB818C9303
:100D200081E08093270500912705063018F011F027
:100D30000C940C07AA81BB818C918F5F8C930091DE
:100D40002705013011F00C94B506AA81BB819C9156
:100D50009A93A1E0B5E0EAEEFCE22FEF0E945F1467
:100D6000A881B9810C930C94C306AA81BB819C9184
:100D70009A93A1E0B5E0E6E3FDE22FEF0E945F1455
:100D8000A881B9810C93A881B9810C91003011F030
:100D90000C94D906AE81BF818C91A881B9818C93C6
:100DA000A881B9818C918F5F8C9381E0AC81BD81EA
:100DB0008C93A881B9810C91AA81BB814C91041BB1
:100DC000A7E2B5E0AD90BB24A0E2B5E0AA0DBB1D43
:100DD0000C93AA81BB818C91A7E2B5E0AD90BB24B6
:100DE000AAE1B5E0AA0DBB1D8C93AC81BD810C912D
:100DF000013011F00C94FE060C940C07A881B98107
:100E00008C91AA81BB818C93A7E2B5E08C918F5F16
:100E10008C9310F40C94930684E0481A8827580A9F
:100E20002896089581E00E94310A81E00E94310AEB
:100E3000A8E2B5E08C918F5F8C93A8E2B5E0AD900D
:100E4000BB24AAE1B5E0AA0DBB1D8C91AA81BB8190
:100E50008C93A8E2B5E0AD90BB24A0E2B5E0AA0D6A
:100E6000BB1D8C91A881B9818C93AC81BD814C91C3
:100E7000A881B9810C91041718F011F00C94420765
:100E80000C944807AC81BD818C91A881B9818C9369
:100E9000AA81BB818C91E1E0F5E0A881B9810C9138
:100EA0000A93AF81B8850E94DD1582E0481A882731
:100EB000580A2496089581E00E94310A81E00E9438
:100EC000310A8DE00E94310AA8E2B5E08C918F5F73
:100ED0008C93A8E2B5E0AD90BB24AAE1B5E0AA0DE1
:100EE000BB1D8C91AC81BD818C93A8E2B5E0AD9027
:100EF000BB24A0E2B5E0AA0DBB1D8C91AA81BB81E9
:100F00008C93AA81BB810C910C3018F011F00C94D9
:100F10008B070C948F078CE0AA81BB818C93AC81EA
:100F2000BD818C91E1E0F5E0AA81BB810C910A932F
:100F3000A981BA810E94DD15E881F981A881B98172
:100F40000E94D0158EE00E94310A81E0EA81FB8187
:100F500001E00A93A981BA810E94DD15A881B981B7
:100F6000E8E3FDE20E94F2150FB68EE0481A8827EA
:100F7000580A22960FBE11F00C94DA0731E081E096
:100F80008A95A881B981A80F8827B81F80E28D9320
:100F9000E881F981A881B9810E94D015A881B98121
:100FA0000E94B115AA85BB850D931D932D933D938A
:100FB0000C94E407A881B9810E945515AA85BB85C8
:100FC0000D931D932D933D93A885B9854D915D910A
:100FD0006D917C91AA85BB850D911D912D913C91C0
:100FE0000E94E91480E00CF081E08F93AE81BF8114
:100FF0004D915D916D917C91AA85BB850D911D915F
:101000002D913C910E94E91481E014F009F080E0F8
:101010009F918923882311F40C9410080C942C08B8
:1010200081E080932905EAE3FDE20E94020A0E9422
:10103000090AE0E4FDE20E94020AE4E4FDE20E9403
:10104000020AE885F985FA93EA93E885F985FA9327
:10105000EA930E946C0824968FE0481A8827580A61
:101060002696089500917F00003018F011F00C943E
:101070003B080C944908E6E5FDE20E94020AA0EE56
:10108000B6E0EFE7F0E00E940B150E94FA090E941B
:10109000090A00917700003018F011F00C94520802
:1010A0000C9454080E942A090895E2E6FDE20E9489
:1010B000020AA881B9810E94FC09EAEEFCE20E94C2
:1010C000020AE6E6FDE20E94020AE2E7FDE20E9471
:1010D000020A0E94090A0895ECE7FDE20E94020A52
:1010E000A0EEB6E0EA81FB810E94FF140E94FA099B
:1010F000E0E8FDE20E94020AA0EEB6E0E881F98194
:101100000E94FF140E94FA09E8E8FDE20E94020A28
:10111000E2E7FDE20E94020A0E94090A0895ECE853
:10112000FDE20E94020AA0EEB6E0E0E8F0E00E94D4
:101130000B150E94FA090E94090AE2EAFDE20E94E8
:10114000020AA0EEB6E0E1E8F0E00E940B150E9472
:10115000FA090E94090AE8EBFDE20E94020AA0EEE9
:10116000B6E0E2E8F0E00E94FF140E94FA090E9453
:10117000090AEEECFDE20E94020AA0EEB6E0E6E803
:10118000F0E00E940B150E94FA090E94090AE4EEA1
:10119000FDE20E94020AA0EEB6E0E7E8F0E00E945D
:1011A000FF140E94FA090E94090AEAEFFDE20E9478
:1011B000020AA0EEB6E0EBE8F0E00E94FF140E9405
:1011C000FA090E94090AE0E1FEE20E94020AA0EE8A
:1011D000B6E0EFE8F0E00E94FC140E94FA090E94D9
:1011E000090AE6E2FEE20E94020AA0EEB6E0E1E9A8
:1011F000F0E00E94FF140E94FA090E94090AECE341
:10120000FEE20E94020AA0EEB6E0E5E9F0E00E94EC
:101210000B150E94FA090E94090AE2E5FEE20E940B
:10122000020AA0EEB6E0E6E9F0E00E94FF140E9498
:10123000FA090E94090AE8E6FEE20E94020AA0EE0C
:10124000B6E0EAE9F0E00E94FF140E94FA090E9469
:10125000090A089500917700003018F011F00C94FD
:1012600033090C945D09EEE7FEE20E94020AA0EE4B
:10127000B6E0E7E7F0E00E940B150E94FA090E9431
:10128000090AECE8FEE20E94020AA0EEB6E0E9E7F5
:10129000F0E00E949D150E94FA090E94090AEAE9FD
:1012A000FEE20E94020AA0EEB6E0EAE7F0E00E9449
:1012B0000B150E94FA090E94090A0895481A882706
:1012C000580A0895480E8827581E08958C91815019
:1012D0008C930895ED91FC91EF5FFF4FFC93EE939B
:1012E0000895ED91FC91E150F040FC93EE93089548
:1012F0008D930A95E9F788278C93089500FC10D008
:10130000089503D01ED001F8F9CF0024E89457FFC8
:1013100002C009D0689400F80BD010F80124089599
:1013200002D009D00895509540954F5F5F4F0895C2
:10133000E89417FF0895009510950F5F1F4F68946C
:101340000895352F242FE894452B11F468940895BF
:10135000512F402F0027112780E1440F551F001FF8
:10136000111F021B130B416018F4020F131F4E7F55
:101370008A9599F70895A0EEB6E018D0883091F0DC
:101380008D3039F03323C9F38D933A9563FE44D001
:10139000F4CF63FC04C08DE03FD08AE03DD08827C5
:1013A0008C93089539D011973395E7CF0F929F937F
:1013B000AF93BF937F93809176008823E1F3F894F5
:1013C000809176008A958093760090917400A0E6D3
:1013D000B0E0A90F0024B01D8C919395943109F4CD
:1013E00099279093740078947F91BF91AF919F91CA
:1013F0000F900895A0EEB6E08D91882311F00CD0E7
:10140000FBCF08950E948F14802D11F005D0FACFE4
:1014100008958DE001D08AE05D9BFECF8CB90895E0
:101420003197F1F70895BF9ABE98C69ABD9A8CE598
:101430008DB9089508950895689462F80895E89420
:1014400062F80895EF93FF93EE27E82BE92B31F034
:10145000E3E3F7E03197F1F70197D1F7FF91EF91CF
:1014600008955A924A92480E8827581E0895C498A3
:1014700046D0072F44D0062F42D0052F40D0042F4E
:101480003ED01F932F93112725E0E89435D00F3FCE
:1014900021F411502040D1F768942F911F9100231F
:1014A0000895C49A1AE028D01A95E9F7C49800E480
:1014B00026D024D023D022D021D005E920D014E694
:1014C000E0DF013021F01A95D9F791EE79C073C0B1
:1014D0001AE0C49801E413D011D010D00FD00ED070
:1014E000D0DF49F068D082E390E00E94220A1A958A
:1014F00081F792EE65C05FC00FEF01C000270FB902
:10150000779BFECF0FB1089544275D916D917D913A
:10151000550F661F771F089545D0F6DF01E5A7DF59
:1015200011F093EE4DC0ADDF0E3F11F095EE48C0C7
:1015300092E08827E1DF01930197E1F7DDDFDCDF4F
:101540003AC030D0E1DF08E592DF11F094EE38C008
:10155000D3DF0EEFD4DF92E088270191D0DF01972F
:10156000E1F7CADFC9DFC8DF0F7100937A001127E6
:101570002FEF31D0C1DF002329F411502040C9F7EB
:1015800096EE1EC018C00E94130A0CD08ADF08F421
:1015900008959ECF07D085CF05D081E00EC002D040
:1015A00098EE13C0992788949093770090937900D0
:1015B000909378000895C49A9FDF9927889408959E
:1015C00004D0C49A99DF089408959093770000930B
:1015D00079000894089599E19A95F1F70895EFE755
:1015E000F0E0ACE6B4E0992791931197E9F70895FC
:1015F000E894843059F0863049F0803039F06894AE
:101600008B3021F08C3011F093E1EBC2009081001F
:1016100000F80092810088940895EFECF2E064D223
:1016200045555A4A09F40895DCC28A93D8DF10D38D
:10163000C0F091E1F2DFA8F088818823F9F0EFE8AB
:10164000F2E08A9511F07096FCCF80818F7721F4BB
:1016500034968081CDDF38F48881823078F093E150
:10166000C0C22196BEC2809380003496ACECB0E03C
:1016700055D2EED288F392E1D0DF98F38991ECED68
:10168000F0E032D24050524094E1F9F4AFEDB0E0D6
:1016900028D2ACECB0E0FBD1F1D1A2E8B0E00BD2A3
:1016A000A7EEB0E01CD24050504019F4A5EFB0E0D6
:1016B000F8D1E7E8F0E009D28091E100809386005C
:1016C00096E1882311F0833008F08BC2D9D181FDD7
:1016D000D7D1ABE8B0E0EFD1A2EEB0E002D2AFE8F4
:1016E000B0E005D284E010D2C9D1A1E9B0E0E3D1E5
:1016F000ACECB0E0D6D10E94E414FCD1E4EEF0E012
:10170000E9D10050104019F4E1EFF0E0C5D10E949A
:10171000E4148091DE008093950095E18823A9F27E
:101720008695F0F791F6EFD0A3D1A6E9B0E0C3D14A
:101730000090810000FA80918000882379F4E89479
:1017400086E00F5F164F2040304010F068948BE821
:1017500080938000992790F9909381003EF4ADEF3B
:10176000B0E095D1E5D0ABE8B0E0A5D182E08093C0
:101770009A00ABE8B0E08BD1A2EAB0E09CD1A8EA35
:10178000B0E099D136C26FD468F0A0D349F48F93FA
:1017900090E27BD48F9138F4923419F490E204C033
:1017A00024C20894882708958F93C9D48F9108F094
:1017B00020C28827089545D430F0FA93EA935CD488
:1017C00008F016C21CC208953CD428F0808D8270A7
:1017D00009F08FEF0EC28FEF089548E005C044E096
:1017E00003C042E001C041E055272BD4A0F090E2B5
:1017F00032D688F0FA93EA9356F45F934F93BF93EF
:10180000AF936BD6AF91BF914F915F9118F0C2D655
:1018100008F0EEC1F4C10895FF93EF9357D37BD244
:1018200058F0FF93EF93EEEBF0E0ACEAB0E08CE021
:1018300076D1EF91FF918894AF91BF9130F48827D2
:101840008C93923409F4D5C1089570D30E94D515B4
:1018500011978EE28D9370D30E94D515EAECF0E0DB
:10186000A8EBB0E086E05BC1FF93EF9316D3E4CF23
:10187000FF93EF934DD203C0FF93EF93F8D2AF9154
:10188000BF9118F4F0D017D108958EC3FF93EF9352
:101890003FD203C0FF93EF93EAD228F4AF91BF91F8
:1018A00088278C930895ADE0BB275ED3AF91BF919D
:1018B0000C944714FF93EF932BD203C0FF93EF9345
:1018C000D6D228F4AF91BF9188278C930895ADE0CC
:1018D000BB2759D3AF91BF910C943514802FC8D03A
:1018E00090919100891B982F83958927909195005D
:1018F000892311F488940895C5D005D02ED008F41A
:10190000089516D0F7CFE1E9F0E0D0D00E94E414BA
:1019100072F08091950080FD06C036952795179549
:1019200007958695F8CF0E5F1F4F2F4F3F4F0895B5
:1019300080919500025010402040304080FD06C04C
:10194000000F111F221F331F8695F8CFE1E9F0E049
:10195000ADD00C94DF140BD1D6DFA2E8B0E0A1D05B
:101960000090810000FE04C0000F111F221F331FD2
:101970000F93012F122F232F33270E94DF146DD1D5
:101980008F91E8F00090810000FA9927880F991F45
:10199000E80FF91F222733270191119136F4219185
:1019A00031913F7032976FEF7FE0329748EF5FEFF2
:1019B0000417150716F42607370710F091E211C136
:1019C00018C151D002E0A02E44275527662777275B
:1019D00004C0AAE9B0E05BD0AA243F932F931F93E1
:1019E0000F937F936F935F934F93AF92B6DFAF9058
:1019F0004F915F916F917F910F911F912F913F9127
:101A0000A6E9B0E0CD90DD90ED90FD9010F491321C
:101A100049F5C016D106E206F30618F1992781911F
:101A2000982B8191982B2EF48191982B81918F7016
:101A3000982B31F4A1FE0EC04F5F5F4F6F4F7F4F69
:101A4000802F912F15D09127969516F48027880F17
:101A500000F7C3CF32970EF43297AAE9B0E02BD04B
:101A6000C8C092E2BEC0002711272227332708955D
:101A70000F5F1F4F2F4F3F4F08955527662777273A
:101A80000C94DF14015010402040304008950D9117
:101A90001D912D913D9108950191119121913191C7
:101AA00008954D915D916D917D9108954191519170
:101AB0006191719108950D931D932D933D93089518
:101AC000019311932193319308954193519361931D
:101AD0007193089522273327019111910895662764
:101AE00077274D915D9108954191519108954D93BE
:101AF0005D930895402F512F622F732F089500504A
:101B00001040204030400895569547958A95E1F75A
:101B10000895440F551F8A95E1F7089584E09F9337
:101B200091919D938A95E1F79F910895E881F981BC
:101B30000895A881B98118960895E881F9813C96A5
:101B40000895E881F9813896BBCFE881F98138960C
:101B5000A3CFF3DFB5CFF1DF9FCFEFDFA7CFA88112
:101B6000B9811C960895E881F98174960895FBDF88
:101B700093CFE881F981808D0895E881F98170968D
:101B80000895FBDF89CFF9DF91CFF7DF99CF009080
:101B9000810000FA8FEF819381931EF481938FE08F
:101BA000819346C00090810000FA0193119316F4CE
:101BB000219331933DC0A881B98159960895E88158
:101BC000F98179960895CFDF7BCFA881B9815496AA
:101BD00008950F900F900F900F900F900F90089511
:101BE0002296089490937F000895882799E4F9CF6E
:101BF0002296889490E0F6CF2296889408952296B3
:101C00000894089580EA01C084E8E881F9819F93EF
:101C1000908D892B808F9F910895E881F9819F9302
:101C2000908D80958923808F9F91089588E0EDCFD6
:101C30008091D00088608093D00008950E948C0A23
:101C400008F0D7CFCECF0E94A10A08F0D2CFC9CFDB
:101C5000ACECB0E0E1EDF0E0F1CF80E1ACECB0E075
:101C600006C080E0ACECB0E002C0AFDF80E819DF76
:101C70000E94E91431F4E8941196EA2FFB2F15978E
:101C8000BCCF9D91EA2FFB2F792F777E872B8E93E8
:101C9000149793FF18C00F931F932F933F939F9315
:101CA000AF93BF93D0DFBF91AF919F91A8F094FF06
:101CB00006C0AF93BF93BBD3BF91AF9168F03F9184
:101CC0002F911F910F91F7DED7DFEF93FF93B6DFD0
:101CD000FF91EF91689408957ECF4BDF8670B1F449
:101CE00050DF00271E7F442752E0C8DE4EDF41DF71
:101CF000867061F43CDFF2DD20F067DFB6DF38F09C
:101D0000A0C2913221F480DF91E26BCF91E069CFE4
:101D1000DDD009F06BCFFA93EA93A4D008F46FCF2B
:101D200083858F3099F0827C89F480818E3271F0C6
:101D3000853E61F08030D1F0A881B9819C919F33BC
:101D400011F0981303C07BE0B4D0A1F0B09681E00D
:101D5000480F25F78827581F5F934F930FD008F03F
:101D600080DF4F915F91D0F6903C08F492E4E991C6
:101D7000F99137CFAAECB0E0BADE3ACF00908100FB
:101D800000FC19C0A2EAB0E082DEABE8B0E05F93ED
:101D90004F9387DE0E94E9144F915F9161F4AFE8A1
:101DA000B0E06D917D914617570710F091E319CF80
:101DB0000FD05EDE1ECF0CD03F932F931F930F9357
:101DC0008DDD08F008CF0F911F912F913F9108955D
:101DD000ACECB0E05CCE4ED0E0F18081853E81F18C
:101DE000803071F1B09681E0480FBDF78827581F09
:101DF0005F934F93C3DF08F034DF4F915F9168F733
:101E0000913239F55F934F937EDD3F932F931F936C
:101E10000F93DFDDF8F0BBDE6DDE0F911F912F9188
:101E20003F917F936F935F934F9397DD0F911F9136
:101E30002F913F9180F4913281F4B4DEB6D2DDCFA0
:101E4000AAECB0E054DE23DEA6EAB0E050DE33DEDA
:101E5000D0CEC7CEBECE93E2C4DEBFCEA881B981BC
:101E600012960AC044275527A2EAB0E006C0A8EBA4
:101E7000B0E002C0A6EAB0E034DE09DE5A934A932D
:101E8000F0DE50F048814F70552785E042DEE40FC8
:101E9000F51F49915991ADCEB2CEA8EBB0E0ECDF81
:101EA000FF93EF93ECEAF0E0FA93EA93EF91FF915E
:101EB0004DCFFF93EF9381919D919F3311F089173F
:101EC00011F47A95C1F7EF91FF910895EEEBF0E0F0
:101ED0008F93E89499277BE0AEF08D918A3219F4C4
:101EE0008FE368940FC08E3239F4733011F4E894A4
:101EF000F3CF80E2689406C0803011F480E20CC019
:101F00000E94991481938F3309F49395743009F4E6
:101F1000E8947A9509F704C080E281937A95E9F70D
:101F200080E081933C9799238F91089588E0F7DDB5
:101F3000389788278D930895389683E0F0DD3B9796
:101F400088278D930895928D9D93938D9D930090F6
:101F5000810000FE05C094899D9395899D93089505
:101F600099279D939D930895608D718D862F8F7114
:101F70008D937695679562956F706D9374510AF4A1
:101F80007C597D93089566897789962F9F71990F63
:101F90009D93769567957695679576956795669501
:101FA00066956D937D9308957C96B8DDB0970895FE
:101FB000882311F49AE415CE31E0E1EDF2E0E894E3
:101FC0002081222329F4AEF0EE2EFF2E689411C05A
:101FD000281749F1EF93FF938F933296AAECB0E064
:101FE000A7D38F91FF91EF9121F41181192310FF55
:101FF0001CC03A9519F0E65EFD4FE2CFC6F4EE2D17
:10200000FF2D18D080839183EF93FF938F9386E009
:102010003296AE2FBF2FEAECF0E086E080DD8F91A4
:10202000FF91EF91E6CD95E4DCCD96E4DACD94E432
:10203000D8CD7CDD09E1002401920A95E9F7799772
:102040000895882369F071E0E1EDF2E0908198173E
:1020500049F07A9519F0E65EFD4FF8CF93E4C1CDD3
:102060009AE4BFCD089580E8ECDF28F08395E1F78E
:1020700091E48827B6CDBDCD59DD02C0E2DF20F066
:1020800081E0C3DD6CD1D5CF08958F939F9343DE5C
:102090007F918F91E8F0972F6385692760FF03C0D8
:1020A000692760FD18C0FF93EF9382DFFA93EA93EC
:1020B000EF91FF9168F053DD77DF3BDD44DF45DDD5
:1020C0001EDD39F035DCD1DD40F0BBD052DD94CDE2
:1020D000089598DDFBCF98E484CD91CDE881F98116
:1020E0009181917251F1E881F981808D81FD23C048
:1020F0007096D2DC912F802FBBDC3497E1DCE88135
:10210000F9813C96D3DC0E94E91430F03896708156
:1021100072607193112704C0E881F98179961927BB
:102120009170E80FF91F8081169521F08F93DFDD04
:102130008F9108955ECD91E054CD92E652CDFF93FC
:10214000EF938F939F9311C0FF93EF938F939F9380
:1021500039D058F4923451F508C0FF93EF938F9320
:102160009F93D9DD08F5923409F535DE00F121D0D1
:102170009F918F91FF93EF931BDFAF91BF91C0F0C1
:10218000FA93EA93EF91FF919F938BE0C8DC9F91C4
:10219000917090629D9312968AD2149688D248DDEF
:1021A00031DDE991F99125CD92E31BDD089413CD42
:1021B00014CD85EE819388279FE181939A95E9F765
:1021C000B097089509F011CDA6DD70F183858F7D5C
:1021D00011F093E306CDFF93EF9356D0EF91FF916B
:1021E00018F1FF93EF9321D0EF91FF9185EE80835B
:1021F0001FDD22273327028D138D0090810000FE02
:1022000002C0248935897BDC69F015D0A6DB80E02B
:102210008193819316F4819381930ADDB0F7913213
:1022200011F4EAC0FAC008940895EAECF0E0A6EAD6
:10223000B0E086E07BC2E0E1FF27AAE9B0E084E0FD
:1022400075C289DCA0DC0E94E914C2F0C9F01ADC76
:10225000732761F4622751F45127569539F47BDCDA
:1022600092DC0E94E41484E0D0DCC3CC00E012E0F5
:1022700086E0D3DCBECC84E0C8DCBBCC91E601C0F8
:1022800091E086E0C2DCADCC71E0E1EDF2E080816E
:10229000882351F0FF93EF933296AAECB0E086E0EA
:1022A00047D2EF91FF9129F07A9529F0E65EFD4F34
:1022B000EECF97E496CC9DCC5ADC10DB28F059DCAD
:1022C00081FFD3CC80DC8FC09132F9F482DBE8F05F
:1022D0008FEF819381930090810000FE03C0819372
:1022E0008FE08193A5DC0F931F932F933F9333DBF4
:1022F0003F912F911F910F9130F4913221F479DCAD
:1023000051DC16DBDCCF93E26CCC089562DB30F15C
:102310008FEF819381930090810000FE03C0819331
:102320008FE0819385DC3F932F931F930F9309DCFC
:1023300095DD0F911F912F913F9180F0028F138FA8
:102340000090810000FE02C0248B358B71DCF0DA36
:102350003ADC89DB1ADC80E260DC8894089509DCD1
:1023600083FF09C000DCAE2FBF2F34968081877FAA
:10237000819369DCC0F0FDDB86FF16C087FF02C0D9
:1023800080FF12C06BDD78F0AE2FBF2F1B968C91B3
:1023900080628C93519681E440DCDDDB8CDB1A9704
:1023A00086D146DC3AC0089524CCC2DA80919500EB
:1023B0008F9357DC18F018D03BDC88948F9190F005
:1023C0008A9529F0ECECF0E067DB52DBF1CF40912D
:1023D00095004A9531F0ECECF0E05EDB041B53DB3A
:1023E00040CC07CC0895EBDB772792E080E0719337
:1023F0000197E9F7F250FDCB80E1ACECB0E0E0ED05
:10240000F0E0908193FF08958193BF93AF931BDC1D
:10241000AF91BF9108F408950AC080E0ACECB0E041
:10242000E0EDF0E0908193FF089581930CCC089546
:10243000E6E8F0E0819181FF089538DB28DBEA2FA0
:10244000FB2F31960E94DF14AEE9B0E034DB149725
:10245000FACBE881F981092E9181902111F08894BD
:10246000089592E6BECBE881F98191819A7279F163
:10247000E881F9818F93908D95FF06C047DF48F181
:10248000B2DFE881F981908D709606DBF12EE02EA7
:10249000EFDA349715DBE881F9813C9607DB4017CA
:1024A00051076207730718F434970ADB92641F25FB
:1024B0009860E881F981789691939F2D9170EE0D47
:1024C000F91F8F918193169531F049DFF5CE92E691
:1024D00088CB8F91089588940895D4DA332312F429
:1024E00093E67FCB19F445DB85FD83CB36DB0E9479
:1024F000E914C1F1A8F53F932F931F930F937CD05C
:102500005C2D6D2D7E2D4F933CDB76D030DB7F93A1
:102510006F935F93F8D95F916F917F915C156D0513
:102520007E0528F089F05C196D097E0901C00DDB7C
:1025300051506040704040F07F936F935F930DDA8D
:102540005F916F917F91A0F7F3D94F9196DA8DDB70
:10255000C8F00F911F912F913F9117DB72DE49CB8D
:1025600091E63FCB002339F6812F817021F68ADA7C
:10257000B5DF40F006DB7CDA08DB9EDE20F491302C
:1025800011F008940895F5DA81FD2DCF32CB91E258
:1025900060DF70F1EEDA81FD2CC05F934F9375D050
:1025A0004F915F9130F1662777270E94E91410F46C
:1025B000402F512F61D041505040B8F00F3F81F46F
:1025C00010FF0EC0E2DABF93AF935F934F938BDDA2
:1025D0004F915F91AF91BF9158F0D3DAF0DA03C019
:1025E0000F5F1F4F81918D93E6CFCFDA4ED001CB95
:1025F00008950ADB91E0F5CA8091950036952795FC
:102600001795412F90E0869530F0369527951795D0
:102610000894991FF8CFC12ED22EE32E4923089596
:102620009AE217DF40F128D041505040B8F08D9128
:1026300095FD04C00F3F71F410FF0CC0A6DABF93E4
:10264000AF935F934F9314DF4F915F91AF91BF9121
:1026500090F0E9CF81930F5F1F4FE6CFE7DA7DDA85
:10266000401751076207730718F473DA80E4CDDA74
:102670008CDA0BD0BECA089559DA908D82DA9FDACF
:10268000712F7170E00FF71F0895E881F981808D37
:1026900062DA79DA4BDA0E94E41428F021F08D7FB7
:1026A000808F889408958660808F0894089581E0D3
:1026B000AA24BB24C82ED82EE82EF82ECC0CCC0C85
:1026C000CC0C8827B6948795B69487958A29B694BA
:1026D0008795BC288D93BD9284E18F0DE294EE0C1A
:1026E000881FED28ED928D9308956BD9923229F4CD
:1026F000042F152F262F372F08C00895A6E9B0E024
:10270000C6D901501040204030408091950080FD96
:1027100008C081FD0AC0000F111F221F331F8695BC
:10272000F8CF369527951795079563CA689401C029
:10273000E894FA93EA93BA93AA93082E8817CFB62F
:10274000A190BD90CFBEAB04CFB68A95C9F7CFBEDE
:1027500046F438F4802DA881B981EA81FB81DFD964
:10276000CFBEA991B991E991F99108955527819129
:10277000803011F48C930895319794E081915395B2
:102780008B3211F48EE312C08F3211F48FE30EC03E
:102790008D3319F45A95882709C0813610F0875473
:1027A00005C0813410F0815401C08C5F8A939A95E2
:1027B00029F73991299119910991110F110F110FD1
:1027C000001F110F001F0D93330F330F2695379500
:1027D00026953795210F523021F02D93533009F073
:1027E0003D93C4CF332723D04030A9F094E066E076
:1027F0008827221F111F001F881F6A95D1F722D03A
:102800009A954A95A1F7332371F3992321F08DE32B
:102810008D939A95E9F788278D938827332331F490
:102820008191803011F43FEF089543950895442736
:10283000F4DF082FF2DF182FF0DF282F442309F0F0
:1028400043950895813411F48FE20DC0803411F462
:102850008BE209C0843310F0845005C08A3110F037
:10286000895B01C08F5B8D930895EDE0FF27828126
:102870000E949F148AE38D9381810E949F148AE3B2
:102880008D9380810E949F1488278C930895EDE09A
:10289000FF2781810E949F148CE58D9380810E9487
:1028A0009F148CE58D9382810E949F1488278D93BD
:1028B00008950E948F140D920020D9F708959991E0
:1028C0000027A90FB01F1197492F4A955E2F6F2F30
:1028D000E89411274395203019F0C895802D01C048
:1028E00080818823B9F07C917723A1F0781739F49F
:1028F0000EF0042F1395689411963196EBCF1123A7
:1029000021F0411BA11B1127B10BE894E52FF62FF5
:102910001196E0CF882311F0002708950895C895F7
:10292000319600200895819104D08D938823D9F7A2
:102930000895813618F08B3708F48F7D08950027AD
:102940008A3018F08A500395FBCF005D0D93805DAF
:102950008D9308957F930F93AF93BF938F939F931E
:102960008FB78F938091760004E1081B21F49CB10E
:102970000E941C0A12C000917500A0E6B0E0772703
:102980009CB1A00FB71F9C9383958093760003950D
:10299000043109F40027009375008F918FBF9F9138
:1029A0008F91BF91AF910F917F9118956FB7F89468
:1029B000882793E08D939A95E9F76FBF0895040FE8
:1029C000151F261F371F0895041B150B260B370BE9
:1029D000089504171507260737070895000F111FDC
:1029E000221F331F089500951095209530950F5F95
:1029F0001F4F2F4F3F4F0895019110810EC001913D
:102A00001191219130810BC00191108117FF05C0F8
:102A10003FEF2FEF04C0008111272227332737FF14
:102A200003C0E1DF8DE28D93CF93DF93CF92DF92EE
:102A3000EF92AA24BB24CC24DD24EE2440E2CAE099
:102A4000DD2755E093E38881890F87FD9F7083FD23
:102A5000907F891B89935A95A9F7C0DFAA1CBB1CDC
:102A6000CC1CDD1CEE1C4A9551F7E894EFE0FF27E3
:102A700082910ED0EB30E0F71EF068948A2D0CD0D6
:102A800088278D93EF90DF90CF90DF91CF910895BD
:102A9000982F829501D0892F8F70805D26F080332A
:102AA00009F4089568948D9308950027112722272B
:102AB00033271DD08A3328F4803318F005D015D081
:102AC000F9CF0EF490CF089580538F93402F512F5C
:102AD000622F732F83DF82DF72DF80DF8F91992770
:102AE000080F191F291F391F08958D910895E89423
:102AF000FCDF8032E9F38B32D9F38930C9F38D32B0
:102B000011F46894F2CF089541E003C042E001C09F
:102B100044E0E40F8827F81F8291982F829506D011
:102B2000892F04D04A95C1F70C94C8158F708A304C
:102B300008F0895F805D8D93089541E003C042E015
:102B400001C044E0E40F8827F81F829138E098E143
:102B5000880F991F9D933A95D1F74A95B1F70C9438
:102B6000C81500271127222733278D91882379F054
:102B700035DF34DF33DF32DFDCDE815408F4895F98
:102B8000865F080F8827181F281F381FEECF08956B
:102B900088278D93089581918D938823E1F7089577
:102BA00081918032E9F3F8CFF6DF11978E91803270
:102BB000E9F31196EDCFF4DFF8CF099191919923C4
:102BC00051F08A95D9F7319781918D930A9519F033
:102BD0008823D1F70895DCCF8FEF83959D919923BA
:102BE000E1F70895689401C0E894AF93BF938D9185
:102BF00016F0919103C00E948F14902D891718F040
:102C000011F48823A1F7BF91AF910895E89463F878
:102C10000895689463F808954D696E69426F742051
:102C2000762E3220697320636F6E666967757265F0
:102C300064004156522D444F533A205265616479E5
:102C400020666F7220636F6D6D616E6473003E204D
:102C5000000046530000496E2046532043617365CF
:102C600000004572726F722061742066696C652085
:102C700073797374656D20696E697400312000008A
:102C8000444952002A2E2A0030206F722031200041
:102C90005052494E540054455354000054657374C7
:102CA0002066696C652027002700746573742E7791
:102CB000617600004449534B465245450000444963
:102CC000534B53495A45000044554D500000436F43
:102CD0006D6D616E6420270027206E6F7420726511
:102CE000636F676E697A6564000020003A3A0000FD
:102CF0002020000020202020202020202020202014
:102D0000202020200000202020003A003F38310001
:102D10003E00446972002046696C6528732920666C
:102D20006F756E64207769746820000020427974A2
:102D30006528732900002C0024002020202000009A
:102D40005E200000506172616D657465722045728D
:102D5000726F72200000444F53204572726F723AB6
:102D600020003F200000506172616D657465722023
:102D7000000065787065637465642000205B200046
:102D8000205D202D205B2000205D200046696C65C1
:102D90002053797374656D3A202020202020202054
:102DA000200046696C652053797374656D205374F7
:102DB000617475733A20200046415420666972732D
:102DC0007420536563746F723A20202020004E7582
:102DD0006D626572206F6620464154733A20202050
:102DE00020202000536563746F7273207065722019
:102DF0004641543A202020202000526F6F742066F4
:102E00006972737420536563746F723A20202000D6
:102E1000526F6F7420456E74726965733A2020207A
:102E20002020202020004461746120666972737440
:102E300020536563746F723A2020200053656374D9
:102E40006F72732070657220436C75737465723A8B
:102E500020004869676865737420436C75737465F6
:102E600072233A202020200053746172742063681A
:102E700065636B20436C7573746572232000447224
:102E8000697665204572726F723A200044726976E5
:102E900065205374617475733A00447269766520D5
:082EA00044656275673A2000E9
:00000001FF
