:100000000C942A001895000018950000189500001F
:10001000189500001895000018950000189500002C
:10002000189500001895000018950000189500001C
:10003000189500001895000018950000189500000C
:1000400018950000189500001895000018950000FC
:10005000189500008FE58DBFC0E2E8EB4E2E88E0DA
:100060008EBFD8E0F7E05F2EEEEFF7E0A0E6B0E05D
:10007000A89584B7082E877F84BF88E1992781BD22
:1000800091BD88278D933197E9F783E089B980E0A6
:1000900080BD88E18AB96624789481E080937700F6
:1000A00086E490E00E94AD028AE090E00E94AD02FA
:1000B0005498E0E5F7E00E94750286E090E00E9427
:1000C000AD02549A0E94A503A0E6B0E034E10E947C
:1000D00050020E94A2035498E4E5F7E00E947502E2
:1000E000A0E6B0E00E946F02E6E6F7E00E9475022B
:1000F0000E947C02549A86E10E94BC0281E0E0E604
:10010000F0E001E00A93A981BA810E947F03A881EF
:10011000B981E8E6F7E00E948E030FB686E1481A3F
:100120008827580A22960FBE11F00C94CC0081E06B
:10013000E0E6F0E002E00A93AAE7B0E00E947F0365
:10014000A2E6B0E00E944D03A8E7B0E00D931C9337
:10015000A8E7B0E08C91AAE7B0E08F930E94470235
:100160008F918D9388278C93EAE7F0E0FA93EA93D6
:100170000E942B022296E0E6F0E0FA93EA930E94B6
:1001800098012296EAE6F7E00E947502A0E6B0E048
:100190000E946F020E947C0286E10E94BC0281E004
:1001A000E0E6F0E001E00A93A981BA810E947F03B2
:1001B000A881B981EEE6F7E00E948E030FB686E1D2
:1001C000481A8827580A22960FBE11F00C94920103
:1001D00081E0E0E6F0E002E00A93AAE7B0E00E94E6
:1001E0007F03AAE7B0E00E944702E0E7F7E00E9441
:1001F000C202EAE7F0E0FA93EA930E942B02229609
:10020000E0E6F0E0FA93EA930E949801229682E0F9
:10021000E0E6F0E001E00A93A5E7B0E00E947F038A
:10022000A5E7B0E08C91A8E7B0E08D9388278C9388
:1002300098E0A8E7B0E00E94D20283E0E0E6F0E0B8
:1002400001E00A93A5E7B0E00E947F03A8E7B0E0D1
:100250000D911C910F931F93A5E7B0E08C91482F4F
:1002600055271F910F91040F151FA8E7B0E00D93BC
:100270001C9381E0E0E6F0E001E00A93A5E7B0E03E
:100280000E947F03A5E7B0E0E2E7F7E00E948E035B
:1002900011F00C944D010C948401E4E7F7E00E9406
:1002A0008E0311F00C946201A8E7B0E00D911C914F
:1002B0004FEF50E004231523A8E7B0E00D931C9303
:1002C0000C948401E6E7F7E00E948E0311F00C9491
:1002D0007701A8E7B0E00D911C9140E05FEF0423A7
:1002E0001523A8E7B0E00D931C930C948401EEE66F
:1002F000F7E00E948E0311F00C94840180E090E0FE
:10030000A8E7B0E08D939C93EAE6F7E00E947502BF
:10031000A0EAB7E0E8E7F0E00E94F4020E946D0274
:100320000E947C028AE090E00E94AD020C9454008E
:1003300081E00E94BC0281E00E94BC0281E00E9438
:10034000BC02A19882E083BF882783BF80E0AA8196
:10035000BB818C93AA81BB810C91033010F00C946B
:100360000E02AA81BB818C918F5F8C939999FECFED
:1003700082E083BF80E080935200009152000039F8
:1003800010F00C94C5010C94BD0180E080935200E4
:1003900080E0AC81BD818C9380E0A881B9818C9391
:1003A000AC81BD810C91083010F00C94FC01A88147
:1003B000B9810C91A3E3B0E08C9181FB882780F98F
:1003C000482F040FA881B9810C9391E0A881B981CD
:1003D0000E94C802AC81BD818C918F5F8C9380E0BC
:1003E0008093520000915200033510F00C94FA01F2
:1003F0000C94F2010C94D00131E0A881B9819C9158
:10040000AA81BB818C918A95AE81BF81A80F882774
:10041000B81F9D93882783BF0C94AA01AA81BB8132
:100420008C918F5F8C9331E080E0A0EAB7E08D93F0
:1004300088278C93E0EAF7E0E8949927AA81BB81AA
:100440008C91AE81BF810E94380283E0481A8827D0
:10045000580A26960895A19AA99A89B78E7F89BFCE
:10046000A881B9810E94A70289B7816089BF0895D8
:10047000A80FB91F119726F40E94DD02802D01C03C
:1004800081918D93882311F03A95A9F708958F9360
:100490008D918823E9F711978F910895A0EAB7E02D
:1004A00018D0883091F08D3039F03323C9F38D9313
:1004B0003A9563FE24D0F4CF63FC04C08DE01FD0D6
:1004C0008AE01DD088278C93089519D01197339511
:1004D000E7CF5F9BFECF8CB10895A0EAB7E08D9186
:1004E000882311F00CD0FBCF08950E94DD02802DEF
:1004F00011F005D0FACF08958DE001D08AE05D9B20
:10050000FECF8CB908953197F1F70895689462F899
:100510000895E89462F808958F939F938BE590E097
:100520000197F1F79F918F91089580952AE090E0CF
:10053000089410F4A99802C0A99A0000EDDFECDF3E
:10054000969587952A95A9F70895A0EAB7E08D9129
:10055000882311F0EADFFBCF0895EF93FF93EE2796
:10056000E82BE92B31F0E3E3F7E03197F1F701975E
:10057000D1F7FF91EF9108955A924A92480E882739
:10058000581E08950E94DD020D920020D9F70895AB
:10059000903039F08C91869508F480689A95D9F757
:1005A0008C930895903041F00D911C91000F111F14
:1005B0009A95E1F71C930E930895C8953196002003
:1005C0000895040F151F261F371F0895000F111FD0
:1005D000221F331F089500951095209530950F5FC9
:1005E0001F4F2F4F3F4F0895019110810EC0019171
:1005F0001191219130810BC00191108117FF05C02D
:100600003FEF2FEF04C0008111272227332737FF48
:1006100003C0E1DF8DE28D93CF93DF93CF92DF9222
:10062000EF92AA24BB24CC24DD24EE2440E2CAE0CD
:10063000DD2755E093E38881890F87FD9F7083FD57
:10064000907F891B89935A95A9F7C0DFAA1CBB1C10
:10065000CC1CDD1CEE1C4A9551F7E894EFE0FF2717
:1006600082910ED0EB30E0F71EF068948A2D0CD00A
:1006700088278D93EF90DF90CF90DF91CF910895F1
:10068000982F829501D0892F8F70805D26F080335E
:1006900009F4089568948D9308950027112722275F
:1006A00033271DD08A3328F4803318F005D015D0B5
:1006B000F9CF0EF490CF089580538F93402F512F90
:1006C000622F732F83DF82DF7CDF80DF8F9199279A
:1006D000080F191F291F391F08958D910895E89457
:1006E000FCDF8032E9F38B32D9F38930C9F38D32E4
:1006F00011F46894F2CF089588278D930895099195
:100700009191992351F08A95D9F7319781918D93E1
:100710000A9519F08823D1F70895EECF689401C0A7
:10072000E894AF93BF938D9116F0919103C00E940E
:10073000DD02902D891718F011F48823A1F7BF91DD
:10074000AF910895E89463F80895689463F8089564
:100750003A3E00002D2D796F7520656E74657265C7
:10076000643A20270000270073003A3A0000640032
:080770006B00610062006300F0
:00000001FF
