:1000000019C018951895189518951895189518955C
:100010001895189518951895189518951895189578
:100020003BC018951895189518951895189518951A
:10003000189518958FEF8DBFC0ECE8E54E2E84E043
:100040008EBFD4E0F4E05F2EEEEFF3E0A0E0B1E08D
:10005000A89584B7082E877F84BF88E1992780936D
:1000600060009093600088278D933197E9F783E0D3
:100070008093C40080E08093C50088E18093C10034
:10008000662485B5816085BD80916E008160809316
:100090006E0088EB86BD2DC00F938F938FB78F9323
:1000A000AF93BF939F93A0E0B1E08D919C91019697
:1000B0009C938E9300278130900711F42A9A0FC0E9
:1000C000903041F0803D07E0900748F000270D9305
:1000D0000C9305C012969D91891708F02A9888EB19
:1000E00086BD9F91BF91AF918F918FBF8F910F91DF
:1000F0001895229A80E080932D017894E3E0F1E056
:10010000FA93EA9382D1229686E154D281E0E3E029
:10011000F1E001E00A93A981BA81C1D2A881B98135
:10012000E2EEF6E0CBD20FB686E1481A8827580AED
:1001300022960FBE09F007C0E3E0F1E0FA93EA93DC
:100140002DD022962AC086E135D281E0E3E0F1E0AD
:1001500001E00A93A981BA81A2D2A881B981E4EE13
:10016000F6E0ACD20FB686E1481A8827580A2296E4
:100170000FBE09F007C0E3E0F1E0FA93EA9361D023
:1001800022960BC0A3E0B1E0E6EEF6E019D2E3E080
:10019000F1E0FA93EA93C6D12296B0CF81E00AD279
:1001A00081E008D282E006D282E0EE81FF8101E0A8
:1001B0000A93A981BA8173D2A881B9813ED2AC8158
:1001C000BD810C9383E0EE81FF8101E00A93A98158
:1001D000BA8165D2A881B9818C91AA81BB818C93A7
:1001E000AC81BD810C91013010F009F001C00CC050
:1001F000AE81BF81EAEEF6E0E3D1EE81FF81FA93B2
:10020000EA9390D1229617C0AA81BB818C91AC81D0
:10021000BD81AD90BB24A1E0B1E0AA0DBB1D8C93C4
:10022000AE81BF81EEEEF6E0CBD1EE81FF81FA9395
:10023000EA9378D1229684E0481A8827580A2696AD
:10024000089582E0B7D182E0B5D181E0B3D181E0F9
:10025000B1D181E0AFD182E0EA85FB8501E00A936C
:10026000AF81B8851CD2AE81BF81E7D1AC81BD81A1
:100270000C9370917A00706870937A00AC81BD81A4
:100280000C91013009F00CC000917C00007F0160EE
:1002900000937C009AD1A885B9858D939C9325C045
:1002A000023009F011C000917C00007FAC81BD815B
:1002B0008C9190E0890F082700937C0086D1A88557
:1002C000B9858D939C9311C0AA85BB85EAEEF6E0B3
:1002D00077D1EA85FB85FA93EA9324D1229670912F
:1002E0007A007F7770937A008AC070917A007F7766
:1002F00070937A0080917A008F7780937A0080E003
:1003000080937E00AA85BB85EEEEF6E059D1A885E4
:10031000B98511968C91AA81BB818C9331E0AA8119
:10032000BB818C91A0E4B4E08D9388278C93E0E4AA
:10033000F4E0E894992782E0AA85BB8503D1A885DB
:10034000B9858C91A881B9818C9331E0A881B9815C
:100350008C91A0E4B4E08D9388278C93E0E4F4E0E2
:10036000E894992783E0AA85BB85ECD0AA81BB815C
:100370000C91003081E009F080E08F93A881B98171
:100380000C91003081E009F080E09F91892388235F
:1003900009F406C0AA85BB85E2EFF6E011D129C0B9
:1003A000AA81BB810C91003009F009C032E0E6EF70
:1003B000F6E06894992781E0AA85BB85C3D0A8811F
:1003C000B9810C91003009F014C031E081E08A95C8
:1003D000AA85BB85A80F8827B81F83E68D9331E0D7
:1003E00083E08A95AA85BB85A80F8827B81F8BE66E
:1003F0008D93EA85FB85FA93EA9394D0229687E061
:10040000481A8827580A2A96089581E0D3D081E0B7
:10041000D1D081E0CFD03C9882E08093B10080E0E1
:100420008093B00088278093B10080E0AA81BB81CF
:100430008C93AA81BB810C91033008F057C0AA812C
:10044000BB818C918F5F8C933499FECF82E0809337
:10045000B10080E08093B2000091B200073808F04C
:1004600001C0FACF80E08093B20080E0AC81BD8112
:100470008C9380E0A881B9818C93AC81BD810C9173
:10048000083008F021C0A881B9810C91A6E2B0E043
:100490008C9184FB882780F9482F040FA881B981AB
:1004A0000C9391E0A881B981A7D0AC81BD818C91DA
:1004B0008F5F8C9380E08093B2000091B2000D3486
:1004C00008F001C0FACFD9CF31E0A881B9819C9161
:1004D000AA81BB818C918A95AE81BF81A80F8827A4
:1004E000B81F9D9388278093B100A3CFAA81BB81B9
:1004F0008C918F5F8C9331E080E0A0E4B4E08D9329
:1005000088278C93E0E4F4E0E8949927AA81BB81E2
:100510008C91AE81BF8116D083E0481A8827580A93
:10052000269608953C9A449A80916E008E7F80931F
:100530006E00A881B98138D080916E00816080936F
:100540006E000895A80FB91F11971EF45FD0802D7B
:1005500001C081918D93882311F03A95B1F70895E8
:100560003197F1F70895689462F80895E89462F875
:1005700008958F939F938BE590E00197F1F79F91FA
:100580008F91089580952AE090E0089410F44498A3
:1005900002C0449A0000EDDFECDF969587952A951E
:1005A000A9F70895A0E4B4E08D91882311F0EADF63
:1005B000FBCF08955A924A92480E8827581E0895F4
:1005C00025D00D920020E1F7089570917A007064B3
:1005D00070937A0000907A0006FCFCCF70917A004C
:1005E000706470937A0000907A0006FCFCCF8091D2
:1005F0007800909179000895903039F08C9186952B
:1006000008F480689A95D9F78C930895C895319627
:1006100000200895040F151F261F371F0895000F8F
:10062000111F221F331F08950095109520953095B6
:100630000F5F1F4F2F4F3F4F08950027112722278D
:1006400033271DD08A3328F4803318F005D015D015
:10065000F9CF0EF4E9CF089580538F93402F512F97
:10066000622F732FDCDFDBDFD5DFD9DF8F91992796
:10067000080F191F291F391F08958D910895E894B7
:10068000FCDF8032E9F38B32D9F38930C9F38D3244
:1006900011F46894F2CF089588278D9308950991F5
:1006A0009191992351F08A95D9F7319781918D9342
:1006B0000A9519F08823D1F70895EECF689401C008
:1006C000E894AF93BF938D9116F0919102C09EDF95
:1006D000902D891718F011F48823A9F7BF91AF91D5
:1006E0000895730064006E7263006E636B00616353
:0A06F0006B0064636B00626300009E
:00000001FF
