:100000000C942A001895000018950000189500001F
:10001000189500001895000018950000189500002C
:10002000189500001895000018950000189500001C
:10003000189500000C9476011895000018950000A2
:1000400018950000189500001895000018950000FC
:10005000189500008FE58DBFC0E2E8EB4E2E88E0DA
:100060008EBFD8E0F7E05F2EEEEFF7E0A0E6B0E05D
:10007000A89584B7082E877F84BF88E1992781BD22
:1000800091BD88278D933197E9F783E089B980E0A6
:1000900080BD88E18AB96624579ABC9AC49ABC9AF2
:1000A000C49A0E949C0081E090E00E94AB000E94F4
:1000B0004601A7E7B0E09C9381B5886181BD877F49
:1000C00081BDA49AA59AA69AA79A8D9A8C9A81EA3C
:1000D0008FBD81E08EBD89E590E090934B008093C9
:1000E0004A0089E590E09093490080934800E2E05F
:1000F000F0E00E949300E4E4F3E00E9485000E9497
:100100008C00AD9A78940C9483000E947201802D2B
:1001100011F005D0FACF08958DE001D08AE05D9B03
:10012000FECF8CB9089588EE93E015D03197D9F7BA
:1001300008953197F1F70895BF9ABE98C69ABD9A6F
:100140008CE58DB9089508950895689462F808952E
:10015000E89462F80895EF93FF93EE27E82BE92BDC
:1001600031F0E3E3F7E03197F1F70197D1F7FF9131
:10017000EF910895C49846D0072F44D0062F42D05F
:10018000052F40D0042F3ED01F932F93112725E039
:10019000E89435D00F3F21F411502040D1F76894F6
:1001A0002F911F9100230895C49A1AE028D01A9520
:1001B000E9F7C49800E426D024D023D022D021D05F
:1001C00005E920D014E6E0DF013021F01A95D9F7D7
:1001D00091EE79C073C01AE0C49801E413D011D035
:1001E00010D00FD00ED0D0DF49F068D082E390E07D
:1001F0000E94AB001A9581F792EE65C05FC00FEFC9
:1002000001C000270FB9779BFECF0FB10895442797
:100210005D916D917D91550F661F771F089545D0B3
:10022000F6DF01E5A7DF11F093EE4DC0ADDF0E3F25
:1002300011F095EE48C092E08827E1DF0193019725
:10024000E1F7DDDFDCDF3AC030D0E1DF08E592DF47
:1002500011F094EE38C0D3DF0EEFD4DF92E08827A0
:100260000191D0DF0197E1F7CADFC9DFC8DF0F7165
:1002700000937A0011272FEF31D0C1DF002329F43A
:1002800011502040C9F796EE1EC018C00E949C0075
:100290000CD08ADF08F408959ECF07D085CF05D013
:1002A00081E00EC002D098EE13C0992788949093F5
:1002B000770090937900909378000895C49A9FDF17
:1002C00099278894089504D0C49A99DF08940895D2
:1002D00090937700009379000894089599E19A9596
:1002E000F1F70895C8953196002008957F930F93F4
:1002F000AF93BF938F939F938FB78F938091760027
:1003000004E1081B21F49CB10E94A50012C00091D9
:100310007500A0E6B0E077279CB1A00FB71F9C93B3
:100320008395809376000395043109F400270093A8
:1003300075008F918FBF9F918F91BF91AF910F915A
:100340007F9118954D696E69426F7420762E322028
:0E035000697320636F6E66696775726564007D
:00000001FF
