:100000000C942A001895000018950000189500001F
:10001000189500001895000018950000189500002C
:10002000189500001895000018950000189500001C
:10003000189500000C94BE09189500001895000052
:1000400018950000189500001895000018950000FC
:10005000189500008FE58DBFC0E2E8EB4E2E88E0DA
:100060008EBFD8E0F7E05F2EEEEFF7E0A0E6B0E05D
:10007000A89584B7082E877F84BF88E1992781BD22
:1000800091BD88278D933197E9F78FE289B980E098
:1000900080BD88E18AB96624579ABC9AC49ABC9AF2
:1000A000C49A0E941C0181E090E00E942B010E94F2
:1000B000C601ADE6B0E09C9380E00E941802ABE17F
:1000C000B7E09C9300911B07003018F011F00C94DE
:1000D0006B000C947B00E0ECF4E10E940B01A0EAC1
:1000E000B7E0EBE1F7E00E94160A0E9403010E94CC
:1000F00012010C948100ECECF4E10E940B010E94CF
:100100001201A0EAB7E0EAEDF4E10E94AE0981E055
:10011000A0EAB7E00E94C802A0EAB7E0E0EEF4E18E
:100120000E94AE0982E0A0EAB7E00E94D502E6EEA6
:10013000F4E10E940B010E94120181E09EE1ACEF0C
:10014000B6E00E94F902ACEFB6E00E9405010E9401
:10015000120181E00E942103082F003011F40C9459
:100160009D00E6EFF4E10E940B010E94120182E083
:100170000E949C0608F409C0FA93EA93E6E0F5E1D0
:100180000E943D090E943709229682E00E949C0647
:1001900008F409C0FA93EA93E2E1F5E10E943D090F
:1001A0000E943709229682E00E941803A0EAB7E075
:1001B000E0EEF4E10E94AE0982E0A0EAB7E00E941E
:1001C000C802E0E2F5E10E940B010E94120182E008
:1001D0009EE1ACEFB6E00E94F902ACEFB6E00E94FF
:1001E00005010E94120182E00E942103082F0030C5
:1001F00011F40C94E70082E00E94180381E00E9451
:1002000018030C940101A0EAB7E08D91882311F046
:100210000CD0FBCF08950E94B409802D11F005D0B9
:10022000FACF08958DE001D08AE05D9BFECF8CB9B6
:1002300008953197F1F70895BF9ABE98C69ABD9A6E
:100240008CE58DB9089508950895689462F808952D
:10025000E89462F80895EF93FF93EE27E82BE92BDB
:1002600031F0E3E3F7E03197F1F70197D1F7FF9130
:10027000EF910895C49846D0072F44D0062F42D05E
:10028000052F40D0042F3ED01F932F93112725E038
:10029000E89435D00F3F21F411502040D1F76894F5
:1002A0002F911F9100230895C49A1AE028D01A951F
:1002B000E9F7C49800E426D024D023D022D021D05E
:1002C00005E920D014E6E0DF013021F01A95D9F7D6
:1002D00091EE79C073C01AE0C49801E413D011D034
:1002E00010D00FD00ED0D0DF49F068D082E390E07C
:1002F0000E942B011A9581F792EE65C05FC00FEF47
:1003000001C000270FB9779BFECF0FB10895442796
:100310005D916D917D91550F661F771F089545D0B2
:10032000F6DF01E5A7DF11F093EE4DC0ADDF0E3F24
:1003300011F095EE48C092E08827E1DF0193019724
:10034000E1F7DDDFDCDF3AC030D0E1DF08E592DF46
:1003500011F094EE38C0D3DF0EEFD4DF92E088279F
:100360000191D0DF0197E1F7CADFC9DFC8DF0F7164
:100370000093700011272FEF31D0C1DF002329F443
:1003800011502040C9F796EE1EC018C00E941C01F3
:100390000CD08ADF08F408959ECF07D085CF05D012
:1003A00081E00EC002D098EE13C0992788949093F4
:1003B0006D0090936F0090936E000895C49A9FDF34
:1003C00099278894089504D0C49A99DF08940895D1
:1003D00090936D0000936F000894089599E19A95A9
:1003E000F1F70895E5E7F0E0A6E8B6E099279193E4
:1003F0001197E9F70895E894843059F0863049F070
:10040000803039F068948B3021F08C3011F093E11A
:100410009EC20090770000F80092770088940895BB
:10042000E5ECF2E01DD245555A4A09F408958FC211
:100430008A93D8DFC1D2C0F091E1F2DFA8F08881C1
:100440008823F9F0E5E8F2E08A9511F07096FCCF88
:1004500080818F7721F434968081CDDF38F48881D4
:10046000823078F093E173C2219671C28093760056
:100470003496A2ECB0E00ED29FD288F392E1D0DFA6
:1004800098F38991E2EDF0E0EBD14050524094E1D5
:10049000F9F4A5EDB0E0E1D1A2ECB0E0B4D1AAD17D
:1004A000A8E7B0E0C4D1ADEDB0E0D5D140505040A8
:1004B00019F4ABEEB0E0B1D1EDE7F0E0C2D180913C
:1004C000D70080937C0096E1882311F0833008F0F8
:1004D0003EC292D181FD90D1A1E8B0E0A8D1A8EDB3
:1004E000B0E0BBD1A5E8B0E0BED184E0C9D182D1F3
:1004F000A7E8B0E09CD1A2ECB0E08FD10E94EF0958
:10050000B5D1EAEDF0E0A2D10050104019F4E7EEC9
:10051000F0E07ED10E94EF098091D40080938B009F
:1005200095E18823A9F28695F0F791F6A8D05CD1E1
:10053000ACE8B0E07CD10090770000FA80917600C2
:10054000882379F4E89486E00F5F164F204030400E
:1005500010F068948BE880937600992790F9909337
:1005600077003EF4A3EFB0E04ED19ED0A1E8B0E01A
:100570005ED182E080939000A1E8B0E044D1A8E988
:10058000B0E055D1AEE9B0E052D1E9C1E7D348F0CF
:1005900045D331F48F9391E0F3D38F9110F0DFC105
:1005A000DAC188270895DAD3D8F038D3D1F48F93FD
:1005B00098E0E6D38F9120F4923481F498E012C051
:1005C000FA93EA93908D95FD07C07FD18F9398940D
:1005D0000E94DE088F9108F0C1C1229688270894F6
:1005E0000895B9C18F9326D48F9108F0B8C1882798
:1005F00008959F93A1D39F91D0F0FA93EA939F938C
:10060000BF93AF93E6D3AF91BF919F9158F08D30D8
:10061000B1F38A3029F0992391F38D939A95EFCF16
:100620008894992780E08C938FB722968FBF089586
:1006300083D330F0FA93EA939AD308F08FC195C12F
:1006400008957AD328F0808D827009F08FEF87C1EA
:100650008FEF0895802FC8D090918700891B982F25
:100660008395892790918B00892311F488940895AC
:10067000C5D005D02ED008F4089516D0F7CFE7E8FE
:10068000F0E0D0D00E94EF0972F080918B0080FDE5
:1006900006C036952795179507958695F8CF0E5F76
:1006A0001F4F2F4F3F4F089580918B0002501040F5
:1006B0002040304080FD06C0000F111F221F331F55
:1006C0008695F8CFE7E8F0E0ADD00C94EA0909D1BF
:1006D000D6DFA8E7B0E0A1D00090770000FE04C00C
:1006E000000F111F221F331F0F93012F122F232FD3
:1006F00033270E94EA0965D18F91E8F000907700D6
:1007000000FA9927880F991FE80FF91F222733272E
:100710000191119136F4219131913F7032976FEF31
:100720007FE0329748EF5FEF0417150716F42607AE
:10073000370710F091E20BC112C151D002E0A02E98
:10074000442755276627772704C0A0E9B0E05BD08F
:10075000AA243F932F931F930F937F936F935F93DD
:100760004F93AF92B6DFAF904F915F916F917F91B2
:100770000F911F912F913F91ACE8B0E0CD90DD90AB
:10078000ED90FD9010F4913249F5C016D106E206C5
:10079000F30618F199278191982B8191982B2EF4CB
:1007A0008191982B81918F70982B31F4A1FE0EC00E
:1007B0004F5F5F4F6F4F7F4F802F912F15D0912745
:1007C000969516F48027880F00F7C3CF32970EF462
:1007D0003297A0E9B0E02BD0C2C092E2B8C00027A7
:1007E00011272227332708950F5F1F4F2F4F3F4FA9
:1007F00008955527662777270C94EA090150104081
:100800002040304008950D911D912D913D91089506
:10081000019111912191319108954D915D916D91C9
:100820007D910895419151916191719108950D9338
:100830001D932D933D93089501931193219331932B
:10084000089541935193619371930895222733271B
:10085000019111910895662777274D915D91089533
:100860004191519108954D935D930895402F512FDB
:10087000622F732F0895005010402040304008959B
:10088000569547958A95E1F70895440F551F8A9527
:10089000E1F7089584E09F9391919D938A95E1F704
:1008A0009F910895E881F9810895A881B9811896EA
:1008B0000895E881F9813C960895E881F981389698
:1008C000BBCFE881F9813896A3CFF3DFA1CFF1DF69
:1008D000A9CFA881B9811C960895E881F981749601
:1008E0000895FBDF95CFE881F981808D0895E88137
:1008F000F98170960895FBDF8BCFF9DF93CFF7DF97
:100900009BCF0090770000FA8FEF819381931EF4C4
:1009100081938FE0819340C00090770000FA0193AB
:10092000119316F42193319337C0E881F9817996B8
:100930000895D3DF81CFA881B981549608950F908F
:100940000F900F900F900F900F900895229608949B
:10095000909375000895882799E4F9CF229688949A
:1009600090E0F6CF229688940895229608940895F0
:1009700080EA01C084E8E881F9819F93908D892BFA
:10098000808F9F910895E881F9819F93908D809544
:100990008923808F9F9108958091C60088608093FD
:1009A000C60008950E948F0108F0D9CFD0CF0E94D1
:1009B000A40108F0D4CFCBCFA2ECB0E0E7ECF0E09C
:1009C000F1CF80E1A2ECB0E006C080E0A2ECB0E0A4
:1009D00002C0B1DF80E821DF0E94F40931F4E8941D
:1009E0001196EA2FFB2F1597BECF9D91EA2FFB2F73
:1009F000792F777E872B8E93149793FF18C00F93D0
:100A00001F932F933F939F93AF93BF93D0DFBF91DB
:100A1000AF919F91A8F094FF06C0AF93BF9382D38C
:100A2000BF91AF9168F03F912F911F910F91FFDE21
:100A3000D7DFEF93FF93B6DFFF91EF9168940895AE
:100A400080CF51DF8670B1F456DF00271E7F442728
:100A500052E0D0DE54DF47DF867061F442DFFADD1A
:100A600020F069DFB6DF38F067C2913221F482DF0F
:100A700091E26DCF91E06BCFD1D009F06DCFFA93B9
:100A8000EA93A4D008F471CF83858F3099F0827CEB
:100A900089F480818E3271F0853E61F08030D1F032
:100AA000A881B9819C919F3311F0981303C07BE01A
:100AB000A8D0A1F0B09681E0480F25F78827581FED
:100AC0005F934F930FD008F080DF4F915F91D0F686
:100AD000903C08F492E4E991F99139CFA0ECB0E0B0
:100AE000C2DE3CCF0090770000FC19C0A8E9B0E05E
:100AF0008ADEA1E8B0E05F934F938FDE0E94F40995
:100B00004F915F9161F4A5E8B0E06D917D9146173A
:100B1000570710F091E31BCF0FD066DE20CF0CD02B
:100B20003F932F931F930F9395DD08F00ACF0F91FA
:100B30001F912F913F910895A2ECB0E064CE4ED06A
:100B4000E0F18081853E81F1803071F1B09681E0E5
:100B5000480FBDF78827581F5F934F93C3DF08F0F6
:100B600034DF4F915F9168F7913239F55F934F937E
:100B700086DD3F932F931F930F93E7DDF8F0C1DEDF
:100B800075DE0F911F912F913F917F936F935F932C
:100B90004F939FDD0F911F912F913F9180F49132E0
:100BA00081F4BADE7DD2DDCFA0ECB0E05CDE2BDEDE
:100BB000ACE9B0E058DE3BDED2CEC9CEC0CE93E287
:100BC000C6DEC1CEA881B98112960AC04427552736
:100BD000A8E9B0E006C0AEEAB0E002C0ACE9B0E01F
:100BE0003CDE11DE5A934A93F0DE50F048814F709C
:100BF000552785E04ADEE40FF51F49915991AFCEA4
:100C0000B4CEFF93EF9381919D919F3311F089179B
:100C100011F47A95C1F7EF91FF910895E4EBF0E0BC
:100C20008F93E89499277BE0AEF08D918A3219F486
:100C30008FE368940FC08E3239F4733011F4E89466
:100C4000F3CF80E2689406C0803011F480E20CC0DB
:100C50000E94B80981938F3309F49395743009F495
:100C6000E8947A9509F704C080E281937A95E9F7D0
:100C700080E081933C9799238F910895928D9D9365
:100C8000938D9D930090770000FE05C094899D93FD
:100C900095899D93089599279D939D9308957C969A
:100CA000F9DDB0970895882311F49AE450CE32E02C
:100CB000E7ECF2E0E8942081222329F4AEF0EE2E56
:100CC000FF2E689411C0281749F1EF93FF938F937B
:100CD0003296A0ECB0E024D38F91FF91EF9121F4F4
:100CE0001181192310FF1CC03A9519F0E65EFD4FE3
:100CF000E2CFC6F4EE2DFF2D18D080839183EF93C1
:100D0000FF938F9386E03296AE2FBF2FE0ECF0E09A
:100D100086E0C1DD8F91FF91EF9121CE95E417CE52
:100D200096E415CE94E413CEBDDD09E100240192D2
:100D30000A95E9F779970895882369F072E0E7EC5E
:100D4000F2E09081981749F07A9519F0E65EFD4F30
:100D5000F8CF93E4FCCD9AE4FACD089580E8ECDF77
:100D600028F08395E1F791E48827F1CDF8CD9ADD5D
:100D700002C0E2DF20F081E0FEDD6CD1D5CF089526
:100D80008F939F937CDE7F918F91E8F0972F6385FF
:100D9000692760FF03C0692760FD18C0FF93EF93C8
:100DA00082DFFA93EA93EF91FF9168F092DD77DFAB
:100DB0007CDD64DF86DD5FDD39F076DC0ADE40F065
:100DC000BBD091DDCFCD0895D3DDFBCF98E4BFCD6F
:100DD000CCCDE881F9819181917251F1E881F9815D
:100DE000808D81FD23C0709613DD912F802FFCDC58
:100DF000349722DDE881F9813C9614DD0E94F409E4
:100E000030F03896708172607193112704C0E881C8
:100E1000F981799619279170E80FF91F808116954D
:100E200021F08F9318DE8F91089599CD91E08FCDA9
:100E300092E68DCDFF93EF938F939F9311C0FF9315
:100E4000EF938F939F9339D058F4923451F508C0A3
:100E5000FF93EF938F939F9312DE08F5923409F579
:100E60006EDE00F121D09F918F91FF93EF931BDFF6
:100E7000AF91BF91C0F0FA93EA93EF91FF919F93E6
:100E80008BE009DD9F91917090629D93129628D21C
:100E9000149626D281DD6CDDE991F99160CD92E363
:100EA00056DD08944ECD4FCD85EE819388279FE186
:100EB00081939A95E9F7B097089509F04CCDDFDD5D
:100EC00070F183858F7D11F093E341CDFF93EF9314
:100ED00056D0EF91FF9118F1FF93EF9321D0EF914E
:100EE000FF9185EE808358DD22273327028D138DF5
:100EF0000090770000FE02C024893589BCDC69F0CF
:100F000015D0E7DB80E08193819316F48193819380
:100F100043DDB0F7913211F4EAC0FAC008940895A5
:100F2000E0ECF0E0ACE9B0E086E0F8C1E0E1FF27FA
:100F3000A0E9B0E084E0F2C1C8DCDFDC0E94F40983
:100F4000C2F0C9F05BDC732761F4622751F45127CA
:100F5000569539F4BADCD1DC0E94EF0984E00BDD50
:100F6000FECC00E012E086E00EDDF9CC84E003DD8B
:100F7000F6CC91E601C091E086E0FDDCE8CC72E0C1
:100F8000E7ECF2E08081882351F0FF93EF933296F3
:100F9000A0ECB0E086E0C4D1EF91FF9129F07A9502
:100FA00029F0E65EFD4FEECF97E4D1CCD8CC99DCAA
:100FB00051DB28F098DC81FF0CCDBBDC8FC0913277
:100FC000F9F4C3DBE8F08FEF819381930090770011
:100FD00000FE03C081938FE08193DEDC0F931F93AB
:100FE0002F933F9374DB3F912F911F910F9130F41A
:100FF000913221F4B4DC90DC57DBDCCF93E2A7CC58
:101000000895A3DB30F18FEF8193819300907700F7
:1010100000FE03C081938FE08193BEDC3F932F934A
:101020001F930F934ADCCEDD0F911F912F913F91BB
:1010300080F0028F138F0090770000FE02C0248B97
:10104000358BAADC31DB75DCCADB59DC80E29BDC4A
:101050008894089548DC83FF09C03FDCAE2FBF2F82
:1010600034968081877F8193A2DCC0F03CDC86FFD0
:1010700016C087FF02C080FF12C0A4DD78F0AE2F3B
:10108000BF2F1B968C9180628C93519681E47BDC00
:101090001CDCCDDB1A9724D17FDC3AC008955FCCED
:1010A00003DB80918B008F9390DC18F018D074DCF8
:1010B00088948F9190F08A9529F0E2ECF0E0A8DB1B
:1010C00093DBF1CF40918B004A9531F0E2ECF0E0F8
:1010D0009FDB041B94DB79CC42CC089526DC772778
:1010E00092E080E071930197E9F7F25038CC80E10B
:1010F000A2ECB0E0E6ECF0E0908193FF08958193DC
:10110000BF93AF9354DCAF91BF9108F408950AC028
:1011100080E0A2ECB0E0E6ECF0E0908193FF08956F
:10112000819345CCECE7F0E0819181FF08957ADB73
:101130006ADBEA2FFB2F31960E94EA09A4E9B0E0AE
:1011400076DB149734CCE881F98191819A7279F138
:10115000E881F9818F93908D95FF06C052DF48F1A9
:10116000BDDFE881F981908D709652DBF12EE02E83
:101170003BDB349761DBE881F9813C9653DB401718
:1011800051076207730718F4349756DB92641F25E2
:101190009860E881F981789691939F2D9170EE0D7A
:1011A000F91F8F918193169531F054DF00CF92E6AD
:1011B000CECB8F9108958894089520DB332312F4C9
:1011C00093E6C5CB19F48FDB85FDC9CB80DB0E948C
:1011D000F409C1F1A8F53F932F931F930F935AD0B1
:1011E0005C2D6D2D7E2D4F9386DB54D07ADB7F9363
:1011F0006F935F9344DA5F916F917F915C156D05FA
:101200007E0528F089F05C196D097E0901C059DB63
:1012100051506040704040F07F936F935F9359DA74
:101220005F916F917F91A0F73FDA4F91E2DAD1DBC6
:10123000C8F00F911F912F913F9161DB7DDE8FCB25
:1012400091E685CB002339F6812F817021F6D6DA1D
:10125000B5DF40F050DBC8DA52DBA9DE20F4913074
:1012600011F0089408953FDB81FD38CF78CB8DE0F5
:101270006ADF10F08AE067CF08950E94B40941F058
:10128000802DFF93EF935FDFEF91FF9110F0F5CF8B
:101290008894089580918B00369527951795412F56
:1012A00090E0869530F03695279517950894991F0C
:1012B000F8CFC12ED22EE32E49230895E881F9817B
:1012C000808D03DB1ADBEEDA0E94EF0928F021F0B3
:1012D0008D7F808F889408958660808F089408950C
:1012E00081E0AA24BB24C82ED82EE82EF82ECC0CE0
:1012F000CC0CCC0C8827B6948795B69487958A2910
:10130000B6948795BC288D93BD9284E18F0DE294AD
:10131000EE0C881FED28ED928D930895689401C01E
:10132000E894FA93EA93BA93AA93082E8817CFB653
:10133000A190BD90CFBEAB04CFB68A95C9F7CFBE02
:1013400046F438F4802DA881B981EA81FB81A3DAC3
:10135000CFBEA991B991E991F99108950E94B4097C
:101360000D920020D9F70895C89531960020089570
:10137000813618F08B3708F48F7D08957F930F9393
:10138000AF93BF938F939F938FB78F9380916C0090
:101390000AE0081B21F49CB10E94250112C00091B3
:1013A0006B00A0E6B0E077279CB1A00FB71F9C931D
:1013B000839580936C0003950A3009F4002700930D
:1013C0006B008F918FBF9F918F91BF91AF910F91C4
:1013D0007F911895040F151F261F371F0895041BB2
:1013E000150B260B370B089504171507260737072B
:1013F0000895000F111F221F331F089500951095A7
:10140000209530950F5F1F4F2F4F3F4F089501914B
:1014100010810EC001911191219130810BC0019179
:10142000108117FF05C03FEF2FEF04C00081112787
:101430002227332737FF03C0E1DF8DE28D93CF935F
:10144000DF93CF92DF92EF92AA24BB24CC24DD2439
:10145000EE2440E2CAE0DD2755E093E38881890F5E
:1014600087FD9F7083FD907F891B89935A95A9F70B
:10147000C0DFAA1CBB1CCC1CDD1CEE1C4A9551F71E
:10148000E894EFE0FF2782910ED0EB30E0F71EF0FA
:1014900068948A2D0CD088278D93EF90DF90CF90A1
:1014A000DF91CF910895982F829501D0892F8F7069
:1014B000805D26F0803309F4089568948D93089533
:1014C000466174204572726F723A20004641542082
:1014D000496E6974696174656400312E62617400DB
:1014E000322E62617400312E62617420696E636C09
:1014F000756465730000777274696520746F2032BB
:101500002E6261740000736F6D6520737472696E72
:1015100067006F7468657220737472696E6700008B
:10152000322E62617420696E636C756465730000AD
:00000001FF
