:100000000C942A00189500000C94210A1895000001
:10001000189500001895000018950000189500002C
:100020001895000018950000189500000C94A30D79
:10003000189500000C94E61A189500001895000019
:1000400018950000189500001895000018950000FC
:10005000189500008FE58DBFC0E2E8EB4E2E88E0DA
:100060008EBFD8E0F7E05F2EEEEFF7E0A0E6B0E05D
:10007000A89584B7082E877F84BF88E1992781BD22
:1000800091BD88278D933197E9F78FE289B980E098
:1000900080BD88E18AB96624579ABC9AC49ABC9AF2
:1000A000C49A0E94830E81E090E00E94920E0E940A
:1000B0008810A7E7B0E09C9381B5886181BD877FF8
:1000C00081BDA49AA59AA69AA79A8D9A8C9A81EA3C
:1000D0008FBD81E08EBDA29AA39A8C9A8D9AAA9820
:1000E000AB9880E090E090934B0080934A0080E0D2
:1000F00090E0909349008093480085B7837F8860A3
:1001000085BF8BB780688BBFE1E0F0E00E94230ED3
:10011000E8E1F9E30E94150E0E941C0EAD9A789456
:1001200080E08093A50580E08093A60581E0809320
:100130004D060E949D00F894FFCFADEFB4E08827F4
:100140008C93E2E3F9E30E94150E0E941C0E0091CD
:10015000A505003081E009F080E08F930091A605AD
:10016000003081E009F080E09F918923882311F419
:100170000C94E1008AE00E941F0E8DE00E941F0E89
:10018000EEE4F9E30E94150E86E090E00E94920EE4
:10019000A4E7B0E00E94121B0E94871CADEFB4E000
:1001A00036E90E94D00D0E94841C8AE00E941F0E36
:1001B0008DE00E941F0E0E94E400ADEFB4E088279E
:1001C0008C930C94A700089581E00E94A10E81E019
:1001D0000E94A10E82E00E94A10E82E00E94A10E68
:1001E00084E00E94A10E84E00E94A10E84E00E949F
:1001F000A10E0E94FF0680E08093A10580E080931D
:10020000A2050091A005003018F011F00C940A012D
:100210000C94F906ECEEF4E0FA93EA935A924A92BF
:1002200080E1A42DB52D8C9381E00E94B40D0E9435
:10023000D407249681E00E94B00DECEEF4E0ACEE21
:10024000B4E00E94DA1AACEEB4E0E4E5F9E30E940F
:10025000701C11F00C9442010E949110AC85BD8578
:100260009C93AC85BD850C91003011F00C943E013F
:10027000ECE5F9E30E94150E0E941C0E0E94510944
:100280000C94F906E0E6F9E30E94701C11F00C945E
:10029000B101E4E6F9E30E94150E0E941C0E0091E4
:1002A000A005023011F00C949E01EC81FD81FA93BF
:1002B000EA935A924A9200E010E020E030E0A42D48
:1002C000B52D0D931D932D933C9384E00E94B40DA6
:1002D0005A924A9203E010E020E030E0A42DB52DC0
:1002E0000D931D932D933C9384E00E94B40D0E94C6
:1002F0001D08269688E00E94B00DAC81BD818C91CE
:10030000AC85BD858C93AC85BD858C910E94DA103F
:10031000AA85BB859C93AA85BB850C91003011F4FE
:100320000C949A01E0E7F9E30E94150E0E941C0E5E
:100330000C949C010E9485090C94AF015A924A9238
:10034000A42DB52DEAE8F9E30E94C81983E00E94C4
:10035000B40D0E94F408229683E00E94B00D0C9424
:10036000F906EEE8F9E30E94701C11F00C94CC0140
:100370000E949019AC81BD810D931D932D933D93E7
:10038000A0EAB7E0EC81FD810E94901B0E940D0E57
:100390000E941C0E0C94F906E8E9F9E30E94701C17
:1003A00011F00C94DD010E942E09EEE9F9E30E94A0
:1003B000150E0E941C0E0C94F906ECEAF9E30E945B
:1003C000701C11F00C944E020091A005023011F047
:1003D0000C943B02ECEEF4E0FA93EA935A924A92C0
:1003E00082E0A42DB52D8C9381E00E94B40D0E9473
:1003F000D407249681E00E94B00DECEEF4E0ACEE60
:10040000B4E00E94591CACEEB4E0E2EBF9E30E94C8
:10041000701C11F00C940F02AC9A0C943302E6EBB2
:10042000F9E30E94701C11F00C941902AE9A0C941E
:100430003302EAEBF9E30E94701C11F00C942302E2
:10044000AD9A0C943302EEEBF9E30E94701C11F0AC
:100450000C942D02AF9A0C943302E2ECF9E30E9463
:10046000150E0E941C0EE4EDF9E30E94150E0E9489
:100470001C0E0C944C025A924A92A42DB52DE8ED14
:10048000F9E30E94C81984E00E94B40D0E94F408A8
:10049000229684E00E94B00D0C94F906ECEDF9E38D
:1004A0000E94701C11F00C94BF020091A005023054
:1004B00011F00C94AC02ECEEF4E0FA93EA935A9249
:1004C0004A9282E0A42DB52D8C9381E00E94B40D58
:1004D0000E94D407249681E00E94B00DECEEF4E077
:1004E000ACEEB4E00E94591CACEEB4E0E2EBF9E3F0
:1004F0000E94701C11F00C948002AC980C94A40221
:10050000E6EBF9E30E94701C11F00C948A02AE989D
:100510000C94A402EAEBF9E30E94701C11F00C9415
:100520009402AD980C94A402EEEBF9E30E94701CC7
:1005300011F00C949E02AF980C94A402E2ECF9E343
:100540000E94150E0E941C0EE4EDF9E30E94150EA8
:100550000E941C0E0C94BD025A924A92A42DB52DF5
:10056000E8EDF9E30E94C81984E00E94B40D0E94EE
:10057000F408229684E00E94B00D0C94F906E4EE93
:10058000F9E30E94701C11F00C94B7030091A005D0
:10059000053011F00C94A40340E050E060E070E0FE
:1005A000E0E1F0E0FA93EA935A924A9200E010E018
:1005B00020E030E0A42DB52D0D931D932D933C9399
:1005C00084E00E94B40D5A924A9201E010E020E0CB
:1005D00030E0A42DB52D0D931D932D933C9384E015
:1005E0000E94B40D0E941D08269688E00E94B00D5E
:1005F0000E947A1B11F00C940003AA980C9401033A
:10060000AA9A40E050E060E070E0E0E1F0E0FA93A8
:10061000EA935A924A9200E010E020E030E0A42DE4
:10062000B52D0D931D932D933C9384E00E94B40D42
:100630005A924A9201E010E020E030E0A42DB52D5E
:100640000D931D932D933C9384E00E94B40D0E9462
:100650001D08269688E00E94B00D0E947A1B11F0BA
:100660000C943503AB980C943603AB9AEC81FD8166
:10067000FA93EA935A924A9200E010E020E030E0C8
:10068000A42DB52D0D931D932D933C9384E00E94D2
:10069000B40D5A924A920FEF10E020E030E0A42D02
:1006A000B52D0D931D932D933C9384E00E94B40DC2
:1006B0000E941D08269688E00E94B00DEA81FB8109
:1006C000FA93EA935A924A9200E010E020E030E078
:1006D000A42DB52D0D931D932D933C9384E00E9482
:1006E000B40D5A924A920FEF10E020E030E0A42DB2
:1006F000B52D0D931D932D933C9384E00E94B40D72
:100700000E941D08269688E00E94B00DAC81BD8134
:100710008C91AC85BD858C93AA81BB818C91AA8577
:10072000BB858C93AC85BD858C91992790934900AE
:1007300080934800AA85BB858C91992790934B00A4
:1007400080934A000C94B5035A924A92A42DB52D79
:10075000E8EEF9E30E94C81984E00E94B40D0E94FB
:10076000F408229684E00E94B00D0C94F906ECEE99
:10077000F9E30E94701C11F00C9409040E948A0F86
:10078000AC85BD852C93AA85BB851C93AC85BD85A6
:100790000C910F3F81E009F480E08F93AA85BB851F
:1007A0000C910F3F81E009F480E09F918923882319
:1007B00011F40C940104AA85BB858C918F778C93DE
:1007C0008CE00E941F0EE4EFF9E30E94150EA0EAF0
:1007D000B7E0EC85FD850E949C1B0E940D0E0E94D7
:1007E0001C0EE0E0FAE30E94150EA0EAB7E0EA85ED
:1007F000FB850E949C1B0E940D0E0E941C0E0C94F7
:100800000704ECE0FAE30E94150E0E941C0E0C9403
:10081000F906ECE1FAE30E94701C11F00C94260436
:10082000E2E2FAE30E94150E0E941C0E84B7877F55
:1008300084BF8BE181BD83E081BD81B5886081BDCE
:10084000E3E0F0E00E94230E0C94F906E0E3FAE303
:100850000E94701C11F00C948504379A07B1007E39
:10086000076007B90E94CE19AE81BF818D939C931A
:1008700007B1007E076007B90E94CE19AE81BF8123
:100880008D939C9307B1007E076007B90E94CE1933
:10089000AE81BF818D939C933798E4E1F9E30E9488
:1008A000D11AEE81FF81D190E080FF2400270E94C1
:1008B0002B1A0E94771AEDE0F0E0A881B9810E941E
:1008C000481CE8E3FAE30E94150EA0EAB7E0AF93F4
:1008D000BF93E881F9810E94071A0E94A70E11E0D8
:1008E00003E0BF91AF910E94281BE0EAF7E0A0EA85
:1008F000B7E00E94431C0E940D0EEAE4FAE30E9456
:10090000150E0E941C0E0C94F906ECE4FAE30E940A
:10091000701C11F00C949404E0E5FAE30E94150EAB
:100920000E941C0E0C94F906E8E6FAE30E94701C83
:1009300011F00C9466050091A005033011F00C94A1
:100940005305ECEEF4E0FA93EA935A924A928CE063
:10095000A42DB52D8C9381E00E94B40D0E94D40784
:10096000249681E00E94B00DECEEF4E0ACEEB4E031
:100970000E94591CEA81FB81FA93EA935A924A92A7
:1009800001E010E020E030E0A42DB52D0D931D9383
:100990002D933C9384E00E94B40D5A924A920FEF3B
:1009A0001FEF2FEF3FE7A42DB52D0D931D932D9332
:1009B0003C9384E00E94B40D0E941D08269688E0B6
:1009C0000E94B00D82E0ACEEB4E00E94B611E2E706
:1009D000FAE30E94150E0E941C0E81E090E00E9436
:1009E000920E01E010E020E030E0AC81BD810D937B
:1009F0001D932D933C93AA81BB814D915D916D9187
:100A00007C91AC81BD810D911D912D913C910E94F5
:100A10007A1B1CF011F00C944805A4E7B0E00E948A
:100A2000121B0E94871CADEFB4E036E90E94D00D86
:100A30000E94841C8AE00E941F0E8DE00E941F0EFF
:100A40000E94200AE89446E982E0ADEFB4E00E94FB
:100A50001E1200917F00003011F40C9438050E94A2
:100A60002E0982E00E9405120C9448050C94420560
:100A7000E8E7FAE30E94150E0E941C0E81E090E068
:100A80000E94920EAC81BD810E94B80D0C94FB04B3
:100A900082E00E940512ECE7FAE30E94150E0E9424
:100AA0001C0E0C9464055A924A92A42DB52DE2E8CE
:100AB000FAE30E94C81984E00E94B40D0E94F40871
:100AC000229684E00E94B00D0C94F906E6E8FAE361
:100AD0000E94701C11F00C941F060091A0050230BA
:100AE00011F00C940C06ECEEF4E0FA93EA935A92AF
:100AF0004A928CE0A42DB52D8C9381E00E94B40D18
:100B00000E94D407249681E00E94B00DECEEF4E040
:100B1000ACEEB4E00E94591CACEEB4E0EA81FB817B
:100B20000E948D12AA81BB810D911D912D913C9146
:100B300046E950E060E070E00E942C0EAA81BB8183
:100B40004D935D936D937D93AA81BB810D911D9112
:100B50002D913C9141E050E060E070E00E94701BFC
:100B6000AA81BB810D931D932D933D9382E0ACEE42
:100B7000B4E00E94B611E0E9FAE30E94150E0E946B
:100B80001C0E01E010E020E030E0AC81BD810D934F
:100B90001D932D933C93AA81BB814D915D916D91E5
:100BA0007C91AC81BD810D911D912D913C910E9454
:100BB0007A1B1CF011F00C940106E89446E982E0DF
:100BC000ADEFB4E00E943E1281E090E00E94920EF0
:100BD00000917F00003011F40C94F5050E942E095D
:100BE00082E00E9405120C940106ADEFB4E00E9471
:100BF0000F0E0E941C0EAC81BD810E94B80D0C949A
:100C0000CB0582E00E940512ECE7FAE30E94150E84
:100C10000E941C0E0C941D065A924A92A42DB52DCA
:100C2000EAE8F9E30E94C81983E00E94B40D0E942B
:100C3000F408229683E00E94B00D0C94F906E6E9D0
:100C4000FAE30E94701C11F00C94EB060091A505CC
:100C5000003081E009F080E08F930091A60500301C
:100C600081E009F080E09F918923882311F40C949E
:100C7000E3060091A005023011F00C94D006ECEED2
:100C8000F4E0FA93EA935A924A928CE0A42DB52D9F
:100C90008C9381E00E94B40D0E94D407249681E0D9
:100CA0000E94B00DECEEF4E0ACEEB4E00E94591CF2
:100CB000ACEEB4E0EC81FD810E948D124DE250E07B
:100CC00060E070E0AC81BD810D911D912D913C9152
:100CD0000E947A1B0CF402C00C947E06EAE9FAE347
:100CE0000E94150EACEEB4E00E940F0EE2EAFAE3A9
:100CF0000E94150E0E941C0E0C94CE0684E0ACEEF1
:100D0000B4E00E94B61100917F00003011F40C9401
:100D10009906EAE9FAE30E94150EACEEB4E00E94EF
:100D20000F0EE6EBFAE30E94150E0E941C0E0C94C7
:100D3000CE06E6ECFAE30E94150EACEEB4E00E949B
:100D40000F0E0E941C0E8F9A8F9A81E785BD81E756
:100D500085BDEF93FF93E8E5F0E00E94800EFF91E0
:100D6000EF91E89484E0AC85BD850E943D12AC858E
:100D7000BD858C9183BD84E00E940E12082F003047
:100D800011F40C94A906882785BD84E00E94051201
:100D9000E4EDFAE30E94150E0E941C0E0C94E1068D
:100DA0005A924A92A42DB52DE8EDF9E30E94C81994
:100DB00084E00E94B40D0E94F408229684E00E9410
:100DC000B00D0C94E906EAEDFAE30E94150E0E94BC
:100DD0001C0E0C94F906E4EFFAE30E94150EADEF39
:100DE000B4E00E940F0EEEEFFAE30E94150E0E948F
:100DF0001C0E82E1481A8827580A2E96089581E031
:100E00000E94A10E81E00E94A10E81E00E94A10E2D
:100E100081E00E94A10E81E08093A0050091A005D1
:100E2000063018F011F00C94310780E0A0EAB5E02C
:100E3000AD90BB24A3E9B5E0AA0DBB1D8C9380E067
:100E4000A0EAB5E0AD90BB24A9E9B5E0AA0DBB1DB1
:100E50008C93A0EAB5E08C918F5F8C9310F40C9486
:100E60000E0780E08093A005EDEFF4E0ADEFB4E075
:100E70000E94591CADEFB4E00E946A1CAE81BF8194
:100E80008C93AE81BF810C91003011F00C944A0715
:100E90000C94CE0780E0AC81BD818C9380E0AA8168
:100EA000BB818C9381E08093A0050091A005063062
:100EB00018F011F00C94CE07AA81BB818C918F5F42
:100EC0008C930091A005013011F00C947707AA8152
:100ED000BB819C919A93ADEFB4E0E0E1FBE32FEF8F
:100EE0000E94D719A881B9810C930C948507AA8117
:100EF000BB819C919A93ADEFB4E0E2E1FBE32FEF6D
:100F00000E94D719A881B9810C93A881B9810C914D
:100F1000003011F00C949B07AE81BF818C91A881A9
:100F2000B9818C93A881B9818C918F5F8C9381E07A
:100F3000AC81BD818C93A881B9810C91AA81BB81C0
:100F40004C91041BA0EAB5E0AD90BB24A9E9B5E043
:100F5000AA0DBB1D0C93AA81BB818C91A0EAB5E0C0
:100F6000AD90BB24A3E9B5E0AA0DBB1D8C93AC8169
:100F7000BD810C91013011F00C94C0070C94CE0788
:100F8000A881B9818C91AA81BB818C93A0EAB5E03C
:100F90008C918F5F8C9310F40C94550784E0481A61
:100FA0008827580A2896089581E00E94A10E81E0C2
:100FB0000E94A10EA1EAB5E08C918F5F8C93A1EA0B
:100FC000B5E0AD90BB24A3E9B5E0AA0DBB1D8C91A3
:100FD000AA81BB818C93A1EAB5E0AD90BB24A9E9BD
:100FE000B5E0AA0DBB1D8C91A881B9818C93AC8111
:100FF000BD814C91A881B9810C91041718F011F0B2
:101000000C9404080C940A08AC81BD818C91A881D1
:10101000B9818C93AA81BB818C91EDEFF4E0A8811A
:10102000B9810C910A93AF81B8850E945B1C82E064
:10103000481A8827580A2496089581E00E94A10E34
:1010400081E00E94A10E8DE00E94A10EA1EAB5E010
:101050008C918F5F8C93A1EAB5E0AD90BB24A3E99E
:10106000B5E0AA0DBB1D8C91AC81BD818C93A1EA2A
:10107000B5E0AD90BB24A9E9B5E0AA0DBB1D8C91EC
:10108000AA81BB818C93AA81BB810C910C3018F092
:1010900011F00C944D080C9451088CE0AA81BB818E
:1010A0008C93AC81BD818C91EDEFF4E0AA81BB8182
:1010B0000C910A93A981BA810E945B1CE881F98195
:1010C000A881B9810E944E1C8EE00E94A10E81E091
:1010D000EA81FB8101E00A93A981BA810E945B1C2D
:1010E000A881B981E4E1FBE30E94701C0FB68EE099
:1010F000481A8827580A22960FBE11F00C949C08B3
:1011000031E081E08A95A881B981A80F8827B81FAE
:1011100080E28D93E881F981A881B9810E944E1CFB
:10112000A881B9810E94291CAA85BB850D931D93B6
:101130002D933D930C94A608A881B9810E94E61BCB
:10114000AA85BB850D931D932D933D93A885B985E5
:101150004D915D916D917C91AA85BB850D911D91FD
:101160002D913C910E947A1B80E00CF081E08F93DE
:10117000AE81BF814D915D916D917C91AA85BB85BA
:101180000D911D912D913C910E947A1B81E014F0EC
:1011900009F080E09F918923882311F40C94D208F0
:1011A0000C94EE0881E08093A205E6E1FBE30E9447
:1011B000150E0E941C0EECE1FBE30E94150EE0E20E
:1011C000FBE30E94150EE885F985FA93EA93E8851A
:1011D000F985FA93EA930E940B0924968FE0481A46
:1011E0008827580A26960895E2E3FBE30E94150E2D
:1011F000A881B9810E940F0EE0E1FBE30E94150E69
:10120000E6E3FBE30E94150EE2E4FBE30E94150E09
:101210000E941C0E0895ECE4FBE30E94150EA0EA68
:10122000B7E0EA81FB810E94901B0E940D0EE0E571
:10123000FBE30E94150EA0EAB7E0E881F9810E9465
:10124000901B0E940D0EE8E5FBE30E94150EE2E400
:10125000FBE30E94150E0E941C0E089500917F0072
:10126000003018F011F00C9437090C944509ECE5A6
:10127000FBE30E94150EA0EAB7E0EFE7F0E00E9462
:101280009C1B0E940D0E0E941C0E009177000030E6
:1012900018F011F00C944E090C9450090E94510959
:1012A000089500917700003018F011F00C945A095D
:1012B0000C948409E8E6FBE30E94150EA0EAB7E06F
:1012C000E7E7F0E00E949C1B0E940D0E0E941C0E9E
:1012D000E6E7FBE30E94150EA0EAB7E0E9E7F0E0DD
:1012E0000E94151C0E940D0E0E941C0EE4E8FBE3F8
:1012F0000E94150EA0EAB7E0EAE7F0E00E949C1B0E
:101300000E940D0E0E941C0E0895E2E9FBE30E946C
:10131000150EA0EAB7E0E0E8F0E00E949C1B0E94F6
:101320000D0E0E941C0EE8EAFBE30E94150EA0EAD7
:10133000B7E0E1E8F0E00E949C1B0E940D0E0E94C5
:101340001C0EEEEBFBE30E94150EA0EAB7E0E2E80C
:10135000F0E00E94901B0E940D0E0E941C0EE4ED16
:10136000FBE30E94150EA0EAB7E0E6E8F0E00E9479
:101370009C1B0E940D0E0E941C0EEAEEFBE30E94D5
:10138000150EA0EAB7E0E7E8F0E00E94901B0E948B
:101390000D0E0E941C0EE0E0FCE30E94150EA0EA78
:1013A000B7E0EBE8F0E00E94901B0E940D0E0E9457
:1013B0001C0EE6E1FCE30E94150EA0EAB7E0EFE8A0
:1013C000F0E00E948D1B0E940D0E0E941C0EECE2AC
:1013D000FCE30E94150EA0EAB7E0E1E9F0E00E940C
:1013E000901B0E940D0E0E941C0EE2E4FCE30E9482
:1013F000150EA0EAB7E0E5E9F0E00E949C1B0E9410
:101400000D0E0E941C0EE8E5FCE30E94150EA0EAFA
:10141000B7E0E6E9F0E00E94901B0E940D0E0E94EA
:101420001C0EEEE6FCE30E94150EA0EAB7E0EAE926
:10143000F0E00E94901B0E940D0E0E941C0E089569
:1014400008958BB78F778BBF78940E948A0FA3EA99
:10145000B5E02C93A4EAB5E01C9378940091A30521
:101460000F3F81E009F480E08F930091A4050F3FC6
:1014700081E009F480E09F918923882311F40C9482
:10148000650AA4EAB5E08C918F778C938CE00E947A
:101490001F0EE4EFF9E30E94150EA0EAB7E0E3EABD
:1014A000F5E00E949C1B0E940D0E0E941C0EE0E0C5
:1014B000FAE30E94150EA0EAB7E0E4EAF5E00E9424
:1014C0009C1B0E940D0E0E941C0E0E947E0A009121
:1014D000A505033011F00C946F0A0E94030C0091D3
:1014E000A605033011F00C94770A0E94FC0C8AB711
:1014F00080688ABF8BB780688BBF18950091A40560
:10150000073311F00C94960A0091A505003011F0F4
:101510000C94900A81E08093A505AC9A0C94940AEF
:1015200080E08093A505AC980C94020C0091A40572
:101530000A3011F00C94A30AADE4B6E08C91865FFA
:101540008C930C94020C0091A4050B3011F00C94B8
:10155000B00AADE4B6E08C918A508C930C94020CE6
:101560000091A405063311F00C94BC0AAE9A81E0F8
:101570008093A6050C94020C0091A405053311F08C
:101580000C94CC0AADEFB4E0ECE4FAE30E94C81985
:101590000E94830D0C94020C0091A4050C3011F0F4
:1015A0000C94DC0AADEFB4E0E4E8FCE30E94C81957
:1015B0000E94830D0C94020C0091A405003211F0DE
:1015C0000C94080BADEFB4E0E6E9FCE30E94C81907
:1015D000ADEFB4E00E94C70DEDE4F6E00E949C1B65
:1015E000ADEFB4E00E94C70DE2EAFCE30E94C81927
:1015F000ADEFB4E00E94C70DEDE4F6E00E949C1B45
:101600000E94830D84E690E00E94920E0C94020CDE
:101610000091A405013211F00C94340BADEFB4E04D
:10162000E6EAFCE30E94C819ADEFB4E00E94C70DE2
:10163000EDE4F6E00E949C1BADEFB4E00E94C70D04
:10164000E2EAFCE30E94C819ADEFB4E00E94C70DC6
:10165000EDE4F6E00E949C1B0E94830D84E690E07E
:101660000E94920E0C94020C0091A405013111F01D
:101670000C94600BADEFB4E0E2EBFCE30E94C81900
:10168000ADEFB4E00E94C70DEDE4F6E00E949C1BB4
:10169000ADEFB4E00E94C70DE2EAFCE30E94C81976
:1016A000ADEFB4E00E94C70DEDE4F6E00E949C1B94
:1016B0000E94830D84E690E00E94920E0C94020C2E
:1016C0000091A405003111F00C948C0BADEFB4E047
:1016D000EEEBFCE30E94C819ADEFB4E00E94C70D29
:1016E000EDE4F6E00E949C1BADEFB4E00E94C70D54
:1016F000E2EAFCE30E94C819ADEFB4E00E94C70D16
:10170000EDE4F6E00E949C1B0E94830D84E690E0CD
:101710000E94920E0C94020C0091A405003081E00E
:1017200008F480E08F930091A405093081E010F067
:1017300009F080E09F918923882311F40C94020C16
:101740000091A505003080E010F009F081E08F9352
:101750000091A505043081E008F080E09F91892385
:10176000882311F40C94D10BA5EAB5E08C918F5F1E
:101770008C930091A505023011F00C94C50BA2EBDF
:10178000B5E0E4EAF5E00E949C1B0091A50503305A
:1017900011F00C94D10BA4EBB5E0E4EAF5E00E9463
:1017A0009C1B0091A605003080E010F009F081E05C
:1017B0008F930091A605043081E008F080E09F91AE
:1017C0008923882311F40C94020CA6EAB5E08C91CD
:1017D0008F5F8C930091A605023011F00C94F60BEC
:1017E000A2EBB5E0E4EAF5E00E949C1B0091A6059F
:1017F000033011F00C94020CA4EBB5E0E4EAF5E040
:101800000E949C1B08958BE00E94A10E84E00E9420
:10181000A10EE2EBF5E0A7EAB5E00E94431CE4EB81
:10182000F5E0A7EAB5E00E94C70D0E94431CA7EAB5
:10183000B5E00E94C70DEAECFCE30E94C81981E004
:101840000E94A10E80E00E94DA10A881B9819C93C9
:10185000A881B9810C91003018F011F00C94320C71
:101860000C94420CE0EDFCE30E94150EA0EAB7E0F8
:10187000E881F9810E949C1B0E940D0E0E941C0EA3
:101880000C94480CE8EDFCE30E94150E0E941C0E1F
:10189000A7EAB5E0ECEFFCE30E94701C11F00C9499
:1018A000850CA0EAB7E0E4E0FDE30E94C819A0EAD5
:1018B000B7E0EC81FD810E946112AC81BD810E9484
:1018C0006A1C082F003018F011F00C94690C0C946D
:1018D0007F0CAC81BD810E940F0EEAE0FDE30E9407
:1018E000150E0E941C0EAC81BD810E948F150E94B6
:1018F000EB16EC81FD810E9489120C945D0C80E056
:101900008093A505AC980C94F60CE4E1FDE30E94ED
:10191000150EA7EAB5E00E940F0E0E941C0E83E090
:10192000A7EAB5E00E949711A7EAB5E0EA81FB813A
:101930000E948D12AA81BB810D911D912D913C9128
:1019400046E950E060E070E00E942C0EAA81BB8165
:101950004D935D936D937D93AA81BB810D911D91F4
:101960002D913C9141E050E060E070E00E94701BDE
:10197000AA81BB810D931D932D933D9383E0AA8192
:10198000BB810E94CC118AE0A6EBB5E08F930E9448
:10199000C70D8F918D9388278C938DE0A6EBB5E0D2
:1019A0008F930E94C70D8F918D9388278C9383E02E
:1019B000A6EBB5E00E94D91181E090E00E94920E62
:1019C00083E00E94561283E00E940512A6EBB5E068
:1019D0000E940F0E0E941C0EA0EAB7E0EA81FB8174
:1019E0000E94901B0E940D0E0E941C0E80E1481A5E
:1019F0008827580A2696089584E00E94A10E84E064
:101A00000E94A10EE2EBF5E0A7EAB5E00E94431CBC
:101A1000E4EBF5E0A7EAB5E00E94C70D0E94431C85
:101A2000A7EAB5E00E94C70DEAECFCE30E94C819E2
:101A300081E00E94A10E80E00E94DA10A881B981A5
:101A40009C93A881B9810C91003018F011F00C948E
:101A50002B0D0C943B0DE0EDFCE30E94150EA0EA6B
:101A6000B7E0E881F9810E949C1B0E940D0E0E9444
:101A70001C0E0C94410DE8EDFCE30E94150E0E9433
:101A80001C0EE2E2FDE30E94150EA7EAB5E00E94FB
:101A90000F0E0E941C0E84E0A7EAB5E00E948A1196
:101AA000EAE2FDE30E94150E0E941C0E84E096E916
:101AB000ADEFB4E00E94E61181E090E00E94920E4A
:101AC000ADEFB4E00E940F0E0E941C0E0E94830D29
:101AD00084E00E940E12082F003011F40C94560D71
:101AE00084E00E940512ECE7FAE30E94150E0E94C2
:101AF0001C0EAE9880E08093A60589E0481A8827DE
:101B0000580A26960895ADEFB4E08C91803011F01C
:101B10000C948C0D0C94A20DEDEFF4E0A6EBB5E067
:101B20000E94431C0E94E400ADEFB4E088278C9330
:101B30008AE00E941F0E8DE00E941F0EEEE4F9E382
:101B40000E94150E08958F939F938FB733955395E9
:101B500009F4439597EC92BF9F918FBF8F91189591
:101B6000481A8827580A0895480E8827581E08954D
:101B70000D911D912D913C9181E0080F8827181F30
:101B8000281F381F3C932E931E930E9308958F9316
:101B90008D918823E9F711978F910895A0EAB7E016
:101BA00018D0883091F08D3039F03323C9F38D93FC
:101BB0003A9563FE44D0F4CF63FC04C08DE03FD07F
:101BC0008AE03DD088278C93089539D011973395BA
:101BD000E7CF0F929F93AF93BF937F93809176004F
:101BE0008823E1F3F894809176008A9580937600BB
:101BF00090917400A0E6B0E0A90F0024B01D8C9174
:101C00009395943109F499279093740078947F9177
:101C1000BF91AF919F910F900895A0EAB7E08D9189
:101C2000882311F00CD0FBCF08950E94CD1A802D8F
:101C300011F005D0FACF08958DE001D08AE05D9BC8
:101C4000FECF8CB9089588EE93E06CD03197D9F728
:101C5000089500FC05D0089530D005D001F8F9CFE3
:101C600037D03FD00895842F952FA62FB72FE89413
:101C7000452B462B472B11F468940895402F512F84
:101C8000622F732F0027112722273327F0E2440FFA
:101C9000551F661F771F001F111F221F331F081BB0
:101CA000190B2A0B3B0B416028F4080F191F2A1F40
:101CB0003B1F4E7FFA9559F708950024E89477FF6B
:101CC00002C006D0689400F809D010F801240895E5
:101CD00012D04F5F5F4F6F4F7F4F0895E89437FFEB
:101CE000089500951095209530950F5F1F4F2F4F49
:101CF0003F4F68940895409550956095709508956C
:101D00003197F1F70895BF9ABE98C69ABD9A8CE5AF
:101D10008DB9089508950895689462F80895E89437
:101D200062F80895EF93FF93EE27E82BE92B31F04B
:101D3000E3E3F7E03197F1F70197D1F7FF91EF91E6
:101D400008955A924A92480E8827581E08958DE2A7
:101D500007FD8D938F2D881F802F881F8F57082F89
:101D60006894F7F8802F87FF15C080958395082F1A
:101D700080E38D938EE28D93802F815228F080E353
:101D80008D9399279C93089544270A95802F09F1F4
:101D900096D01FC0805230F09EE49D9381E48D93D5
:101DA0009D93EFCF4427DF92EF92FF920F938FE145
:101DB000801B11F0082F83D089D09EE29D930F9154
:101DC000FF90EF90DF9044270395003209F4D7CFBE
:101DD0002BD03F93EEE5FEE138E12F2D1E2D0D2D8A
:101DE000FF24EE24DD244427000F111F221FA8F436
:101DF0002F923F920E94CD1A102C0E94CD1A202CB7
:101E00000E94CD1A302C0E94CD1A3197410DD21C60
:101E1000E31CF01C3F902F9001C0339631963A9509
:101E200019F73F9107D0AFCFDD0CEE1CFF1C0A95D0
:101E3000D9F70895002719E058D08F93802B11F01F
:101E4000039501C08F911A95B9F7802F882309F463
:101E500096CF8F91805D8D930A95D9F792CF0065CB
:101E6000CD1D80B2E60E40597307A0ACB90350D621
:101E7000DC01286BEE0094357700CA9A3B0065CDF3
:101E80001D00B2E60E0059730700ACB90300D6DCA2
:101E900001006BEE0000357700009A3B0000CD1D7D
:101EA0000000E60E000073070000B9030000DC012B
:101EB0000000EE000000770000003B000000F694F8
:101EC000E794D79447950A95D1F7089500270DD048
:101ED0008F9303958F2D8E298D29842BC1F78F9198
:101EE000805D8D930A95D9F74CCF1F930F930027F0
:101EF00010E2440FDD1CEE1CFF1C001F802F9AE037
:101F0000890B10F0082F43951A9599F7802F0F91A0
:101F10001F9108950F933F934F935F932F923F929A
:101F20008F939F938FB78F9383B78F93826083BF75
:101F300089B78F93816089BF87EC82BF552744277B
:101F40003327483008F047C0373324F4839BF8CF59
:101F5000F8CF41C04830ECF78399FCCF33273232B9
:101F6000D4F5839BFCCF932F332711272227913160
:101F700010F0969511E0292E2694322C290E990FF7
:101F8000390E113021F0321534F58399FCCF332707
:101F90000CE03215F0F3839909C08894111F221FB9
:101FA0003315CCF4839BFCCF332708C00894111F52
:101FB000221F331584F48399FCCF33270A9549F700
:101FC000912F991F221F991F221F25FB17F926FB0E
:101FD00016F92F7102C01FEF2FEF8F9189BF8F91DC
:101FE00083BF8F918FBF9F918F913F902F905F9173
:101FF0004F913F910F910895C49846D0072F44D038
:10200000062F42D0052F40D0042F3ED01F932F9390
:10201000112725E0E89435D00F3F21F411502040DE
:10202000D1F768942F911F9100230895C49A1AE064
:1020300028D01A95E9F7C49800E426D024D023D0FC
:1020400022D021D005E920D014E6E0DF013021F0D4
:102050001A95D9F791EE79C073C01AE0C49801E4DB
:1020600013D011D010D00FD00ED0D0DF49F068D0EF
:1020700082E390E00E94920E1A9581F792EE65C07D
:102080005FC00FEF01C000270FB9779BFECF0FB1E4
:10209000089544275D916D917D91550F661F771FBF
:1020A000089545D0F6DF01E5A7DF11F093EE4DC0AE
:1020B000ADDF0E3F11F095EE48C092E08827E1DFDA
:1020C00001930197E1F7DDDFDCDF3AC030D0E1DFDB
:1020D00008E592DF11F094EE38C0D3DF0EEFD4DFC5
:1020E00092E088270191D0DF0197E1F7CADFC9DFCD
:1020F000C8DF0F7100937A0011272FEF31D0C1DFB5
:10210000002329F411502040C9F796EE1EC018C0D4
:102110000E94830E0CD08ADF08F408959ECF07D06A
:1021200085CF05D081E00EC002D098EE13C099276C
:102130008894909377009093790090937800089515
:10214000C49A9FDF99278894089504D0C49A99DF90
:102150000894089590937700009379000894089567
:1021600099E19A95F1F70895EFE7F0E0ACE6B4E075
:10217000992791931197E9F70895E894843059F0DD
:10218000863049F0803039F068948B3021F08C3003
:1021900011F093E14FC30090810000F8009281009C
:1021A00088940895EFECF2E0CCD245555A4A09F4F0
:1021B000089540C38A93D8DF74D3C0F091E1F2DF71
:1021C000A8F088818823F9F0EFE8F2E08A9511F011
:1021D0007096FCCF80818F7721F434968081CDDF9B
:1021E00038F48881823078F093E124C3219622C3A9
:1021F000809380003496ACECB0E0BDD252D388F32B
:1022000092E1D0DF98F38991ECEDF0E09AD2405062
:10221000524094E1F9F4AFEDB0E090D2ACECB0E014
:1022200063D259D2A2E8B0E073D2A7EEB0E084D274
:102230004050504019F4A5EFB0E060D2E7E8F0E07C
:1022400071D28091E1008093860096E1882311F09D
:10225000833008F0EFC241D281FD3FD2ABE8B0E05D
:1022600057D2A2EEB0E06AD2AFE8B0E06DD284E01F
:1022700078D231D2A1E9B0E04BD2ACECB0E03ED2A2
:102280000E94751B64D2E4EEF0E051D20050104081
:1022900019F4E1EFF0E02DD20E94751B8091DE0071
:1022A0008093950095E18823A9F28695F0F791F641
:1022B00057D10BD2A6E9B0E02BD20090810000FAF2
:1022C00080918000882379F4E89486E00F5F164FB0
:1022D0002040304010F068948BE88093800099276C
:1022E00090F9909381003EF4ADEFB0E0FDD14DD177
:1022F000ABE8B0E00DD282E080939A00ABE8B0E0AA
:10230000F3D1A2EAB0E004D2A8EAB0E001D29AC2C6
:10231000B3D448F004D431F48F9391E0BFD48F91BB
:1023200010F090C28BC288270895A6D4D8F0F7D3B6
:10233000D1F48F9398E0B2D48F9120F4923481F449
:1023400098E023C0FA93EA93908D95FD07C030D2B0
:102350008F9398940E9476188F9108F072C22296FB
:102360008827089408956AC287D468F0D8D349F4BE
:102370008F9390E293D48F9138F4923419F490E2D1
:1023800004C05CC20894882708958F93E1D48F918C
:1023900008F058C2882708955DD450F090E263D6C3
:1023A00038F0FA93EA93A0D1A0D608F04AC250C2FE
:1023B000089550D450F0FA93EA930E94CF1820F079
:1023C0000E94DC1808F03DC243C208959F9342D496
:1023D0009F91D0F0FA93EA939F93BF93AF9387D4E2
:1023E000AF91BF919F9158F08D30B1F38A3029F0B1
:1023F000992391F38D939A95EFCF8894992780E054
:102400008C938FB722968FBF089524D430F0FA931F
:10241000EA933BD408F015C21BC208951BD428F0E0
:10242000808D827009F08FEF0DC28FEF089548E024
:1024300005C044E003C042E001C041E055270AD492
:10244000A8F090E210D690F0FA93EA9356F45F93D6
:102450004F93BF93AF9349D6AF91BF914F915F9187
:1024600020F00E942E1908F0ECC1F2C1089548E056
:1024700005C044E003C042E001C041E05527EAD373
:10248000A0F090E2F0D588F0FA93EA9356F45F93C7
:102490004F93BF93AF9329D6AF91BF914F915F9167
:1024A00018F093D608F0CDC1D3C10895D3D340F02E
:1024B000FA93EA9381E0D2D15BD508F0C2C1C8C1DA
:1024C0000895FF93EF932BD34FD258F0FF93EF93E0
:1024D000EEEBF0E0ACEAB0E08CE04ED1EF91FF9192
:1024E0008894AF91BF9130F488278C93923409F48B
:1024F000A9C1089544D30E94531C11978EE28D9375
:1025000044D30E94531CEAECF0E0A8EBB0E086E074
:1025100033C1FF93EF93EAD2E4CFFF93EF9321D23D
:1025200003C0FF93EF93CCD2AF91BF9118F4C8D002
:10253000EFD0089542C3802FC8D090919100891B9D
:10254000982F8395892790919500892311F4889479
:102550000895C5D005D02ED008F4089516D0F7CF31
:10256000E1E9F0E0D0D00E94751B72F080919500F7
:1025700080FD06C036952795179507958695F8CF67
:102580000E5F1F4F2F4F3F4F0895809195000250CF
:1025900010402040304080FD06C0000F111F221F58
:1025A000331F8695F8CFE1E9F0E0ADD00C94701BB5
:1025B0000BD1D6DFA2E8B0E0A1D00090810000FEF0
:1025C00004C0000F111F221F331F0F93012F122F62
:1025D000232F33270E94701B69D18F91E8F0009060
:1025E000810000FA9927880F991FE80FF91F222709
:1025F00033270191119136F4219131913F70329737
:102600006FEF7FE0329748EF5FEF0417150716F47E
:102610002607370710F091E20DC114C151D002E036
:10262000A02E442755276627772704C0AAE9B0E0E3
:102630005BD0AA243F932F931F930F937F936F93A5
:102640005F934F93AF92B6DFAF904F915F916F91D1
:102650007F910F911F912F913F91A6E9B0E0CD900E
:10266000DD90ED90FD9010F4913249F5C016D10641
:10267000E206F30618F199278191982B8191982B06
:102680002EF48191982B81918F70982B31F4A1FEBB
:102690000EC04F5F5F4F6F4F7F4F802F912F15D030
:1026A0009127969516F48027880F00F7C3CF3297AD
:1026B0000EF43297AAE9B0E02BD0C4C092E2BAC0BF
:1026C000002711272227332708950F5F1F4F2F4F11
:1026D0003F4F08955527662777270C94701B0150AC
:1026E00010402040304008950D911D912D913D9155
:1026F0000895019111912191319108954D915D912C
:102700006D917D91089541915191619171910895DB
:102710000D931D932D933D93089501931193219350
:1027200031930895419351936193719308952227B2
:102730003327019111910895662777274D915D9177
:1027400008954191519108954D935D930895402FBF
:10275000512F622F732F08950050104020403040B9
:102760000895569547958A95E1F70895440F551FAA
:102770008A95E1F7089584E09F9391919D938A95BE
:10278000E1F79F910895E881F9810895A881B981C1
:1027900018960895E881F9813C960895E881F981B9
:1027A0003896BBCFE881F9813896A3CFF3DFB5CF58
:1027B000F1DF9FCFEFDFA7CFA881B9811C960895E5
:1027C000E881F98174960895FBDF93CFE881F98160
:1027D000808D0895E881F98170960895FBDF89CF97
:1027E000F9DF91CFF7DF99CF0090810000FA8FEFEA
:1027F000819381931EF481938FE0819342C0009076
:10280000810000FA0193119316F42193319339C09A
:10281000E881F98179960895D3DF7FCFA881B981C6
:10282000549608950F900F900F900F900F900F9067
:1028300008952296089490937F000895882799E43C
:10284000F9CF2296889490E0F6CF22968894089546
:1028500022960894089580EA01C084E8E881F9810D
:102860009F93908D892B808F9F910895E881F981A6
:102870009F93908D80958923808F9F91089588E004
:10288000EDCF8091D00088608093D00008950E94A1
:10289000511008F0D7CFCECF0E94661008F0D2CFEB
:1028A000C9CFACECB0E0E1EDF0E0F1CF80E1ACEC11
:1028B000B0E006C080E0ACECB0E002C0AFDF80E882
:1028C0001DDF0E947A1B31F4E8941196EA2FFB2F4A
:1028D0001597BCCF9D91EA2FFB2F792F777E872B01
:1028E0008E93149793FF18C00F931F932F933F93CA
:1028F0009F93AF93BF93D0DFBF91AF919F91A8F00B
:1029000094FF06C0AF93BF939BD3BF91AF9168F084
:102910003F912F911F910F91FBDED7DFEF93FF9334
:10292000B6DFFF91EF91689408957ECF4FDF8670F8
:10293000B1F454DF00271E7F442752E0CCDE52DF83
:1029400045DF867061F440DFF6DD20F067DFB6DF3B
:1029500038F080C2913221F480DF91E26BCF91E0B8
:1029600069CFDDD009F06BCFFA93EA93A4D008F4D5
:102970006FCF83858F3099F0827C89F480818E328D
:1029800071F0853E61F08030D1F0A881B9819C91D1
:102990009F3311F0981303C07BE0B4D0A1F0B09640
:1029A00081E0480F25F78827581F5F934F930FD07A
:1029B00008F080DF4F915F91D0F6903C08F492E4EC
:1029C000E991F99137CFAAECB0E0BEDE3ACF0090A2
:1029D000810000FC19C0A2EAB0E086DEABE8B0E0FE
:1029E0005F934F938BDE0E947A1B4F915F9161F44E
:1029F000AFE8B0E06D917D914617570710F091E375
:102A000019CF0FD062DE1ECF0CD03F932F931F93B0
:102A10000F9391DD08F008CF0F911F912F913F91F7
:102A20000895ACECB0E060CE4ED0E0F18081853E00
:102A300081F1803071F1B09681E0480FBDF78827B1
:102A4000581F5F934F93C3DF08F034DF4F915F91BE
:102A500068F7913239F55F934F9382DD3F932F935F
:102A60001F930F93E3DDF8F0BFDE71DE0F911F912E
:102A70002F913F917F936F935F934F939BDD0F91C6
:102A80001F912F913F9180F4913281F4B8DE96D25C
:102A9000DDCFAAECB0E058DE27DEA6EAB0E054DED7
:102AA00037DED0CEC7CEBECE93E2C4DEBFCEA88185
:102AB000B98112960AC044275527A2EAB0E006C0A1
:102AC000A8EBB0E002C0A6EAB0E038DE0DDE5A9313
:102AD0004A93F0DE50F048814F70552785E046DE7E
:102AE000E40FF51F49915991ADCEB2CEA8EBB0E0FD
:102AF000ECDFFF93EF93ECEAF0E0FA93EA93EF91C7
:102B0000FF914DCFFF93EF9381919D919F3311F0F2
:102B1000891711F47A95C1F7EF91FF910895EEEBC3
:102B2000F0E08F93E89499277BE0AEF08D918A32A4
:102B300019F48FE368940FC08E3239F4733011F4B6
:102B4000E894F3CF80E2689406C0803011F480E20C
:102B50000CC00E94E01A81938F3309F4939574306E
:102B600009F4E8947A9509F704C080E281937A9594
:102B7000E9F780E081933C9799238F91089588E04D
:102B8000FBDD389788278D930895389683E0F4DD30
:102B90003B9788278D930895928D9D93938D9D9358
:102BA0000090810000FE05C094899D9395899D93B6
:102BB000089599279D939D9308957C96DCDDB097A9
:102BC0000895882311F49AE435CE31E0E1EDF2E086
:102BD000E8942081222329F4AEF0EE2EFF2E689493
:102BE00011C0281749F1EF93FF938F933296AAEC07
:102BF000B0E0B0D38F91FF91EF9121F411811923AF
:102C000010FF1CC03A9519F0E65EFD4FE2CFC6F406
:102C1000EE2DFF2D18D080839183EF93FF938F9338
:102C200086E03296AE2FBF2FEAECF0E086E0A4DD1E
:102C30008F91FF91EF9106CE95E4FCCD96E4FACD0D
:102C400094E4F8CDA0DD09E1002401920A95E9F7AA
:102C500079970895882369F071E0E1EDF2E09081C1
:102C6000981749F07A9519F0E65EFD4FF8CF93E496
:102C7000E1CD9AE4DFCD089580E8ECDF28F083957C
:102C8000E1F791E48827D6CDDDCD7DDD02C0E2DF1E
:102C900020F081E0E3DD6CD1D5CF08958F939F9331
:102CA00063DE7F918F91E8F0972F6385692760FF3E
:102CB00003C0692760FD18C0FF93EF9382DFFA938A
:102CC000EA93EF91FF9168F077DD77DF5FDD64DFF6
:102CD00069DD42DD39F059DCF1DD40F0BBD076DD55
:102CE000B4CD0895B8DDFBCF98E4A4CDB1CDE88193
:102CF000F9819181917251F1E881F981808D81FD95
:102D000023C07096F6DC912F802FDFDC349705DD31
:102D1000E881F9813C96F7DC0E947A1B30F0389606
:102D2000708172607193112704C0E881F9817996EE
:102D300019279170E80FF91F8081169521F08F9364
:102D4000FFDD8F9108957ECD91E074CD92E672CD36
:102D5000FF93EF938F939F9311C0FF93EF938F9304
:102D60009F9339D058F4923451F508C0FF93EF93F4
:102D70008F939F93F9DD08F5923409F555DE00F144
:102D800021D09F918F91FF93EF931BDFAF91BF9164
:102D9000C0F0FA93EA93EF91FF919F938BE0ECDC04
:102DA0009F91917090629D9312969CD214969AD2A4
:102DB00068DD51DDE991F99145CD92E33BDD089461
:102DC00033CD34CD85EE819388279FE181939A9509
:102DD000E9F7B097089509F031CDC6DD70F183852C
:102DE0008F7D11F093E326CDFF93EF9356D0EF91B3
:102DF000FF9118F1FF93EF9321D0EF91FF9185EEB2
:102E000080833FDD22273327028D138D00908100C0
:102E100000FE02C0248935899FDC69F015D0CADB29
:102E200080E08193819316F4819381932ADDB0F73A
:102E3000913211F4EAC0FAC008940895EAECF0E087
:102E4000A6EAB0E086E084C2E0E1FF27AAE9B0E0AC
:102E500084E07EC2ADDCC4DC0E947A1BC2F0C9F003
:102E60003EDC732761F4622751F45127569539F4FB
:102E70009FDCB6DC0E94751B84E0F0DCE3CC00E054
:102E800012E086E0F3DCDECC84E0E8DCDBCC91E62B
:102E900001C091E086E0E2DCCDCC71E0E1EDF2E052
:102EA0008081882351F0FF93EF933296AAECB0E033
:102EB00086E050D2EF91FF9129F07A9529F0E65EF5
:102EC000FD4FEECF97E4B6CCBDCC7EDC34DB28F0F2
:102ED0007DDC81FFF3CCA0DC8FC09132F9F4A6DB5E
:102EE000E8F08FEF819381930090810000FE03C092
:102EF00081938FE08193C5DC0F931F932F933F93B2
:102F000057DB3F912F911F910F9130F4913221F4B3
:102F100099DC75DC3ADBDCCF93E28CCC089586DB60
:102F200030F18FEF819381930090810000FE03C008
:102F300081938FE08193A5DC3F932F931F930F9391
:102F40002DDCB5DD0F911F912F913F9180F0028F05
:102F5000138F0090810000FE02C0248B358B91DC22
:102F600014DB5ADCADDB3EDC80E280DC8894089523
:102F70002DDC83FF09C024DCAE2FBF2F3496808167
:102F8000877F819389DCC0F021DC86FF16C087FF34
:102F900002C080FF12C08BDD78F0AE2FBF2F1B96D2
:102FA0008C9180628C93519681E460DC01DCB0DB13
:102FB0001A9798D166DC3AC0089544CCE6DA80913D
:102FC00095008F9377DC18F018D05BDC88948F9194
:102FD00090F08A9529F0ECECF0E08BDB76DBF1CF1A
:102FE000409195004A9531F0ECECF0E082DB041B57
:102FF00077DB60CC27CC08950BDC772792E080E06C
:1030000071930197E9F7F2501DCC80E1ACECB0E090
:10301000E0EDF0E0908193FF08958193BF93AF932B
:103020003BDCAF91BF9108F408950AC080E0ACEC9E
:10303000B0E0E0EDF0E0908193FF089581932CCC17
:10304000E6E8F0E0819181FF08955DDB4DDBEA2F3A
:10305000FB2F31960E94701BAEE9B0E059DB14974C
:103060001BCCE881F981092E9181902111F088947F
:10307000089592E6DFCBE881F98191819A7279F126
:10308000E881F9818F93908D95FF06C048DF48F164
:10309000B3DFE881F981908D70962BDBF12EE02E65
:1030A00014DB34973ADBE881F9813C962CDB40173E
:1030B00051076207730718F434972FDB92641F25BA
:1030C0009860E881F981789691939F2D9170EE0D2B
:1030D000F91F8F918193169531F04ADFF6CE92E673
:1030E000A9CB8F91089588940895F9DA332312F4C7
:1030F00093E6A0CB19F46ADB85FDA4CB5BDB0E94D1
:103100007A1BC1F1A8F53F932F931F930F938FD094
:103110005C2D6D2D7E2D4F9361DB89D055DB7F9328
:103120006F935F931DDA5F916F917F915C156D05D1
:103130007E0528F089F05C196D097E0901C032DB3B
:1031400051506040704040F07F936F935F9332DA4C
:103150005F916F917F91A0F718DA4F91BBDAAEDBE8
:10316000C8F00F911F912F913F913CDB73DE6ACB2A
:1031700091E660CB002339F6812F817021F6AFDA1A
:10318000B5DF40F02BDBA1DA2DDB9FDE20F49130A0
:1031900011F0089408951ADB81FD2ECF53CBBF9315
:1031A000AF93442755278D91882319F04F5F5F4FC8
:1031B000D1F7AF91BF914FC08DE05DDF10F08AE095
:1031C0005ACF089591E24DDF70F100DB81FD2CC0F4
:1031D0005F934F9375D04F915F9130F166277727BA
:1031E0000E947A1B10F4402F512F61D04150504063
:1031F000B8F00F3F81F410FF0EC0F4DABF93AF9325
:103200005F934F9379DD4F915F91AF91BF9158F0EC
:10321000E5DAFEDA03C00F5F1F4F81918D93E6CF91
:10322000E1DA4ED00FCB089518DB91E003CB80910B
:103230009500369527951795412F90E0869530F0AB
:103240003695279517950894991FF8CFC12ED22E41
:10325000E32E492308959AE204DF40F128D041503B
:103260005040B8F08D9195FD04C00F3F71F410FFF0
:103270000CC0B8DABF93AF935F934F9301DF4F91C8
:103280005F91AF91BF9190F0E9CF81930F5F1F4F96
:10329000E6CFF5DA8FDA401751076207730718F4A3
:1032A00085DA80E4DBDA9EDA0BD0CCCA08956BDADB
:1032B000908D94DAADDA712F7170E00FF71F0895D9
:1032C000E881F981808D74DA8BDA5DDA0E94751BF2
:1032D00028F021F08D7F808F889408958660808FFC
:1032E0000894089581E0AA24BB24C82ED82EE82E85
:1032F000F82ECC0CCC0CCC0C8827B6948795B694C1
:1033000087958A29B6948795BC288D93BD9284E1D0
:103310008F0DE294EE0C881FED28ED928D930895A9
:10332000A6E9B0E0E1D90150104020403040809142
:10333000950080FD08C081FD0AC0000F111F221FEB
:10334000331F8695F8CF36952795179507957ACA36
:10335000689401C0E894FA93EA93BA93AA93082E6A
:103360008817CFB6A190BD90CFBEAB04CFB68A95DB
:10337000C9F7CFBE46F438F4802DA881B981EA811F
:10338000FB81FAD9CFBEA991B991E991F99108953C
:103390000E94CD1A0D920020D9F70895369A3699D9
:1033A000FECF369A3699FECF84B195B108959991A2
:1033B0000027A90FB01F1197492F4A955E2F6F2F35
:1033C000E89411274395203019F0C895802D01C04D
:1033D00080818823B9F07C917723A1F0781739F4A4
:1033E0000EF0042F1395689411963196EBCF1123AC
:1033F00021F0411BA11B1127B10BE894E52FF62FFB
:103400001196E0CF882311F0002708950895D190F8
:10341000E190F19001910895219131914191519163
:103420000895102F90E8FF0C001F0927990FF794BB
:103430001078652F90E8440F551F5927990F47952D
:10344000607800380895FF0C90E89027110F979549
:10345000F794092F0895102FBD2CDE2CEF2CF02EA1
:1034600011234AF4B094D094E094F0949FEFB91AE9
:10347000D90AE90AF90A0EE1FF2039F4FE2CED2CF5
:10348000DB2CBB240850C2F766C032F00A95BB0C97
:10349000DD1CEE1CFF1CF9CF01D0D5CFB7FE08957F
:1034A00090E8B91611F4D0FE08959FEFD91AE90AF1
:1034B000F90A09F403950895502F2D2D3E2D4F2D17
:1034C000612F08952DEC3CEC4CEC5DE366270FC0BA
:1034D0009EDFF2DFDD24EE2490E8F92E0FE307C033
:1034E0009BDF05C02227332740E251E4662755239E
:1034F00051F1002381F195DF71F1162700585058E2
:103500000894050B18F407FD03C025C007FD23C070
:10351000469537952795F694E794D79422D0FF20C7
:103520002AF0DD0CEE1CFF1C015073F09D2D9695CA
:1035300048F0DD203AF4EE202AF491E0D90E9927E4
:10354000E91EF91E80CF07C09FE7092FF92A9FEFD8
:10355000D92EE92E0895DD24EE24FF24002711271B
:1035600008959F929924AA24BB2488E1D216E306E9
:10357000F40628F0D21AE30AF40A089401C08894E9
:10358000991CAA1CBB1CDD0CEE1CFF1C8A9571F754
:10359000D92CEA2CFB2C9F900895C89531960020D9
:1035A0000895FBDF202DF9DF302DF7DF402DF5DF0B
:1035B000502D0895819104D08D938823D9F70895D3
:1035C000813618F08B3708F48F7D08957F930F9321
:1035D000AF93BF938F939F938FB78F938091760014
:1035E00004E1081B21F49CB10E948C0E12C00091D2
:1035F0007500A0E6B0E077279CB1A00FB71F9C93A1
:103600008395809376000395043109F40027009395
:1036100075008F918FBF9F918F91BF91AF910F9147
:103620007F9118956FB7F894882793E08D939A95BA
:10363000E9F76FBF089599278D9193958823E1F756
:10364000939511968C9311978E919A95D1F7089531
:10365000EA2FFB2F00244C918D9103948E32E1F7D9
:1036600011248D9113948823E1F71A94101640F4D5
:103670001197202F2119239580E38D932A95E9F73F
:10368000113039F59927AE2FBF2FA00DB91FA00F0C
:10369000B91F8C919C93853308F421C031E08E9141
:1036A0008E32E9F38D3241F0830F8A3319F480E3CF
:1036B00031E001C033278C93AE1789F7332341F0F3
:1036C000AE2FBF2FB8DF81E34D3209F431968083EE
:1036D00008958827E00DF81FE00FF81F80830895F4
:1036E000040F151F261F371F0895041B150B260BEB
:1036F000370B089504171507260737070895000F9D
:10370000111F221F331F08950095109520953095A5
:103710000F5F1F4F2F4F3F4F0895019110810EC033
:1037200001911191219130810BC00191108117FFFE
:1037300005C03FEF2FEF04C0008111272227332758
:1037400037FF03C0E1DF8DE28D93CF93DF93CF92FC
:10375000DF92EF92AA24BB24CC24DD24EE2440E2A5
:10376000CAE0DD2755E093E38881890F87FD9F70CC
:1037700083FD907F891B89935A95A9F7C0DFAA1C06
:10378000BB1CCC1CDD1CEE1C4A9551F7E894EFE005
:10379000FF2782910ED0EB30E0F71EF068948A2D5F
:1037A0000CD088278D93EF90DF90CF90DF91CF9151
:1037B0000895982F829501D0892F8F70805D26F013
:1037C000803309F4089568948D9308950027112794
:1037D000222733271DD08A3328F4803318F005D0F0
:1037E00015D0F9CF0EF490CF089580538F93402FCA
:1037F000512F622F732F83DF82DF72DF80DF8F9183
:103800009927080F191F291F391F08958D910895B1
:10381000E894FCDF8032E9F38B32D9F38930C9F3C5
:103820008D3211F46894F2CF089541E003C042E074
:1038300001C044E0E40F8827F81F829138E098E146
:10384000880F991F9D933A95D1F74A95B1F70C943B
:10385000401C00271127222733278D91882379F0D8
:103860004EDF4DDF4CDF4BDFABDE815408F4895F68
:10387000865F080F8827181F281F381FEECF08956E
:1038800088278D93089581918D938823E1F708957A
:1038900094E081918D939A95E1F70895819180321A
:1038A000E9F3F2CFF0DF11978E918032E9F31196B0
:1038B000E7CFF4DFF8CF09919191992351F08A95E0
:1038C000D9F7319781918D930A9519F08823D1F713
:1038D0000895D6CF8FEF83959D919923E1F70895B1
:1038E000689401C0E894AF93BF938D9116F09191C5
:1038F00003C00E94CD1A902D891718F011F4882367
:10390000A1F7BF91AF910895E89463F80895689482
:1039100063F8089500006B434D696E69426F74202F
:10392000762E3220697320636F6E666967757265E3
:1039300064004156522D444F533A205265616479D8
:1039400020666F7220636F6D6D616E647300636FCC
:103950006D3A20004346434845434B004F4B00001F
:1039600046530000496E20465320436173650000B2
:103970004572726F722061742066696C652073797C
:103980007374656D20696E697400312000004449CC
:10399000534B53495A4500004552524F520045720D
:1039A000726F72207072696E746564004C45444F8A
:1039B0004E00723100007232000067310000673241
:1039C000000057726F6E67204964656E746966699E
:1039D000657200004F6B0000203120004C45444FC1
:1039E00046460000474F000020342000474554520F
:1039F0004335000041646472657373202D2000001C
:103A0000436F6D6D616E64202D20000057726F6EE4
:103A1000672052433520436F64650000524553458B
:103A2000540052656C6F6164696E672E2E2E000023
:103A30004241545445525900426174746572792070
:103A40007374617465202D200000560056455200A5
:103A500056657273696F6E202D20546573742076DD
:103A6000657273696F6E000046524543454956457D
:103A700000007265616479006F6B0000646F6E65B1
:103A8000000020322000465452414E534D4954000C
:103A900066696C653A004D55530046696C65202790
:103AA00000002720646F65736E2774207665726945
:103AB0006669656400002720646F65736E27742053
:103AC000657869737400506C6179696E6720666906
:103AD0006C652000446F6E65000046696C65206E61
:103AE000616D6573706163652069732066696C6CD4
:103AF00065640000436F6D6D616E642027002720B0
:103B00006E6F74207265636F676E697A656400001A
:103B100020002C0024002020202000005E20000037
:103B2000506172616D65746572204572726F7220AA
:103B300000003F200000506172616D657465722065
:103B4000000065787065637465642000205B200068
:103B5000205D202D205B2000205D2000444F53205D
:103B60004572726F723A2000447269766520457220
:103B7000726F723A200044726976652053746174E2
:103B800075733A0044726976652044656275673AD8
:103B9000200046696C652053797374656D3A202066
:103BA000202020202020200046696C652053797356
:103BB00074656D205374617475733A20200046411A
:103BC0005420666972737420536563746F723A206F
:103BD000202020004E756D626572206F6620464180
:103BE00054733A20202020202000536563746F72A4
:103BF0007320706572204641543A20202020200016
:103C0000526F6F7420666972737420536563746FAA
:103C1000723A20202000526F6F7420456E747269D2
:103C200065733A2020202020202020004461746108
:103C300020666972737420536563746F723A202032
:103C40002000536563746F72732070657220436C3B
:103C500075737465723A20004869676865737420EB
:103C6000436C7573746572233A20202020005374CE
:103C700061727420636865636B20436C757374654F
:103C800072232000476F2030202C2030202C203041
:103C9000202C20300000476F2030202C2030202C9A
:103CA0000000202C0000476F2031202C2031202CD8
:103CB0000000476F2031202C2030202C0000476F5F
:103CC0002030202C2031202C00002E626174000056
:103CD0004572726F723A200046696C65737973742D
:103CE000656D207375636365737366756C6C79209D
:103CF000696E697469616C697A65640030302E623E
:103D0000617400002A2E626174002064656C657421
:103D10006564000077726974652066696C653A2095
:103D2000000066696C653A20000062617463683A5D
:023D3000000091
:00000001FF
