:100000000C942A001895000018950000189500001F
:10001000189500001895000018950000189500002C
:10002000189500001895000018950000189500001C
:10003000189500001895000018950000189500000C
:1000400018950000189500001895000018950000FC
:10005000189500008FE58DBFC0E2E8EB4E2E88E0DA
:100060008EBFD8E0F7E05F2EEEEFF7E0A0E6B0E05D
:10007000A89584B7082E877F84BF88E1992781BD22
:1000800091BD88278D933197E9F78FE289B980E098
:1000900080BD88E18AB9662480E081B981E480B9B5
:1000A0000E94450480EF84BB0E948604E2E2F1E0F6
:1000B000A0E6B0E0ED93FC9380E0809367000E949F
:1000C000F904789483E5A8E6B0E08C9387E5A9E687
:1000D000B0E08C9382E4AAE6B0E08C9383E08A934C
:1000E00010E7A8E6B0E00E947D04EEEAFAE00E9484
:1000F0001F0462FAA0EAB7E00E9447058D938827A3
:100100008C930E9417040E942604E8EBFAE00E94F8
:100110001F040E94260484E690E00E9436040C949A
:100120006200010808000000000000000000183C08
:100130003C181800180066662400000000003636DF
:100140007F367F363600187C063C603E1800006320
:1001500033180C6663001C361C6E3B336E00181897
:100160000C000000000030180C0C0C1830000C18AB
:10017000303030180C0000663CFF3C660000001870
:10018000187E18180000000000000018180C00006D
:10019000007E000000000000000000181800603021
:1001A000180C060301001C36636B63361C00181C18
:1001B000181818187E003E6360380C667F003E6396
:1001C000603C60633E00383C36337F3078007F030C
:1001D000033F60633E001C06033F63633E007F6392
:1001E00030180C0C0C003E63633E63633E003E63BC
:1001F000637E60301E0000181800001818000018F8
:1002000018000018180C6030180C1830600000003E
:100210007E00007E0000060C1830180C06003E63BD
:100220003018180018003E637B7B7B031E001C36D1
:10023000637F636363003F66663E66663F003C66BD
:10024000030303663C001F36666666361F007F4662
:10025000161E16467F007F46161E16060F003C66C9
:10026000030373665C006363637F636363003C182E
:10027000181818183C007830303033331E00676689
:10028000361E366667000F06060646667F006377F1
:100290007F7F6B63630063676F7B736363003E63A1
:1002A000636363633E003F66663E06060F003E637F
:1002B000636363733E703F66663E366667003C6606
:1002C0000C1830663C007E7E5A1818183C00636398
:1002D000636363633E006363636363361C0063634D
:1002E000636B6B7F36006363361C36636300666640
:1002F000663C18183C007F6331184C667F003C0C4C
:100300000C0C0C0C3C0003060C18306040003C3018
:10031000303030303C00081C366300000000000024
:100320000000000000FF0C1830000000000000007A
:100330001E303E336E0007063E6666663B000000D8
:100340003E6303633E0038303E3333336E000000BB
:100350003E637F033E003C66061F06060F0000005A
:100360006E33333E301F0706366E66666700180030
:100370001C1818183C00600060606066663C070648
:1003800066361E3667001C18181818183C00000046
:10039000377F6B6B6B0000003B6666666600000093
:1003A0003E6363633E0000003B66663E060F00004E
:1003B0006E33333E307800003B6E06060F000000BF
:1003C0007E033E603F000C0C3F0C0C6C38000000BC
:1003D000333333336E000000636363361C00000068
:1003E000636B6B7F3600000063361C3663000000D1
:1003F0006363637E603F00007E32184C7E0070189D
:10040000180E1818700018181818181818000E1858
:10041000187018180E006E3B00000000000000006D
:100420000000000000000C0A09090F0909000F096B
:1004300001070909070007090907090907000F094A
:100440000101010101000C0A0A0A0A1F11000F092B
:10045000010701090F00492A2A1C2A2A4900060916
:1004600008060809060011111915131111001511BC
:1004700019151311110011090503050911000C0AC2
:100480000A0A0A0A0900111B151511111100111190
:10049000111F111111000E11111111110E001F1158
:1004A0001111111111000F11110F010101000E1195
:1004B000010101110E001F150404040404001111B0
:1004C000111E10110E00040E1515150E0400111149
:1004D0000A040A11110009090909091F1000111164
:1004E00011111E1010001111151515151F001111F5
:1004F000151515151F100302020E12120E00111110
:100500001117191917000101010F11110F000E1118
:10051000101E10110E0009151517151509001E11D2
:10052000111E1412110000000E101E111E000010EA
:100530000E010F110E0000000F110F110F0000002F
:100540001F110101010000000C0A0A1F1100000028
:100550001F0107011F00000015150E1515000000F2
:100560000E110C110E000A1F110701111F000000CF
:1005700015191513110000001109050B11000000D9
:100580001C12121211000000111B151111000000A5
:1005900011111F11110000000E1111110E000000A9
:1005A0001F1111111100FF0000000000000000FFEA
:1005B0000000000000000000FF000000000000003C
:1005C00000FF0000000000000000FF00000000002D
:1005D000000000FF0000000000000000FF0000001D
:1005E0000000000000FF000A1F010F011F00004073
:1005F00000000000000000004000000000000000BB
:10060000004000000000000000004000000000006A
:10061000000000400000000000000000400000005A
:100620000000000000400C0A09090F0909000F0929
:1006300001070909070007090907090907000F0948
:100640000101010101000C0A0A0A0A1F11000F0929
:10065000010701090F00492A2A1C2A2A4900060914
:1006600008060809060011111915131111001511BA
:1006700019151311110011090503050911000C0AC0
:100680000A0A0A0A0900111B15151111110011118E
:10069000111F111111000E11111111110E001F1156
:1006A0001111111111000F11110F010101000E1193
:1006B000010101110E001F150404040404001111AE
:1006C000111E10110E00040E1515150E0400111147
:1006D0000A040A11110009090909091F1000111162
:1006E00011111E1010001111151515151F001111F3
:1006F000151515151F100302020E12120E0011110E
:100700001117191917000101010F11110F000E1116
:10071000101E10110E0009151517151509001E11D0
:10072000111E1412110000000E101E111E000010E8
:100730000E010F110E0000000F110F110F0000002D
:100740001F110101010000000C0A0A1F1100000026
:100750001F0107011F00000015150E1515000000F0
:100760000E110C110E0000001119151311000000DC
:1007700015191513110000001109050B11000000D7
:100780001C12121211000000111B151111000000A3
:1007900011111F11110000000E1111110E000000A7
:1007A0001F111111110000000F11110F01000000A5
:1007B0000E1101110E0000001F15040404000000BA
:1007C00011111E100E000000040E150E0400000092
:1007D000110A040A110000000909091F1000000095
:1007E0001111111E10000000111515151F00000039
:1007F000111115151F10000003020E120E0000004B
:100800001111171917000000010107090700000066
:100810000E111C110E00000009151715090000002B
:100820001E111E1413000A1F110701111F00A0EA58
:10083000B7E08D91882311F00CD0FBCF08950E9472
:100840004305802D11F005D0FACF08958DE001D039
:100850008AE05D9BFECF8CB908953197F1F708953A
:10086000689462F80895E89462F80895EF93FF930E
:10087000EE27E82BE92B31F0E3E3F7E03197F1F7CE
:100880000197D1F7FF91EF910895A99AA89AA1989D
:10089000A0980895689446BF8F939F9388279927BF
:1008A000019621F046B747FFFBCFE8949F918F91C7
:1008B00062F8089544EAEECF44E946BF46B747FDE3
:1008C000FDCF089513B944E8E5DF8F939F93882700
:1008D0009927019669F041B1487F483FD1F3E894E8
:1008E000483139F0483229F0403419F0403509F0E8
:1008F00068949F918F9162F80895DCDF1E7FE2DF9C
:1009000089911D91DFDF8A95E1F7D6CFAC9885E01C
:1009100099270E943604AC9AAD9AAE9AAF9A81E0BC
:100920003ED081E13CD081E23AD085E238D08FE3FD
:1009300024D089E234D083E032D088E299270E9423
:1009400036048AE32CD082E018D08DE228D0E6E687
:10095000F9E014E10E944305802D0FD01A95D1F7DC
:100960008CE21DD0089500020406090B0D0F000251
:100970000406090B0D0F00040B0FAD98AF98AE9A4B
:10098000AF9A2F9328E0881F10F4AE9A01C0AE985A
:10099000AF98AF9A2A95B9F7AD9A2F910895AD986F
:1009A000AF98AE98EDCF8AE2FADF8991E6DF8991C0
:1009B000E4DF8BE2F4DF8991E0DF8991DEDF8CE216
:1009C000EECF8981482F8A938C818A93481B439567
:1009D0008C81082F8A938F818A93081B0395E3DF0C
:1009E0000E944B058881C9DF41505040D9F72596B8
:1009F000089588278A938A9381E68A9383E48A9369
:100A00008FEF8A93DECFEF93FF93E0916000F09138
:100A1000610020906400309065000E944305202D05
:100A20000E944305302D0E944305002D0A93319604
:100A30008052482F0E944B05E40FF51F08E0422F1B
:100A40000E944B0580916200480F4A954A938A9311
:100A500080916300082F030F00936300380F3A95CD
:100A60003A938A93A0DF49910E94430508E00694D7
:100A7000832D08F4822D81DF0A95C9F74A95A1F7E5
:100A8000FF91EF910895C89531960020089580E375
:100A90000EF483950895FF935527F8E0469508F4E2
:100AA000500F57954795FA95D1F7FF9108954572E4
:100AB000726F72203A2000002D2D73656E6465649C
:020AC000000034
:00000001FF
