:100000000C942A00189500000C940001189500002B
:10001000189500000C9478021895000018950000BF
:100020001895000018950000189500000C941B0608
:10003000189500000C94AF01189500001895000069
:1000400018950000189500001895000018950000FC
:10005000189500008FE58DBFC0E2E8EB4E2E88E0DA
:100060008EBFD8E0F7E05F2EEEEFF7E0A0E6B0E05D
:10007000A89584B7082E877F84BF88E1992781BD22
:1000800091BD88278D933197E9F783E089B980E0A6
:1000900080BD88E18AB966248D9A8C9A81EA8FBDE9
:1000A00081E08EBDA29AA39A8C9A8D9AA49AA59A61
:1000B000A69AA79A8A98BA98D298D698D19AD99897
:1000C0008F9A979885B7837F886085BF8BB7806844
:1000D0008BBF84E085BD89B7806489BF579A80E073
:1000E0008093A80082E08093AC00AF9A789488EC6B
:1000F00090E00E944F06ADEBB0E0EEE4FFE00E941E
:10010000D606EDEBF0E0FA93EA930E94D005229632
:10011000ADEBB0E0E2E6FFE00E94D606EDEBF0E0EA
:10012000FA93EA930E94D00522960091A80002302B
:1001300011F00C94AA008BB78F778BBF8CE0809363
:10014000A0000E9420048BB780688BBF0E94EA0247
:100150000C94FE00033011F00C94BD008BB78F7728
:100160008BBF8CE08093A0000E9420048BB7806836
:100170008BBF0E9469030C94FE00013011F00C94B7
:10018000DF008BB78F778BBF8BE38093A0000E943B
:1001900020048BB780688BBFADEBB0E0ECE6FFE0EE
:1001A0000E94D606EDEBF0E0FA93EA930E94D005A8
:1001B00022960E9479030C94D9000C94FE008BB710
:1001C0008F778BBF8CE08093A0000E94200481E099
:1001D0008093A8008BB780688BBFADEBB0E0EAE7F7
:1001E000FFE00E94D606EDEBF0E0FA93EA930E945E
:1001F000D00522960E9479030C94FA000C94950085
:100200000F921F922F923F924F925F927F92AF92E6
:10021000BF920F931F932F933F934F935F936F93CF
:100220007F938F939F93AF93BF93CF93DF93EF937E
:10023000FF938FB78F938BB78F778BBF80E08093BF
:10024000A90078940E946406AFE9B0E02C93A0EA7C
:10025000B0E01C93789400919F00003081E009F099
:1002600080E08F930091A0000F3F81E009F480E0CF
:100270009F918923882311F40C948501A0EAB0E0B2
:100280008C918F778C93ADEBB0E0EAE8FFE00E94B1
:10029000D606ADEBB0E00E943706E0EAF0E00E943F
:1002A0000207EDEBF0E0FA93EA930E94D005229664
:1002B0004091AA000091A000041711F00C9467016E
:1002C000ABEAB0E08C918F5F8C930C946E0180E070
:1002D0008093AB008091A0008093AA00ADEBB0E0CA
:1002E000E8E9FFE00E94D606ADEBB0E00E943706D9
:1002F000EBEAF0E00E940207EDEBF0E0FA93EA93FC
:100300000E94D00522960E9420048AB780688ABF86
:100310008BB780688BBF0091AD00013011F00C9459
:1003200093010C9488008F918FBFFF91EF91DF9123
:10033000CF91BF91AF919F918F917F916F915F917D
:100340004F913F912F911F910F91BF90AF907F9050
:100350005F904F903F902F901F900F9018950F92A5
:100360001F922F923F924F925F927F92AF92BF92D5
:100370000F931F932F933F934F935F936F937F93AD
:100380008F939F93AF93BF93CF93DF93EF93FF939D
:100390008FB78F9385B390E2892785BB0E943E0675
:1003A000A3E9B0E08C93009193000D3081E009F453
:1003B00080E08F93009193000A3081E009F480E09F
:1003C0009F918923882311F40C94F401A3E9B0E0F0
:1003D0008C91A0E6B0E08F930E9437068F918D93A9
:1003E00088278C930C945C0284E30E945E0682E072
:1003F000E0E6F0E001E00A93A981BA810E947E075D
:10040000A881B981E0EAFFE00E9493070FB684E378
:10041000481A8827580A22960FBE11F00C945802E9
:1004200081E0E0E6F0E001E00A93A4E9B0E00E9498
:100430007E0780E0A4E9B0E08F930E9437068F9199
:100440008D9388278C93A4E9B0E00E944C07ACEB15
:10045000B0E00C93A0E6B0E00E948D07082F42E0C8
:10046000041BA3E9B0E00C9383E0E0E6F0E0009128
:1004700093000A93A4E9B0E00E947E0780E0A4E91B
:10048000B0E08F930E9437068F918D9388278C93CD
:10049000A4E9B0E00E944C07ACEBB0E0AD90BB2407
:1004A000ACEAB0E0AA0CBB1CAA0DBB1D0D931C93BB
:1004B000A0E6B0E088278C938F918FBFFF91EF91DA
:1004C000DF91CF91BF91AF919F918F917F916F916C
:1004D0005F914F913F912F911F910F91BF90AF90DE
:1004E0007F905F904F903F902F901F900F901895A6
:1004F0000F921F922F923F924F925F927F92AF92F4
:10050000BF920F931F932F933F934F935F936F93DC
:100510007F938F939F93AF93BF93CF93DF93EF938B
:10052000FF938FB78F930091A900083710F00C94B8
:10053000A102A9EAB0E08C918F5F8C93AC9A0C94E5
:10054000CE02AC980091A800013011F00C94CE02BC
:100550008BB78F778BBF0091AC00003011F00C94FB
:10056000B60280E28093A0000C94C602013011F024
:100570000C94BF0281E28093A0000C94C60202306A
:1005800011F00C94C6028BE38093A0000E9420041B
:1005900080E08093AB008BB780688BBF8F918FBF5B
:1005A000FF91EF91DF91CF91BF91AF919F918F918B
:1005B0007F916F915F914F913F912F911F910F917B
:1005C000BF90AF907F905F904F903F902F901F9083
:1005D0000F901895ADEBB0E0E2EAFFE00E94D6067E
:1005E000EDEBF0E0FA93EA930E94D005229682E0C8
:1005F0000E945E0682E38093F0000091F0000F3FBE
:1006000018F011F00C944703AA98AB98A0EFB0E053
:100610000D9111274AE050E0040F151FA881B98100
:100620000D931C93A881B9818D919C919093490061
:1006300080934800A0EFB0E00D9111274AE050E010
:10064000041B150BA881B9810D931C93A881B98156
:100650008D919C9190934B0080934A005A924A92BC
:1006600082E390E0A42DB52D8D939C9382E00E94AF
:100670002C060E944F03229682E00E942806A0EFDB
:10068000B0E08C91865F8C9310F40C94FD020C9476
:10069000FA0282E0481A8827580A22960895A8810B
:1006A000B9810D911C91003050E0150718F011F040
:1006B0000C945C030C94680384E190E00E944F0664
:1006C0000E947903A881B9810E9430060C944F03DF
:1006D0000895ADEBB0E0ECEAFFE00E94D606EDEB4A
:1006E000F0E0FA93EA930E94D00522960C947603E8
:1006F00008950091A800013011F00C94AB0300277D
:10070000A9E3B0E08C9182FB0EF401E040E0041715
:1007100081E009F080E08F930027A9E3B0E08C919D
:1007200086FB0EF401E040E0041781E009F080E070
:100730009F91892B882311F40C94A9038BB78F7791
:100740008BBF8BE38093A0000E9420048BB780684E
:100750008BBF0C941F040027A9E3B0E08C9182FBAF
:100760000EF401E040E0041781E009F080E08F938F
:100770000027A9E3B0E08C9186FB0EF401E040E095
:10078000041781E009F080E09F918923882311F408
:100790000C94E303AA9AAB9A8FEF90E090934900F0
:1007A000809348008FEF90E090934B0080934A0035
:1007B00084EF91E00E944F06AA9884EF91E00E9496
:1007C0004F060C941F040027A9E3B0E08C9182FB34
:1007D0000EF401E040E0041711F00C940104AA9A11
:1007E000AB988FEF90E090934900809348008FEF93
:1007F00090E090934B0080934A0084EF91E00E9438
:100800004F060027A9E3B0E08C9186FB0EF401E0CF
:1008100040E0041711F00C941F04AA98AB9A8FEFD4
:1008200090E090934900809348008FEF90E0909380
:100830004B0080934A0084EF91E00E944F06089598
:1008400080E08093AD000091A000003211F00C9484
:100850003F04AA98AB9884EB90E090934900809372
:10086000480084EB90E090934B0080934A0080E036
:100870008093AC0081E08093A8000C94CF050132F6
:1008800011F00C945904AA9AAB9A84EB90E09093DF
:1008900049008093480084EB90E090934B00809354
:1008A0004A0081E08093AC0081E08093A8000C9422
:1008B000CF05013111F00C94C6040091AB0000305B
:1008C00081E008F480E08F930091AB00033081E079
:1008D00010F009F080E09F918923882311F40C9493
:1008E0007F0484EB90E0909349008093480080E07F
:1008F00090E090934B0080934A000C94C1040091C7
:10090000AB00033081E008F480E08F930091AB00EE
:10091000053081E010F009F080E09F918923882361
:1009200011F40C94A10486EE90E09093490080931A
:10093000480080E090E090934B0080934A000C9434
:10094000C1040091AB00063081E008F480E08F9391
:100950000091AB000F3F81E010F009F080E09F9123
:100960008923882311F40C94C1048FEF90E09093B5
:1009700049008093480080E090E090934B00809382
:100980004A0081E08093A8000C94CF05003111F05B
:100990000C9433050091AB00003081E008F480E056
:1009A0008F930091AB00033081E010F009F080E0FC
:1009B0009F918923882311F40C94EC0480E090E04B
:1009C000909349008093480084EB90E090934B0013
:1009D00080934A000C942E050091AB00033081E017
:1009E00008F480E08F930091AB00053081E010F0B7
:1009F00009F080E09F918923882311F40C940E055F
:100A000080E090E0909349008093480086EE90E06B
:100A100090934B0080934A000C942E050091AB00FC
:100A2000063081E008F480E08F930091AB000F3F27
:100A300081E010F009F080E09F918923882311F470
:100A40000C942E0580E090E090934900809348003C
:100A50008FEF90E090934B0080934A0081E0809369
:100A6000A8000C94CF050B3311F00C944D05AA98F7
:100A7000AB9880E090E0909349008093480080E03C
:100A800090E090934B0080934A0082E08093AC000A
:100A900081E08093A8000C94CF050C3011F00C94E9
:100AA0006A05AA98AB9880E090E090934900809303
:100AB000480080E090E090934B0080934A0080E0F3
:100AC0008093A80082E08093AC0081E08093AD0029
:100AD0000C94CF05013011F00C9470050C94CF05E7
:100AE000023011F00C947C0582E08093A80081E034
:100AF0008093AD000C94CF05033011F00C94880561
:100B000083E08093A80081E08093AD000C94CF0532
:100B1000073311F00C9492058BB392E089278BBBBD
:100B20000C94CF050F3311F00C94A505ADEBB0E09C
:100B3000ECEBFFE00E94D606EDEBF0E0FA93EA93CF
:100B40000E94D00522960C94CF05083311F00C9426
:100B5000B805ADEBB0E0E0ECFFE00E94D606EDEBAF
:100B6000F0E0FA93EA930E94D00522960C94CF0508
:100B7000063211F00C94CF05AEEAB0E00D911C9155
:100B8000043650E0150718F011F00C94C9050C94C8
:100B9000CD0585B390E4892785BB0C94CF050895D6
:100BA00081E00E945E0681E00E945E0682E00E9473
:100BB0005E065498AE81BF810E948D07AA81BB81D9
:100BC0008C9381E0AC81BD818C93AA81BB814C91D7
:100BD000AC81BD810C91041718F011F00C9409063A
:100BE0005D9BFECFAC81BD818C91EE81FF8101E0E8
:100BF0000A93A981BA810E947E07A881B9818C914C
:100C00008CB9AC81BD818C918F5F8C9310F40C9466
:100C1000E5055D9BFECF8DE08CB95D9BFECF8AE044
:100C20008CB95E9A5E9BFECF549A84E0481A88275E
:100C3000580A269608958F939F938FB733955395AF
:100C400009F4439597EC92BF9F918FBF8F911895B0
:100C5000481A8827580A0895480E8827581E08956C
:100C6000ED91FC91E150F040FC93EE9308958F9349
:100C70008D918823E9F711978F91089588275F9BBD
:100C8000089500C05F9BFECF8CB108953197F1F7B6
:100C90000895689462F80895E89462F80895EF93CF
:100CA000FF93EE27E82BE92B31F0E3E3F7E03197F0
:100CB000F1F70197D1F7FF91EF9108955A924A9277
:100CC000480E8827581E08950F933F934F935F93C4
:100CD0002F923F928F939F938FB78F9383B78F936A
:100CE000826083BF89B78F93816089BF87EC82BFA1
:100CF000552744273327483008F047C0373324F4BA
:100D0000839BF8CFF8CF41C04830ECF78399FCCFF4
:100D100033273232D4F5839BFCCF932F332711270F
:100D20002227913110F0969511E0292E2694322C2D
:100D3000290E990F390E113021F0321534F58399AF
:100D4000FCCF33270CE03215F0F3839909C0889467
:100D5000111F221F3315CCF4839BFCCF332708C00F
:100D60000894111F221F331584F48399FCCF332775
:100D70000A9549F7912F991F221F991F221F25FBC2
:100D800017F926FB16F92F7102C01FEF2FEF8F9175
:100D900089BF8F9183BF8F918FBF9F918F913F901C
:100DA0002F905F914F913F910F9108950E94DC0623
:100DB0000D920020D9F70895C89531960020089526
:100DC000040F151F261F371F0895000F111F221F24
:100DD000331F089500951095209530950F5F1F4F94
:100DE0002F4F3F4F0895019110810EC00191119135
:100DF000219130810BC00191108117FF05C03FEF99
:100E00002FEF04C0008111272227332737FF03C0AB
:100E1000E1DF8DE28D93CF93DF93CF92DF92EF925C
:100E2000AA24BB24CC24DD24EE2440E2CAE0DD2742
:100E300055E093E38881890F87FD9F7083FD907F44
:100E4000891B89935A95A9F7C0DFAA1CBB1CCC1C2F
:100E5000DD1CEE1C4A9551F7E894EFE0FF278291E4
:100E60000ED0EB30E0F71EF068948A2D0CD0882766
:100E70008D93EF90DF90CF90DF91CF910895982FD1
:100E8000829501D0892F8F70805D26F0803309F420
:100E9000089568948D9308950027112722273327FA
:100EA0001DD08A3328F4803318F005D015D0F9CF3F
:100EB0000EF490CF089580538F93402F512F622FBF
:100EC000732F83DF82DF7CDF80DF8F919927080F0C
:100ED000191F291F391F08958D910895E894FCDF8B
:100EE0008032E9F38B32D9F38930C9F38D3211F4B2
:100EF0006894F2CF089588278D9308950991919170
:100F0000992351F08A95D9F7319781918D930A955C
:100F100019F08823D1F70895EECF8FEF83959D9137
:100F20009923E1F70895689401C0E894AF93BF93C3
:100F30008D9116F0919103C00E94DC06902D8917C7
:100F400018F011F48823A1F7BF91AF91089553745D
:100F5000617274204D696E69426F742076322E3151
:100F60000000696E2073746172740000696E5F69BD
:100F7000725F636F6E74726F6C00696E5F70617226
:100F80006B696E675F6D6F64650049525F636F6D7B
:100F90006D616E64202D2000616D6F756E740000B0
:100FA0002D00696E5F756C69746B6100696E5F73AB
:100FB000746174696F6E5F66696E64006F6E0000C5
:040FC0006F666600F2
:00000001FF
