:100000000C942A000C94DC010C942D01189500002E
:10001000189500000C94E90218950000189500004E
:100020001895000018950000189500000C94FA052A
:10003000189500000C941502189500001895000002
:1000400018950000189500001895000018950000FC
:10005000189500008FE58DBFC0E2E8EB4E2E88E0DA
:100060008EBFD8E0F7E05F2EEEEFF7E0A0E6B0E05D
:10007000A89584B7082E877F84BF88E1992781BD22
:1000800091BD88278D933197E9F783E089B980E0A6
:1000900080BD88E18AB966248D9A8C9A81EA8FBDE9
:1000A00081E08EBDA29AA39A8C9A8D9AA49AA59A61
:1000B000A69AA79ABA98D298D698D19AD9988F9A90
:1000C000979885B7837F886085BF8BB780688BBF23
:1000D00085B78C7F826085BF8BB780648BBF8A9821
:1000E00084E085BD89B7806489BF579A80E080939A
:1000F000A80082E08093AC008091BD008F77809350
:10010000BD008091BD008F7B8093BD008091BD00BC
:100110008F7D8093BD00AF9A789488EC90E00E9428
:100120001F06AEEBB0E0E6E0FFE00E94A606EEEBB5
:10013000F0E0FA93EA930E94AF052296AEEBB0E0AE
:10014000EAE1FFE00E94A606EEEBF0E0FA93EA9304
:100150000E94AF052296AEEBB0E0E4E2FFE00E9421
:10016000A606EEEBF0E0FA93EA930E94AF05229622
:100170008091BD008F7B8093BD008091BD008F7DFD
:100180008093BD000091A800023011F00C94D700BC
:100190008BB78F778BBF8CE08093A0000E94EA031F
:1001A0008BB780688BBF0E945B030C942B010330DC
:1001B00011F00C94EA008BB78F778BBF8CE08093A3
:1001C000A0000E94EA038BB780688BBF0E945D038A
:1001D0000C942B01013011F00C940C018BB78F772C
:1001E0008BBF8BE38093A0000E94EA038BB78068EB
:1001F0008BBFAEEBB0E0E8E2FFE00E94A606EEEBBC
:10020000F0E0FA93EA930E94AF0522960E945E0303
:100210000C9406010C942B018BB78F778BBF8CE06D
:100220008093A0000E94EA0381E08093A8008BB72E
:1002300080688BBFAEEBB0E0E6E3FFE00E94A6066D
:10024000EEEBF0E0FA93EA930E94AF0522960E944B
:100250005E030C9427010C94C2000F921F922F9200
:100260003F924F925F927F92AF92BF920F931F93F4
:100270002F933F934F935F936F937F938F939F93AE
:10028000AF93BF93CF93DF93EF93FF938FB78F938A
:100290008BB78F778BBF80E08093A90078940E9402
:1002A0003406AFE9B0E02C93A0EAB0E01C93789458
:1002B00000919F00003081E009F080E08F93009171
:1002C000A0000F3F81E009F480E09F9189238823FB
:1002D00011F40C94B201A0EAB0E08C918F778C936A
:1002E000AEEBB0E0E6E4FFE00E94A606AEEBB0E0C5
:1002F0000E940706E0EAF0E00E94D206EEEBF0E092
:10030000FA93EA930E94AF0522964091AA000091C9
:10031000A000041711F00C949401ABEAB0E08C91AA
:100320008F5F8C930C949B0180E08093AB00809155
:10033000A0008093AA00AEEBB0E0E4E5FFE00E94ED
:10034000A606AEEBB0E00E940706EBEAF0E00E94E2
:10035000D206EEEBF0E0FA93EA930E94AF05229604
:100360000E94EA038AB780688ABF8BB780688BBF18
:100370000091AD00013011F00C94C0010C949E006E
:100380008F918FBFFF91EF91DF91CF91BF91AF918F
:100390009F918F917F916F915F914F913F912F919D
:1003A0001F910F91BF90AF907F905F904F903F90C3
:1003B0002F901F900F9018950F921F922F923F929F
:1003C0004F925F927F92AF92BF920F931F932F93A2
:1003D0003F934F935F936F937F938F939F93AF93CD
:1003E000BF93CF93DF93EF93FF938FB78F930C94CB
:1003F000003C8F918FBFFF91EF91DF91CF91BF9123
:10040000AF919F918F917F916F915F914F913F91AC
:100410002F911F910F91BF90AF907F905F904F9061
:100420003F902F901F900F9018950F921F922F9230
:100430003F924F925F927F92AF92BF920F931F9322
:100440002F933F934F935F936F937F938F939F93DC
:10045000AF93BF93CF93DF93EF93FF938FB78F93B8
:1004600085B390E2892785BB0E940E06A3E9B0E020
:100470008C93009193000D3081E009F480E08F931C
:10048000009193000A3081E009F480E09F91892374
:10049000882311F40C945A02A3E9B0E08C91A0E6F1
:1004A000B0E08F930E9407068F918D9388278C93DD
:1004B0000C94CD02A0E6B0E0ECE5FFE00E946307FB
:1004C00011F00C9465020C94003C84E30E942E060B
:1004D00082E0E0E6F0E001E00A93A981BA810E949F
:1004E0004E07A881B981E2E6FFE00E9463070FB6DC
:1004F00084E3481A8827580A22960FBE11F00C94FC
:10050000C90281E0E0E6F0E001E00A93A4E9B0E08E
:100510000E944E0780E0A4E9B0E08F930E94070696
:100520008F918D9388278C93A4E9B0E00E941C07DB
:10053000ACEBB0E00C93A0E6B0E00E945D07082FA2
:1005400042E0041BA3E9B0E00C9383E0E0E6F0E0B6
:10055000009193000A93A4E9B0E00E944E0780E066
:10056000A4E9B0E08F930E9407068F918D938827AE
:100570008C93A4E9B0E00E941C07ACEBB0E0AD9016
:10058000BB24ACEAB0E0AA0CBB1CAA0DBB1D0D93AA
:100590001C93A0E6B0E088278C938F918FBFFF91CA
:1005A000EF91DF91CF91BF91AF919F918F917F910B
:1005B0006F915F914F913F912F911F910F91BF903C
:1005C000AF907F905F904F903F902F901F900F9033
:1005D00018950F921F922F923F924F925F927F92A7
:1005E000AF92BF920F931F932F933F934F935F93BD
:1005F0006F937F938F939F93AF93BF93CF93DF932B
:10060000EF93FF938FB78F930091A900083710F0F5
:100610000C941203A9EAB0E08C918F5F8C93AC9A92
:100620000C943F03AC980091A800013011F00C9499
:100630003F038BB78F778BBF0091AC00013011F077
:100640000C94270380E28093A0000C9437030030C1
:1006500011F00C94300381E28093A0000C943703D6
:10066000023011F00C9437038BE38093A0000E94BA
:10067000EA0380E08093AB008BB780688BBF8F91DB
:100680008FBFFF91EF91DF91CF91BF91AF919F917C
:100690008F917F916F915F914F913F912F911F911A
:1006A0000F91BF90AF907F905F904F903F902F90B1
:1006B0001F900F90189508950895089582E00E9464
:1006C0002E06AEEAB0E0E7E0F0E00E947707A881EE
:1006D000B9810D931C93A881B9810D911C910A35A4
:1006E00050E0150718F011F00C9478030C94A30354
:1006F0000091A800013081E009F080E08F9300278D
:10070000ADEBB0E08C9187FB0EF401E040E0041704
:1007100081E009F080E09F918923882311F40C94F3
:10072000A1038BB78F778BBF8BE38093A0000E94D0
:10073000EA038BB780688BBF8091BD00806880938F
:10074000BD000C94A8038091BD008F778093BD00FD
:100750000027ADEBB0E08C9185FB0EF401E041E0A9
:10076000041781E009F080E08F930027ADEBB0E043
:100770008C9186FB0EF401E040E0041781E009F063
:1007800080E09F918923882311F40C94E403AEEB5D
:10079000B0E0E4E6FFE00E94A606EEEBF0E0FA939C
:1007A000EA930E94AF0522968BB78F778BBF80911B
:1007B000BD0080648093BD008091BD008F7D8093DB
:1007C000BD008BB780688BBF82E0481A8827580A23
:1007D0002296089580E08093AD000091A000003241
:1007E00011F00C941A040027ADEBB0E08C9186FB5D
:1007F0000EF401E040E0041711F00C940404809121
:10080000BD0080628093BD00AA9AAB9A88EC90E00C
:10081000909349008093480088EC90E090934B00BF
:1008200080934A0081E08093AC0081E08093A8002F
:100830000C94AE05013211F00C943404AA98AB98D4
:1008400088EC90E0909349008093480088EC90E019
:1008500090934B0080934A0080E08093AC0081E04D
:100860008093A8000C94AE05013111F00C94A30400
:10087000AA98AB9A0091AB00003081E008F480E0C8
:100880008F930091AB00033081E010F009F080E01D
:100890009F918923882311F40C945C0488EC90E0E8
:1008A000909349008093480088EC90E090934B002F
:1008B00080934A000C949E040091AB00033081E0C9
:1008C00008F480E08F930091AB00053081E010F0D8
:1008D00009F080E09F918923882311F40C947E0411
:1008E00086EE90E0909349008093480086EE90E079
:1008F00090934B0080934A000C949E040091AB00AF
:10090000063081E008F480E08F930091AB000F3F48
:1009100081E010F009F080E09F918923882311F491
:100920000C949E048FEF90E09093490080934800D0
:100930008FEF90E090934B0080934A0081E080938A
:10094000A8000C94AE05003111F00C941205AA9A7F
:10095000AB980091AB00003081E008F480E08F9309
:100960000091AB00033081E010F009F080E09F912E
:100970008923882311F40C94CB0488EC90E09093A5
:1009800049008093480088EC90E090934B0080935E
:100990004A000C940D050091AB00033081E008F48F
:1009A00080E08F930091AB00053081E010F009F0FA
:1009B00080E09F918923882311F40C94ED0486EE46
:1009C00090E0909349008093480086EE90E09093E9
:1009D0004B0080934A000C940D050091AB0006304B
:1009E00081E008F480E08F930091AB000F3F81E03D
:1009F00010F009F080E09F918923882311F40C9472
:100A00000D058FEF90E090934900809348008FEFA1
:100A100090E090934B0080934A0081E08093A8007F
:100A20000C94AE050B3311F00C942C05AA9AAB9ADA
:100A300080E090E0909349008093480080E090E04F
:100A400090934B0080934A0082E08093AC0081E059
:100A50008093A8000C94AE050C3011F00C9449055D
:100A6000AA9AAB9A80E090E0909349008093480066
:100A700080E090E090934B0080934A0080E0809368
:100A8000A80082E08093AC0081E08093AD000C94DC
:100A9000AE05013011F00C944F050C94AE050230F8
:100AA00011F00C945B0582E08093A80081E08093B4
:100AB000AD000C94AE05033011F00C94670583E093
:100AC0008093A80081E08093AD000C94AE050733BD
:100AD00011F00C9471058BB392E089278BBB0C94B9
:100AE000AE050F3311F00C948405AEEBB0E0E4E6F4
:100AF000FFE00E94A606EEEBF0E0FA93EA930E9474
:100B0000AF0522960C94AE05083311F00C949705AE
:100B1000AEEBB0E0E4E2FFE00E94A606EEEBF0E010
:100B2000FA93EA930E94AF0522960C94AE05063222
:100B300011F00C94AE05AEEAB0E00D911C910436B4
:100B400050E0150718F011F00C94A8050C94AC05B2
:100B500085B390E4892785BB0C94AE05089581E0A8
:100B60000E942E0681E00E942E0682E00E942E0640
:100B70005498AE81BF810E945D07AA81BB818C938E
:100B800081E0AC81BD818C93AA81BB814C91AC8109
:100B9000BD810C91041718F011F00C94E8055D9BD1
:100BA000FECFAC81BD818C91EE81FF8101E00A9383
:100BB000A981BA810E944E07A881B9818C918CB914
:100BC000AC81BD818C918F5F8C9310F40C94C40523
:100BD0005D9BFECF8DE08CB95D9BFECF8AE08CB92A
:100BE0005E9A5E9BFECF549A84E0481A8827580A82
:100BF000269608958F939F938FB73395539509F455
:100C0000439597EC92BF9F918FBF8F9118958F93CB
:100C10008D918823E9F711978F91089588275F9B1D
:100C2000089500C05F9BFECF8CB108953197F1F716
:100C30000895689462F80895E89462F80895EF932F
:100C4000FF93EE27E82BE92B31F0E3E3F7E0319750
:100C5000F1F70197D1F7FF91EF9108955A924A92D7
:100C6000480E8827581E08950F933F934F935F9324
:100C70002F923F928F939F938FB78F9383B78F93CA
:100C8000826083BF89B78F93816089BF87EC82BF01
:100C9000552744273327483008F047C0373324F41A
:100CA000839BF8CFF8CF41C04830ECF78399FCCF55
:100CB00033273232D4F5839BFCCF932F3327112770
:100CC0002227913110F0969511E0292E2694322C8E
:100CD000290E990F390E113021F0321534F5839910
:100CE000FCCF33270CE03215F0F3839909C08894C8
:100CF000111F221F3315CCF4839BFCCF332708C070
:100D00000894111F221F331584F48399FCCF3327D5
:100D10000A9549F7912F991F221F991F221F25FB22
:100D200017F926FB16F92F7102C01FEF2FEF8F91D5
:100D300089BF8F9183BF8F918FBF9F918F913F907C
:100D40002F905F914F913F910F9108950E94AC06B3
:100D50000D920020D9F70895C89531960020089586
:100D6000040F151F261F371F0895000F111F221F84
:100D7000331F089500951095209530950F5F1F4FF4
:100D80002F4F3F4F0895019110810EC00191119195
:100D9000219130810BC00191108117FF05C03FEFF9
:100DA0002FEF04C0008111272227332737FF03C00C
:100DB000E1DF8DE28D93CF93DF93CF92DF92EF92BD
:100DC000AA24BB24CC24DD24EE2440E2CAE0DD27A3
:100DD00055E093E38881890F87FD9F7083FD907FA5
:100DE000891B89935A95A9F7C0DFAA1CBB1CCC1C90
:100DF000DD1CEE1C4A9551F7E894EFE0FF27829145
:100E00000ED0EB30E0F71EF068948A2D0CD08827C6
:100E10008D93EF90DF90CF90DF91CF910895982F31
:100E2000829501D0892F8F70805D26F0803309F480
:100E3000089568948D93089500271127222733275A
:100E40001DD08A3328F4803318F005D015D0F9CF9F
:100E50000EF490CF089580538F93402F512F622F1F
:100E6000732F83DF82DF7CDF80DF8F919927080F6C
:100E7000191F291F391F08958D910895E894FCDFEB
:100E80008032E9F38B32D9F38930C9F38D3211F412
:100E90006894F2CF089588278D93089509919191D0
:100EA000992351F08A95D9F7319781918D930A95BD
:100EB00019F08823D1F70895EECF8FEF83959D9198
:100EC0009923E1F70895689401C0E894AF93BF9324
:100ED0008D9116F0919103C00E94AC06902D891758
:100EE00018F011F48823A1F7BF91AF91089500275E
:100EF00011272D913D910217130710F4022F132F84
:100F00003197B9F708955374617274204D696E6911
:100F1000426F742076322E310000696E2062656760
:100F2000696E00006F666600696E5F69725F636F6D
:100F30006E74726F6C00696E5F7061726B696E6760
:100F40005F6D6F64650049525F636F6D6D616E64C4
:100F5000202D2000616D6F756E740000626F6F74DC
:080F600000002D006F6E00007F
:00000001FF
