:100000000C942A000C94DC010C942D01189500002E
:10001000189500000C94E90218950000189500004E
:100020001895000018950000189500000C94E8053C
:10003000189500000C941502189500001895000002
:1000400018950000189500001895000018950000FC
:10005000189500008FE58DBFC0E2E8EB4E2E88E0DA
:100060008EBFD8E0F7E05F2EEEEFF7E0A0E6B0E05D
:10007000A89584B7082E877F84BF88E1992781BD22
:1000800091BD88278D933197E9F783E089B980E0A6
:1000900080BD88E18AB966248D9A8C9A81EA8FBDE9
:1000A00081E08EBDA29AA39A8C9A8D9AA49AA59A61
:1000B000A69AA79ABA98D298D698D19AD9988F9A90
:1000C000979885B7837F886085BF8BB780688BBF23
:1000D00085B78C7F826085BF8BB780648BBF8A9821
:1000E00084E085BD89B7806489BF579A80E080939A
:1000F000A80082E08093AC008091BD008F77809350
:10010000BD008091BD008F7B8093BD008091BD00BC
:100110008F7D8093BD00AF9A789488EC90E00E9428
:100120000D06AEEBB0E0E2EEFEE00E949406EEEBD0
:10013000F0E0FA93EA930E949D052296AEEBB0E0C0
:10014000E6EFFEE00E949406EEEBF0E0FA93EA930D
:100150000E949D052296AEEBB0E0E0E0FFE00E9439
:100160009406EEEBF0E0FA93EA930E949D05229646
:100170008091BD008F7B8093BD008091BD008F7DFD
:100180008093BD000091A800023011F00C94D700BC
:100190008BB78F778BBF8CE08093A0000E94E40325
:1001A0008BB780688BBF0E945B030C942B010330DC
:1001B00011F00C94EA008BB78F778BBF8CE08093A3
:1001C000A0000E94E4038BB780688BBF0E945D0390
:1001D0000C942B01013011F00C940C018BB78F772C
:1001E0008BBF8BE38093A0000E94E4038BB78068F1
:1001F0008BBFAEEBB0E0E4E0FFE00E949406EEEBD4
:10020000F0E0FA93EA930E949D0522960E945E0315
:100210000C9406010C942B018BB78F778BBF8CE06D
:100220008093A0000E94E40381E08093A8008BB734
:1002300080688BBFAEEBB0E0E2E1FFE00E94940685
:10024000EEEBF0E0FA93EA930E949D0522960E945D
:100250005E030C9427010C94C2000F921F922F9200
:100260003F924F925F927F92AF92BF920F931F93F4
:100270002F933F934F935F936F937F938F939F93AE
:10028000AF93BF93CF93DF93EF93FF938FB78F938A
:100290008BB78F778BBF80E08093A90078940E9402
:1002A0002206AFE9B0E02C93A0EAB0E01C9378946A
:1002B00000919F00003081E009F080E08F93009171
:1002C000A0000F3F81E009F480E09F9189238823FB
:1002D00011F40C94B201A0EAB0E08C918F778C936A
:1002E000AEEBB0E0E2E2FFE00E949406AEEBB0E0DD
:1002F0000E94F505E0EAF0E00E94C006EEEBF0E0B7
:10030000FA93EA930E949D0522964091AA000091DB
:10031000A000041711F00C949401ABEAB0E08C91AA
:100320008F5F8C930C949B0180E08093AB00809155
:10033000A0008093AA00AEEBB0E0E0E3FFE00E94F3
:100340009406AEEBB0E00E94F505EBEAF0E00E9407
:10035000C006EEEBF0E0FA93EA930E949D05229628
:100360000E94E4038AB780688ABF8BB780688BBF1E
:100370000091AD00013011F00C94C0010C949E006E
:100380008F918FBFFF91EF91DF91CF91BF91AF918F
:100390009F918F917F916F915F914F913F912F919D
:1003A0001F910F91BF90AF907F905F904F903F90C3
:1003B0002F901F900F9018950F921F922F923F929F
:1003C0004F925F927F92AF92BF920F931F932F93A2
:1003D0003F934F935F936F937F938F939F93AF93CD
:1003E000BF93CF93DF93EF93FF938FB78F930C94CB
:1003F000003C8F918FBFFF91EF91DF91CF91BF9123
:10040000AF919F918F917F916F915F914F913F91AC
:100410002F911F910F91BF90AF907F905F904F9061
:100420003F902F901F900F9018950F921F922F9230
:100430003F924F925F927F92AF92BF920F931F9322
:100440002F933F934F935F936F937F938F939F93DC
:10045000AF93BF93CF93DF93EF93FF938FB78F93B8
:1004600085B390E2892785BB0E94FC05A3E9B0E033
:100470008C93009193000D3081E009F480E08F931C
:10048000009193000A3081E009F480E09F91892374
:10049000882311F40C945A02A3E9B0E08C91A0E6F1
:1004A000B0E08F930E94F5058F918D9388278C93F0
:1004B0000C94CD02A0E6B0E0E8E3FFE00E94510713
:1004C00011F00C9465020C94003C84E30E941C061D
:1004D00082E0E0E6F0E001E00A93A981BA810E949F
:1004E0003C07A881B981EEE3FFE00E9451070FB6F7
:1004F00084E3481A8827580A22960FBE11F00C94FC
:10050000C90281E0E0E6F0E001E00A93A4E9B0E08E
:100510000E943C0780E0A4E9B0E08F930E94F505BB
:100520008F918D9388278C93A4E9B0E00E940A07ED
:10053000ACEBB0E00C93A0E6B0E00E944B07082FB4
:1005400042E0041BA3E9B0E00C9383E0E0E6F0E0B6
:10055000009193000A93A4E9B0E00E943C0780E078
:10056000A4E9B0E08F930E94F5058F918D938827C1
:100570008C93A4E9B0E00E940A07ACEBB0E0AD9028
:10058000BB24ACEAB0E0AA0CBB1CAA0DBB1D0D93AA
:100590001C93A0E6B0E088278C938F918FBFFF91CA
:1005A000EF91DF91CF91BF91AF919F918F917F910B
:1005B0006F915F914F913F912F911F910F91BF903C
:1005C000AF907F905F904F903F902F901F900F9033
:1005D00018950F921F922F923F924F925F927F92A7
:1005E000AF92BF920F931F932F933F934F935F93BD
:1005F0006F937F938F939F93AF93BF93CF93DF932B
:10060000EF93FF938FB78F930091A900083710F0F5
:100610000C941203A9EAB0E08C918F5F8C93AC9A92
:100620000C943F03AC980091A800013011F00C9499
:100630003F038BB78F778BBF0091AC00013011F077
:100640000C94270380E28093A0000C9437030030C1
:1006500011F00C94300381E28093A0000C943703D6
:10066000023011F00C9437038BE38093A0000E94BA
:10067000E40380E08093AB008BB780688BBF8F91E1
:100680008FBFFF91EF91DF91CF91BF91AF919F917C
:100690008F917F916F915F914F913F912F911F911A
:1006A0000F91BF90AF907F905F904F903F902F90B1
:1006B0001F900F90189508950895089582E00E9464
:1006C0001C06AEEAB0E0E7E0F0E00E946507A88112
:1006D000B9810D931C93A881B9810D911C910A35A4
:1006E00050E0150718F011F00C9478030C94A30354
:1006F0000091A800013081E009F080E08F9300278D
:10070000ADEBB0E08C9187FB0EF401E040E0041704
:1007100081E009F080E09F918923882311F40C94F3
:10072000A1038BB78F778BBF8BE38093A0000E94D0
:10073000E4038BB780688BBF8091BD008068809395
:10074000BD000C94A8038091BD008F778093BD00FD
:100750000027ADEBB0E08C9185FB0EF401E041E0A9
:10076000041781E009F080E08F930027ADEBB0E043
:100770008C9186FB0EF401E040E0041781E009F063
:1007800080E09F918923882311F40C94DE03AEEB63
:10079000B0E0E0E4FFE00E949406EEEBF0E0FA93B4
:1007A000EA930E949D0522968091BD00806480930B
:1007B000BD008091BD008F7D8093BD0082E0481A0E
:1007C0008827580A2296089580E08093AD00009112
:1007D000A000003211F00C9408048091BD008062EA
:1007E0008093BD00AA9AAB9A88EC90E09093490060
:1007F0008093480088EC90E090934B0080934A00EF
:1008000081E08093AC0081E08093A8000C949C056B
:10081000013211F00C942204AA98AB9888EC90E075
:10082000909349008093480088EC90E090934B00AF
:1008300080934A0080E08093AC0081E08093A80020
:100840000C949C05013111F00C949104AA98AB9A78
:100850000091AB00003081E008F480E08F930091BC
:10086000AB00033081E010F009F080E09F91892314
:10087000882311F40C944A0488EC90E0909349008A
:100880008093480088EC90E090934B0080934A005E
:100890000C948C040091AB00033081E008F480E0FC
:1008A0008F930091AB00053081E010F009F080E0FB
:1008B0009F918923882311F40C946C0486EE90E0B8
:1008C000909349008093480086EE90E090934B000F
:1008D00080934A000C948C040091AB00063081E0B8
:1008E00008F480E08F930091AB000F3F81E010F09F
:1008F00009F080E09F918923882311F40C948C04E3
:100900008FEF90E090934900809348008FEF90E044
:1009100090934B0080934A0081E08093A8000C9450
:100920009C05003111F00C940005AA9AAB98009137
:10093000AB00003081E008F480E08F930091AB00C1
:10094000033081E010F009F080E09F918923882333
:1009500011F40C94B90488EC90E0909349008093D2
:10096000480088EC90E090934B0080934A000C94F0
:10097000FB040091AB00033081E008F480E08F932A
:100980000091AB00053081E010F009F080E09F910C
:100990008923882311F40C94DB0486EE90E0909375
:1009A00049008093480086EE90E090934B0080933E
:1009B0004A000C94FB040091AB00063081E008F47F
:1009C00080E08F930091AB000F3F81E010F009F0C1
:1009D00080E09F918923882311F40C94FB048FEF0E
:1009E00090E090934900809348008FEF90E09093BF
:1009F0004B0080934A0081E08093A8000C949C05F2
:100A00000B3311F00C941A05AA9AAB9A80E090E08F
:100A1000909349008093480080E090E090934B00D1
:100A200080934A0082E08093AC0081E08093A8002C
:100A30000C949C050C3011F00C943705AA9AAB9AD3
:100A400080E090E0909349008093480080E090E03F
:100A500090934B0080934A0080E08093A80082E04E
:100A60008093AC0081E08093AD000C949C05013034
:100A700011F00C943D050C949C05023011F00C947F
:100A8000490582E08093A80081E08093AD000C943A
:100A90009C05033011F00C94550583E08093A80069
:100AA00081E08093AD000C949C05073311F00C9409
:100AB0005F058BB392E089278BBB0C949C050F33A9
:100AC00011F00C947205AEEBB0E0E0E4FFE00E94A0
:100AD0009406EEEBF0E0FA93EA930E949D052296CD
:100AE0000C949C05083311F00C948505AEEBB0E036
:100AF000E0E0FFE00E949406EEEBF0E0FA93EA9368
:100B00000E949D0522960C949C05063211F00C94CF
:100B10009C05AEEAB0E00D911C91043650E015073B
:100B200018F011F00C9496050C949A0585B390E496
:100B3000892785BB0C949C05089581E00E941C06C2
:100B400081E00E941C0682E00E941C065498AE813F
:100B5000BF810E944B07AA81BB818C9381E0AC814D
:100B6000BD818C93AA81BB814C91AC81BD810C91DC
:100B7000041718F011F00C94D6055D9BFECFAC81E4
:100B8000BD818C91EE81FF8101E00A93A981BA8138
:100B90000E943C07A881B9818C918CB9AC81BD8140
:100BA0008C918F5F8C9310F40C94B2055D9BFECFFB
:100BB0008DE08CB95D9BFECF8AE08CB95E9A5E9B1E
:100BC000FECF549A84E0481A8827580A269608953A
:100BD0008F939F938FB73395539509F4439597EC73
:100BE00092BF9F918FBF8F9118958F938D9188237E
:100BF000E9F711978F91089588275F9B089500C0AA
:100C00005F9BFECF8CB108953197F1F708956894FA
:100C100062F80895E89462F80895EF93FF93EE2741
:100C2000E82BE92B31F0E3E3F7E03197F1F7019797
:100C3000D1F7FF91EF9108955A924A92480E882772
:100C4000581E08950F933F934F935F932F923F92B7
:100C50008F939F938FB78F9383B78F93826083BF58
:100C600089B78F93816089BF87EC82BF552744275E
:100C70003327483008F047C0373324F4839BF8CF3C
:100C8000F8CF41C04830ECF78399FCCF332732329C
:100C9000D4F5839BFCCF932F332711272227913143
:100CA00010F0969511E0292E2694322C290E990FDA
:100CB000390E113021F0321534F58399FCCF3327EA
:100CC0000CE03215F0F3839909C08894111F221F9C
:100CD0003315CCF4839BFCCF332708C00894111F35
:100CE000221F331584F48399FCCF33270A9549F7E3
:100CF000912F991F221F991F221F25FB17F926FBF1
:100D000016F92F7102C01FEF2FEF8F9189BF8F91BE
:100D100083BF8F918FBF9F918F913F902F905F9155
:100D20004F913F910F9108950E949A060D920020D5
:100D3000D9F70895C895319600200895040F151F1E
:100D4000261F371F0895000F111F221F331F0895FC
:100D500000951095209530950F5F1F4F2F4F3F4FF7
:100D60000895019110810EC001911191219130815E
:100D70000BC00191108117FF05C03FEF2FEF04C09A
:100D8000008111272227332737FF03C0E1DF8DE2DF
:100D90008D93CF93DF93CF92DF92EF92AA24BB245F
:100DA000CC24DD24EE2440E2CAE0DD2755E093E3C5
:100DB0008881890F87FD9F7083FD907F891B8993B0
:100DC0005A95A9F7C0DFAA1CBB1CCC1CDD1CEE1C6D
:100DD0004A9551F7E894EFE0FF2782910ED0EB306F
:100DE000E0F71EF068948A2D0CD088278D93EF9041
:100DF000DF90CF90DF91CF910895982F829501D009
:100E0000892F8F70805D26F0803309F408956894EF
:100E10008D93089500271127222733271DD08A3369
:100E200028F4803318F005D015D0F9CF0EF490CF08
:100E3000089580538F93402F512F622F732F83DF9C
:100E400082DF7CDF80DF8F919927080F191F291F10
:100E5000391F08958D910895E894FCDF8032E9F3FD
:100E60008B32D9F38930C9F38D3211F46894F2CF03
:100E7000089588278D93089509919191992351F0B0
:100E80008A95D9F7319781918D930A9519F0882326
:100E9000D1F70895EECF8FEF83959D919923E1F7D8
:100EA0000895689401C0E894AF93BF938D9116F0B4
:100EB000919103C00E949A06902D891718F011F4A1
:100EC0008823A1F7BF91AF910895002711272D9195
:100ED0003D910217130710F4022F132F3197B9F722
:100EE00008955374617274204D696E69426F742065
:100EF00076322E310000696E20626567696E0000EF
:100F00006F666600696E5F69725F636F6E74726FA1
:100F10006C00696E5F7061726B696E675F6D6F64A4
:100F2000650049525F636F6D6D616E64202D200016
:100F3000616D6F756E740000626F6F7400002D003C
:040F40006F6E0000D0
:00000001FF
