:100000000C942A00189500000C940001189500002B
:10001000189500000C9478021895000018950000BF
:100020001895000018950000189500000C94E9043C
:10003000189500000C94AF01189500001895000069
:1000400018950000189500001895000018950000FC
:10005000189500008FE58DBFC0E2E8EB4E2E88E0DA
:100060008EBFD8E0F7E05F2EEEEFF7E0A0E6B0E05D
:10007000A89584B7082E877F84BF88E1992781BD22
:1000800091BD88278D933197E9F783E089B980E0A6
:1000900080BD88E18AB966248D9A8C9A81EA8FBDE9
:1000A00081E08EBDA29AA39A8C9A8D9AA49AA59A61
:1000B000A69AA79A8A98BA98D298D698D19AD99897
:1000C0008F9A979885B7837F886085BF8BB7806844
:1000D0008BBF84E085BD89B7806489BF579A80E073
:1000E0008093A80082E08093AC00AF9A789488EC6B
:1000F00090E00E940E05ADEBB0E0ECECFCE00E945D
:100100009505EDEBF0E0FA93EA930E949E042296A7
:10011000ADEBB0E0E0EEFCE00E949505EDEBF0E029
:10012000FA93EA930E949E0422960091A80002305E
:1001300011F00C94AA008BB78F778BBF8CE0809363
:10014000A0000E94EE028BB780688BBF0E94EA027B
:100150000C94FE00033011F00C94BD008BB78F7728
:100160008BBF8CE08093A0000E94EE028BB780686A
:100170008BBF0E94EC020C94FE00013011F00C9435
:10018000DF008BB78F778BBF8BE38093A0000E943B
:10019000EE028BB780688BBFADEBB0E0EAEEFCE01F
:1001A0000E949505EDEBF0E0FA93EA930E949E041D
:1001B00022960E94ED020C94D9000C94FE008BB79D
:1001C0008F778BBF8CE08093A0000E94EE0281E0CD
:1001D0008093A8008BB780688BBFADEBB0E0E8EFF1
:1001E000FCE00E949505EDEBF0E0FA93EA930E94A3
:1001F0009E0422960E94ED020C94FA000C94950045
:100200000F921F922F923F924F925F927F92AF92E6
:10021000BF920F931F932F933F934F935F936F93CF
:100220007F938F939F93AF93BF93CF93DF93EF937E
:10023000FF938FB78F938BB78F778BBF80E08093BF
:10024000A90078940E942305AFE9B0E02C93A0EABE
:10025000B0E01C93789400919F00003081E009F099
:1002600080E08F930091A0000F3F81E009F480E0CF
:100270009F918923882311F40C948501A0EAB0E0B2
:100280008C918F778C93ADEBB0E0E8E0FDE00E94BD
:100290009505ADEBB0E00E94F604E0EAF0E00E94C4
:1002A000C105EDEBF0E0FA93EA930E949E042296DA
:1002B0004091AA000091A000041711F00C9467016E
:1002C000ABEAB0E08C918F5F8C930C946E0180E070
:1002D0008093AB008091A0008093AA00ADEBB0E0CA
:1002E000E6E1FDE00E949505ADEBB0E00E94F6046A
:1002F000EBEAF0E00E94C105EDEBF0E0FA93EA933F
:100300000E949E0422960E94EE028AB780688ABFED
:100310008BB780688BBF0091AD00013011F00C9459
:1003200093010C9488008F918FBFFF91EF91DF9123
:10033000CF91BF91AF919F918F917F916F915F917D
:100340004F913F912F911F910F91BF90AF907F9050
:100350005F904F903F902F901F900F9018950F92A5
:100360001F922F923F924F925F927F92AF92BF92D5
:100370000F931F932F933F934F935F936F937F93AD
:100380008F939F93AF93BF93CF93DF93EF93FF939D
:100390008FB78F9385B390E2892785BB0E94FD04B8
:1003A000A3E9B0E08C93009193000D3081E009F453
:1003B00080E08F93009193000A3081E009F480E09F
:1003C0009F918923882311F40C94F401A3E9B0E0F0
:1003D0008C91A0E6B0E08F930E94F6048F918D93EC
:1003E00088278C930C945C0284E30E941D0582E0B4
:1003F000E0E6F0E001E00A93A981BA810E943D069F
:10040000A881B981EEE1FDE00E9452060FB684E3B7
:10041000481A8827580A22960FBE11F00C945802E9
:1004200081E0E0E6F0E001E00A93A4E9B0E00E9498
:100430003D0680E0A4E9B0E08F930E94F6048F911E
:100440008D9388278C93A4E9B0E00E940B06ACEB57
:10045000B0E00C93A0E6B0E00E944C06082F42E00A
:10046000041BA3E9B0E00C9383E0E0E6F0E0009128
:1004700093000A93A4E9B0E00E943D0680E0A4E95D
:10048000B0E08F930E94F6048F918D9388278C9310
:10049000A4E9B0E00E940B06ACEBB0E0AD90BB2449
:1004A000ACEAB0E0AA0CBB1CAA0DBB1D0D931C93BB
:1004B000A0E6B0E088278C938F918FBFFF91EF91DA
:1004C000DF91CF91BF91AF919F918F917F916F916C
:1004D0005F914F913F912F911F910F91BF90AF90DE
:1004E0007F905F904F903F902F901F900F901895A6
:1004F0000F921F922F923F924F925F927F92AF92F4
:10050000BF920F931F932F933F934F935F936F93DC
:100510007F938F939F93AF93BF93CF93DF93EF938B
:10052000FF938FB78F930091A900083710F00C94B8
:10053000A102A9EAB0E08C918F5F8C93AC9A0C94E5
:10054000CE02AC980091A800013011F00C94CE02BC
:100550008BB78F778BBF0091AC00013011F00C94FA
:10056000B60280E28093A0000C94C602003011F025
:100570000C94BF0281E28093A0000C94C60202306A
:1005800011F00C94C6028BE38093A0000E94EE024F
:1005900080E08093AB008BB780688BBF8F918FBF5B
:1005A000FF91EF91DF91CF91BF91AF919F918F918B
:1005B0007F916F915F914F913F912F911F910F917B
:1005C000BF90AF907F905F904F903F902F901F9083
:1005D0000F901895089508950895089580E08093E8
:1005E000AD000091A000003211F00C940D03AA9A06
:1005F000AB9A88EC90E0909349008093480088EC97
:1006000090E090934B0080934A0081E08093AC008F
:1006100081E08093A8000C949D04013211F00C94A9
:100620002703AA98AB9888EC90E0909349008093B8
:10063000480088EC90E090934B0080934A0080E063
:100640008093AC0081E08093A8000C949D0401315C
:1006500011F00C9494030091AB00003081E008F499
:1006600080E08F930091AB00033081E010F009F03F
:1006700080E09F918923882311F40C944D0380E03E
:1006800090E0909349008093480088EC90E090932C
:100690004B0080934A000C948F030091AB00033011
:1006A00081E008F480E08F930091AB00053081E099
:1006B00010F009F080E09F918923882311F40C94B5
:1006C0006F0380E090E0909349008093480086EEAD
:1006D00090E090934B0080934A000C948F0300911C
:1006E000AB00063081E008F480E08F930091AB000E
:1006F0000F3F81E010F009F080E09F91892388236B
:1007000011F40C948F0380E090E090934900809363
:1007100048008FEF90E090934B0080934A0081E077
:100720008093A8000C949D04003111F00C940104F6
:100730000091AB00003081E008F480E08F930091DD
:10074000AB00033081E010F009F080E09F91892335
:10075000882311F40C94BA0388EC90E0909349003C
:100760008093480080E090E090934B0080934A0093
:100770000C94FC030091AB00033081E008F480E0AE
:100780008F930091AB00053081E010F009F080E01C
:100790009F918923882311F40C94DC0386EE90E06A
:1007A000909349008093480080E090E090934B0044
:1007B00080934A000C94FC030091AB00063081E06A
:1007C00008F480E08F930091AB000F3F81E010F0C0
:1007D00009F080E09F918923882311F40C94FC0395
:1007E0008FEF90E0909349008093480080E090E084
:1007F00090934B0080934A0081E08093A8000C9472
:100800009D040B3311F00C941B04AA9AAB9A80E060
:1008100090E0909349008093480080E090E09093AE
:100820004B0080934A0082E08093AC0081E080938B
:10083000A8000C949D040C3011F00C943804AA9A72
:10084000AB9A80E090E0909349008093480080E06C
:1008500090E090934B0080934A0080E08093A80042
:1008600082E08093AC0081E08093AD000C949D0405
:10087000013011F00C943E040C949D04023011F0F0
:100880000C944A0482E08093A80081E08093AD003C
:100890000C949D04033011F00C94560483E0809373
:1008A000A80081E08093AD000C949D04073311F003
:1008B0000C9460048BB392E089278BBB0C949D044D
:1008C0000F3311F00C947304ADEBB0E0E0E2FDE007
:1008D0000E949505EDEBF0E0FA93EA930E949E04E6
:1008E00022960C949D04083311F00C948604ADEB11
:1008F000B0E0E4E2FDE00E949505EDEBF0E0FA9354
:10090000EA930E949E0422960C949D04063211F0F4
:100910000C949D04AEEAB0E00D911C91043650E0B9
:10092000150718F011F00C9497040C949B0485B3F0
:1009300090E4892785BB0C949D04089581E00E9472
:100940001D0581E00E941D0582E00E941D0554984E
:10095000AE81BF810E944C06AA81BB818C9381E04D
:10096000AC81BD818C93AA81BB814C91AC81BD814E
:100970000C91041718F011F00C94D7045D9BFECF76
:10098000AC81BD818C91EE81FF8101E00A93A98148
:10099000BA810E943D06A881B9818C918CB9AC8145
:1009A000BD818C918F5F8C9310F40C94B3045D9B8C
:1009B000FECF8DE08CB95D9BFECF8AE08CB95E9A4C
:1009C0005E9BFECF549A84E0481A8827580A2696E0
:1009D00008958F939F938FB73395539509F443955B
:1009E00097EC92BF9F918FBF8F9118958F938D91A8
:1009F0008823E9F711978F91089588275F9B0895C1
:100A000000C05F9BFECF8CB108953197F1F7089538
:100A1000689462F80895E89462F80895EF93FF935C
:100A2000EE27E82BE92B31F0E3E3F7E03197F1F71C
:100A30000197D1F7FF91EF9108955A924A92480E8B
:100A40008827581E08950F933F934F935F932F92DB
:100A50003F928F939F938FB78F9383B78F938260CB
:100A600083BF89B78F93816089BF87EC82BF552789
:100A700044273327483008F047C0373324F4839B9A
:100A8000F8CFF8CF41C04830ECF78399FCCF33273B
:100A90003232D4F5839BFCCF932F332711272227A3
:100AA000913110F0969511E0292E2694322C290EC2
:100AB000990F390E113021F0321534F58399FCCF9E
:100AC00033270CE03215F0F3839909C08894111F85
:100AD000221F3315CCF4839BFCCF332708C0089426
:100AE000111F221F331584F48399FCCF33270A95F5
:100AF00049F7912F991F221F991F221F25FB17F9D4
:100B000026FB16F92F7102C01FEF2FEF8F9189BFBF
:100B10008F9183BF8F918FBF9F918F913F902F9027
:100B20005F914F913F910F9108950E949B050D9207
:100B30000020D9F70895C895319600200895040F34
:100B4000151F261F371F0895000F111F221F331F67
:100B5000089500951095209530950F5F1F4F2F4FEA
:100B60003F4F0895019110810EC001911191219183
:100B700030810BC00191108117FF05C03FEF2FEFAF
:100B800004C0008111272227332737FF03C0E1DF8C
:100B90008DE28D93CF93DF93CF92DF92EF92AA24D1
:100BA000BB24CC24DD24EE2440E2CAE0DD2755E05E
:100BB00093E38881890F87FD9F7083FD907F891B58
:100BC00089935A95A9F7C0DFAA1CBB1CCC1CDD1C5D
:100BD000EE1C4A9551F7E894EFE0FF2782910ED082
:100BE000EB30E0F71EF068948A2D0CD088278D93A7
:100BF000EF90DF90CF90DF91CF910895982F82955D
:100C000001D0892F8F70805D26F0803309F408951C
:100C100068948D93089500271127222733271DD02C
:100C20008A3328F4803318F005D015D0F9CF0EF4AC
:100C300090CF089580538F93402F512F622F732FA1
:100C400083DF82DF7CDF80DF8F919927080F191FF8
:100C5000291F391F08958D910895E894FCDF803293
:100C6000E9F38B32D9F38930C9F38D3211F46894EA
:100C7000F2CF089588278D93089509919191992332
:100C800051F08A95D9F7319781918D930A9519F092
:100C90008823D1F70895EECF8FEF83959D91992307
:100CA000E1F70895689401C0E894AF93BF938D91E4
:100CB00016F0919103C00E949B05902D891718F0A2
:100CC00011F48823A1F7BF91AF9108955374617215
:100CD00074204D696E69426F742076322E310000A7
:100CE000696E20626567696E0000696E5F69725F98
:100CF000636F6E74726F6C00696E5F7061726B69A6
:100D00006E675F6D6F64650049525F636F6D6D6103
:100D10006E64202D2000616D6F756E7400002D00D3
:080D20006F6E00006F666600B3
:00000001FF
